:10000000801878FFE4B8200118F6D8F99000007F36
:10001000007E07E4F0A3DFFCDEFA758120023040A9
:1000200090052A1231AA12390C1231D7900497E0A8
:1000300090001E12390F75EAA175ED9C90052A12E9
:10004000317F00E5EC30E7FB023908022C3EEFD3AC
:100050009404500D121767F583E5822D1215F5E40F
:10006000F022000233D1EFD39404500D121774F52F
:1000700083E5822D1215F5E4F0220002331190057C
:1000800042E0606AE4FE12193C400302155F121759
:100090001FE064017054747A2E121744E0701C90B3
:1000A000030CE0B40215E4F090030FF0900542F069
:1000B000C28A90030B0412171EE4F0747A2E1217F2
:1000C00044E0B40125EEB4030E90030CE004F0907C
:1000D00005427403F0800EE490030CF090030FF0DF
:1000E00090054204F012171FE4F00E021086E4FEA1
:1000F00012193C400302155F12171FE064016003F0
:1001000002155B747A2E121744E0FF600302132C71
:100110001219A460030211C4900019F090030A128E
:100120001945703790030DE0FC70069004B0048010
:1001300042EC6401701D90028FE0B4010A74091250
:1001400017EDF0E40211C012196270789004B074D7
:1001500021805774291217EDF08065ED6402705408
:1001600090030DE0FD701D900290E0B4010A900430
:10017000B0740512183A8048121969704774111248
:100180001837803CED6401703B90028FE0B4010EA3
:100190009004B074191217F0F0E4900002F090028D
:1001A000A7E0B4011F9004B0742512183A90000221
:1001B00004F0801090030EE0B40309741512183790
:1001C000900002F0EE640260030212779003C9F01F
:1001D000900290121945703B90030DE0FC7007905F
:1001E00004B074048045EC6401701D900307E0B412
:1001F000010A740612174EF0E402127312196270AB
:10020000769004B0742480559004B074261217516F
:10021000F08060ED6402704F90030DE0FD701D9062
:10022000030AE0B4010A9004B07405121844804334
:10023000121969704274141218418037ED6401700C
:1002400036900307E0B4010912174CF0E490000265
:10025000F09002A7E0B4011F9004B0742512184476
:1002600090000204F0801090030EE0B403097415AE
:10027000121841900002F0EE6403600302155490DE
:100280000002F09002A8121945703B90030DE0FCAB
:1002900070089004B074100214E5EC6401701F90B3
:1002A0000307E0B401089004B07412021539121962
:1002B000E460030215549004B074180215239004EE
:1002C000B0741A02154CED6402704E90030DE0FDFF
:1002D000702290030AE0B401089004B07411021473
:1002E000E5900290E0640160030215549004B0743C
:1002F000140214E5ED64016003021554900307E055
:10030000B4010612174C12183A1219E460030215D0
:10031000549004B0741902152390030EE064036036
:10032000030215549004B074150214E5EF640160E3
:10033000030215541219A460030213E89000190473
:10034000F09003071218D57037A3E0FD70079004F2
:10035000B074028024ED6401701A900290E0B40140
:10036000079004B074068011121969707B9004B074
:10037000741280059004B07416F0E49003C9806391
:10038000EF6402704F90030EE0FF701A90028FE04E
:10039000B401079004B0740A803312196270499056
:1003A00004B074228011EF6401703D900290E0B4BB
:1003B000010F9004B0742612183A90000204F080E5
:1003C000279002A8E0B401209004B0741A1217F02C
:1003D000F0E4801090030DE0B4030D9004B0742A93
:1003E0001217F0F0900002F0EE6402600302149C19
:1003F0009003C904F090028F1218D57037A3E0FD66
:1004000070079004B074088024ED6401701A9003A2
:100410000AE0B401079004B07409801112196970E0
:100420007B9004B0741880059004B07419F0E490C7
:1004300000198063EF6402704F90030EE0FF701AA2
:10044000900307E0B401079004B0740A801D1219EC
:100450006270499004B074288024EF6401703D906C
:10046000030AE0B4010C9004B0741A121751F0E4BE
:1004700080269002A8E0B401239004B074291218D9
:100480004490000204F0801490030DE0B4030D903A
:1004900004B0742A121751F0900002F0EE64036069
:1004A0000302155490000204F0E49002A71218D63B
:1004B000703AA3E0FD70079004B074208027ED64CB
:1004C00001701D90030AE0B401079004B07421800C
:1004D00014900290E06401707B9004B07424800555
:1004E0009004B07425F0E49000198063EF6402700A
:1004F0004F90030EE0FF701A900307E0B4010790DD
:1005000004B0742280331219E470499004B0742846
:100510008011EF6401703D90030AE0B4010F900474
:10052000B074291218449003C904F08027900290F7
:10053000E0B401209004B07426121751F0E480104A
:1005400090030DE0B4030D9004B0742A121751F01B
:100550009003C9F012171FE4F0C28A0E0210F07F58
:100560000422EF246AFFEE34FFFE7C007D0A12288D
:10057000997D321228ABEF2496FFE43EFEEB75F036
:1005800002A42432F582E5F03400F5832275F002EE
:1005900012297AE0FCA3E0FD75F088EFA42454F55D
:1005A00082E5F03400F583EE75F00202297AEF243B
:1005B0005AFFEE34FBFE7C007D0A1228997D1E1244
:1005C00028ABEF24A6FFEE3404FEEB75F002A42462
:1005D0002AF582E5F03400F5832290053AE0FF9099
:1005E0000539E0FE75F088A424B7F582E5F0340003
:1005F000F583E5822FF582E43583F5832275F004D7
:1006000012297AE0F8A3E0F9A3E0FAA3E0FB900353
:10061000DEE0FCA3E0FDA3E0FEA3E02275F002EB28
:10062000A42422F582E5F03400F583E0FCA3E0FD8C
:1006300075F002EBA4241AF582E5F03400F583226C
:1006400090053BE0FEA3E0FF900539E0FD75F088E2
:10065000A4248AF582E5F03400F58322E0FCA3E0CF
:10066000FDEF75F088A42466F582E5F03400229051
:1006700029C3C39BFBEE9AFAED99F9EC98F8E49341
:10068000FE740193FFE4FCFDC302292CE0FE75F02B
:1006900088A42442F582E5F03400F58375F002EF7A
:1006A00012297AE0FCA3E0FDEE75F088A42454F54D
:1006B00082E5F03400F58322C39DFFEE9CFEE075D9
:1006C000F088A42478F582E5F03400F583229005C3
:1006D00039E0FF75F088A42442F582E5F03400F596
:1006E000832275F088A4249CF582E5F03400F5831C
:1006F000EC75F00202297AF583E0FCA3E0FDEF75CA
:10070000F002A42422F582E5F03400F58322E4F01F
:1007100075F088EEA424C0F582E5F0340022F07470
:10072000822EF582E43402F58322900539E0FD75CE
:10073000F088A4249CF582E5F03400F5832290052E
:1007400028E0247AF582E43402F5832274169004BA
:10075000B0F0900019740122F583E493FC740193C6
:10076000FD75F002EFA422EF75F009A424E2F582F2
:10077000E4340322EF75F009A42415F582E4340370
:100780002290053AE0FF900539E075F088A424AE88
:10079000F582E5F034002290053DE0FDEF9D748088
:1007A000F86E9822900539E0FFA3E0FD22F0A3F057
:1007B000A3F0A3F0A322E0FEA3E0FFD322F583750C
:1007C000F002EF12297AECF0A3EDF022E0FCA3E0B6
:1007D000FDEC541F22EDF0CBEFCBEBD3940422754C
:1007E000F088EEA424C9F582E5F03400229004B02C
:1007F000F09003C974012274932BF582E43402F55E
:10080000832274032BF582E43400F5832274B72B22
:10081000F582E43402F5832274CA2BF582E43403B2
:10082000F58322C39BFBEE9AFAED99F9EC98F82236
:100830009004B0F0C28A229004B0F0E49003C9F0B2
:10084000229004B0F0E4900019F022EB25E024F7A8
:10085000F582E4342AF58322E024AEF582E4340004
:10086000F583E064012275F002EF12297AE0FCA31F
:10087000E0FD75F08822E4F0A3F075F08822742082
:10088000902EC9F0902EC322F583ECF0A3EDF0EF8B
:1008900025E022EE8FF012290075F088ED22E0FFAE
:1008A00025E02429F582E4340522902EC5E4F09059
:1008B0002ECDF0A3F022C3EF94E2EE6480947F2269
:1008C000F583E0FCA3E0FD75F00222E49004B0F0B3
:1008D000900019F022E4F090030DE0FF640122750E
:1008E000F024A42406F582E43404F5832275F02470
:1008F000A42439F582E43403F5832225E025E0249D
:1009000097F582E43402F5832225E025E02407F5FB
:1009100082E43400F5832225E025E024F3F582E427
:100920003402F5832225E025E024CEF582E4340369
:10093000F58322900539E0FFA3E0FD22900018E046
:10094000FFEEC39F22F090030EE0FD640122E0FE63
:10095000A3E0C39D22E0FF900529E0FEEFC8EEC8AA
:1009600008229002A7E06401229002A8E06401221C
:10097000F582E43403F58322941EEE648094802291
:10098000F0CEA3F0900539E02290053BE0FEA3E015
:1009900022F0ECA3F0EDA3F022E0247EF582E43413
:1009A00002F583229004A0E054F0F0EE6401227579
:1009B000F00412297A02293DE0FCA3E0C39F2290B3
:1009C0000528E004F022900528E0FF75F002A4223B
:1009D000E49004B0F0900002F022E49004B0F090B3
:1009E00003C9F02290028FE06401229005467487CB
:1009F000F0227404F0E4A3F022900539EFF0A3EDA7
:100A0000F090053D7404F0ED70037402F090053928
:100A1000E0FF121662F583C083C08290053AE0FEC3
:100A2000D082D08312158D12194EFFEE9CFE9005D8
:100A30003BF0A3EFF01238FCC31217974003021AE1
:100A4000F2121640C083C08290053AE0FCD082D0FA
:100A5000831215A8121893121650EC1215A812172B
:100A6000B61219784024121648C083C08290053A05
:100A7000E0FCD082D0831215A8E4F0A3F0ED1216AA
:100A8000621216EEE475F001802B1218B650299010
:100A90000539E0FF12164DC083C08290053AE0FE92
:100AA000D082D0831215A8E4F0A3F01216611215BB
:100AB000A574FFF5F01229001217A412104E121798
:100AC000A41235E61217A4123428EF7003021C207A
:100AD00090053AE0FF900539E0FE12178A1215F0F2
:100AE000E4F0EF6003021C201217DFF583E4F0024C
:100AF0001C2090053AE0703EA3E0FEA3E0FF123810
:100B0000FC90053DE02402FDE433FCD3EF9DEC6452
:100B100080F8EE64809840091217811215F0740174
:100B2000F0121C59D3121797402C900539E075F03C
:100B3000881217E3801B121C5990053DE0FDD3126B
:100B4000179C4012121781F583E5822FF582E43558
:100B500083F5837401F0121640C083C08290053A79
:100B6000E0FCD082D0831215A812189312165012EE
:100B700016F01217B69464EE648094804023121627
:100B800048C083C08290053AE0FCD082D083121521
:100B9000A8121876ED1216651216EEE475F00180B3
:100BA00031C3EF949CEE6480947F5029900539E026
:100BB000FF12164DC083C08290053AE0FED082D06D
:100BC000831215A8E4F0A3F01216611215A574FFA4
:100BD000F5F0122900C390053BE064809480503406
:100BE0001217A41235AD1217A412347BEF602B90AC
:100BF0000539E0FF1216A9C083C08290053AE0FED5
:100C0000D082D0831215A812165C1215A5ECF0A3A1
:100C1000EDF080061217A412104E1217A4121066DF
:100C2000900539E0FF121662F583C083C0829005FB
:100C30003AE0FED082D08312158DE0FEA3E090054D
:100C4000391216B8C083C08290053AE0D082D083B2
:100C50001215A8EEF0A3EFF02290053BE0FEA3E012
:100C6000FF1238FC22900539EFF0A3EDF09005411A
:100C70007405F0ED60409000AEE0640160089005FE
:100C80003A12185870301216CEC083C08290053ABE
:100C9000E0FED082D08312158DECF0ED1219821295
:100CA000172FC083C08290053AE0D082D0831215FE
:100CB000A8E4F0A3F022900539E0FF121662F58354
:100CC000C083C08290053AE0FED082D08312158D99
:100CD000E0FAA3E0FBC39DFEEA9C90053F12198059
:100CE0001216D3C083C08290053AE0D082D083121E
:100CF00015A8E0FEA3E0FDCCEECCC39BFEEC9A90E1
:100D0000053B121980121662F583C083C0829005DC
:100D10003AE0D082D0831215A8E0FEA3E0FFC3ED35
:100D20009FFFEC9E90053DF0A3EFF0A3E0FEA3E053
:100D3000FFC3EE64809480501C90053DE0FCA3E06E
:100D40009400EC64809480400C90053CE02FF0907F
:100D5000053BE03EF0121989FF1238FC900541E096
:100D6000FDC312179C4003021E6290053DE0FEA3E6
:100D7000E09DEE648098402F121989D39400EE64B0
:100D800080948040221216CEC083C08290053AE043
:100D9000FED082D0831215A8E0FCA3E0FDEF12166E
:100DA000A975F002EE803B900541E0FF90053D12F1
:100DB00019B87480F8EC648098502D90053BE0FEE3
:100DC000C3EE64809480502090053AE0FF9005398E
:100DD000E01215E4E0B4011090053912168C75F09C
:100DE00002EF1217C3021E87121989FF12172AC0B9
:100DF00083C08290053AE0FCD082D0831215A8EE21
:100E00008FF0122900ED1216E21217B6121978406F
:100E10002312172AC083C08290053AE0FCD082D00A
:100E2000831215A8121876ED1216AC1216F0E4759E
:100E3000F00180281218B6504E900539E0FF1217C5
:100E40002FC083C08290053AE0FED082D083121575
:100E5000A8E4F0A3F012159874FFF5F0122900022F
:100E60001E871216CEC083C08290053AE0FED08263
:100E7000D08312158DECF0A3EDF01215DA74011287
:100E8000170F1215F0E4F01215DAE0640170281261
:100E900017101215F0E00412170F1215F0E0D3949A
:100EA00005401490053AE0FF75F088EE1215E71240
:100EB000170E1215F0E4F022900527747EF0E4A3DB
:100EC000F0900018E0FE900528E0FFC39E4003026A
:100ED00020CF1236B1EF6009E4900287F090030D45
:100EE000F012173EE06003021F8D1219C62462F54E
:100EF00082E5F034021218C0EF12158112194EEE7D
:100F00009C4062900528E0900527F012174274017A
:100F1000F0900287E004F090030DF0900528E0FFC8
:100F200024821217227401F0EFB4010690030774B3
:100F300001F0900528E0FFB4020690028F7401F0E2
:100F4000EFB403069002A77401F01238A4900528AC
:100F5000E0FF1238B3900528E0FF1237999005287A
:100F6000E0FF1237D3900528E0FF12361FEF60082C
:100F7000900528121999E4F0900528E0FF1236DD5B
:100F8000EF70030220C6E49002880220C11219C645
:100F90002472F582E5F034021218C0EF12158112A6
:100FA000194EEE9C500302206C900528E090052716
:100FB000F0123651EF70030220C6E4FF900528E0DE
:100FC000FE1216A9121866EE1216651217BD0FEF63
:100FD000B409E912173EE4F0900002E0601C9000B2
:100FE00019E060169003C9E060101219D090001942
:100FF000F09003C9F07415121830900019E06012D7
:101000009003C9E0600C1218CB9003C9F07405126C
:101010001830900019E06012900002E0600C121885
:10102000CB900002F074111218309003C9E06012E6
:10103000900002E0600C1219DA900002F0741412B1
:101040001830900019E060071218CB041218309085
:101050000002E060081219D074101218309003C911
:10106000E0607A1219DA740412183022900528E030
:10107000FF121742E4F01238D1900528E0FF123732
:101080007C900528E0FF1238C2900528E0FF123757
:10109000B6900528E0FF24821217227401F0EFB405
:1010A000010690030A7401F0EFB4020690029074F6
:1010B00001F0EFB403069002A87401F0900288E0FA
:1010C00004F090030EF0900528E004F0021EC19099
:1010D0000527E0FF90028CE06F6002EFF022CBEF7B
:1010E000CBEB1216FFE0FEA3E0FF121630E0FCA3EC
:1010F000E0FDC39FEC9E50030221A8E42DFFEC34D9
:1011000004FE75F002EB121702E0FCA3E0FDC3EF52
:101110009DFFEE9C1215C9EEF0A3EFF075F002EB07
:10112000121702E0FEA3E0FF1216301219B8FFEC0E
:101130009E12157CEEF0A3EFF012157DE0FEA3E009
:10114000C39446EE9400500712157DE4F0A3F0120C
:10115000184BE493FE740193FF12157DE0FCA3E0AD
:10116000FDD39FEC9E402412184BE493FE74019330
:10117000FFC3ED9FFFEC9EC313FEEF13FF12184B4E
:101180007401932FFFE4933EFE801312157DE0FE61
:10119000A3E0FF7C007D631228990D1228AB121585
:1011A0007DEEF0A3EFF0803D121630E0FEA3E0FFED
:1011B00075F002EB1217021219B8EC9EC394047575
:1011C000F002EB5012121581E4F0A3F01215CA746C
:1011D00004F0A3E4F0800E121581E4F0A3F01215E0
:1011E000CAE4F0A3F012157DE0FEA3E0240012157E
:1011F000C5EEF0A3EFF0EB6401704412157D1217F9
:10120000B69496EE94004008121562EEF0A3EFF04B
:1012100012157D1217CC9004AAF0EDA3F01215CA96
:101220001217B694A6EE940440081215AEEEF0A381
:10123000EFF01215CA1217CC9004B5F0EDA3F0EB45
:101240006402704412157D1217B69496EE94004015
:1012500008121562EEF0A3EFF012157D1217CC9074
:1012600004ACF0EDA3F01215CA1217B694A6EE94D2
:101270000440081215AEEEF0A3EFF01215CA1217D3
:10128000CC9004B7F0EDA3F0EB6403704412157D2D
:101290001217B69496EE94004008121562EEF0A371
:1012A000EFF012157D1217CC9004AEF0EDA3F01202
:1012B00015CA1217B694A6EE940440081215AEEEA5
:1012C000F0A3EFF01215CA1217CC9004B9F0EDA3F9
:1012D000F022E4900528F0900528E0FFC39409402F
:1012E0000302249AEF902EC87014E0545FF0A374A8
:1012F0006AF0902EC3744AF0A37401F08012E044A7
:10130000F0F0A37428F0902EC37480F0A37407F05B
:10131000900528E09029B293902ECAF0E49005271A
:10132000F0900018E0FF900527E0FEC39F40030205
:10133000249174112E121970E0FF900529F0E4F544
:10134000E2EFC394085048902EC67415F0902EC555
:101350007401F0C083C0821219558002C333D8FCD7
:10136000D082D083F0902ECD7401F0C083C082E093
:10137000FFC8EEC8088002C333D8FCD082D083F007
:10138000902EC97421F0902EC074C1F002241790E1
:101390000529E024F8F0902EC57401F0C083C082C6
:1013A0001219558002C333D8FCD082D083F0902E1E
:1013B000CE7401F0C083C082E0FFC8EEC80880028E
:1013C000C333D8FCD082D083F0902ECB74F4F0A33A
:1013D0007448F0902EC6741EF0EEB4040A742812FD
:1013E00018807402F0A3F0EEB4050A12187E74801F
:1013F000F0A3740CF0EEB4060A12187E74A0F0A3E9
:10140000740BF0EEB4070A12187E7480F0A3740C0B
:10141000F0902EC074C2F0E4FF900000742EF0A390
:10142000E4F0900527E02411121970E0900529F0EE
:10143000E5E220E2050FEFB4C8DF53E2FB1218AA81
:10144000900529E0FD75F002A4FFAEF0900001E0E8
:101450002FF0900000E03EF0ED9029E793FF900020
:1014600000E475F00212291685F082F58312186DDA
:10147000EF1216D6C083C082900528E0D082D083B8
:101480001215A8ECF0A3EDF0900527E004F002237C
:1014900021900528E004F00222D79002897401F01F
:1014A00022E4900528F0900528E0FDC3940950231C
:1014B000E0FF75F0021216D6E0FAA3E0FB75F00229
:1014C000EF1216ACEAF0A3EBF0E4FF1219F91219CF
:1014D000BF80D3E4900527F0900018E0FF90052727
:1014E000E0C39F400302266612189EF583E4F0A332
:1014F000F0EF25E02431F582E43405F583E4F0A330
:10150000F0EF700302265DE4900528F0900528E0D6
:10151000FDC394095018900527E0FF121C65900543
:1015200027E0FFA3E0FD12266C1219BF80DEE490D5
:101530000528F0900528E0FFC3940940030225DA4E
:1015400074AE2F12185B6010900527E075F08812BA
:1015500017E3F583E0B401199005271216BEC08386
:10156000C082900528E0D082D0831215A8E4F0A3B1
:10157000F0900528E0FF605C900527E0FE1216BFA2
:10158000EF1216F1E0FCA3E0C39406EC64809480B3
:10159000501A75F088EE1216C2C083C082900528DA
:1015A000E0D082D0831215A8E4F0A3F0900527E0E4
:1015B000FF1216BFC083C082900528E0D082D0837E
:1015C0001215A8E0FCA3E0FDEF1218A0F583EC8D46
:1015D000F01229001219BF022533900527E0FF758C
:1015E000F088A42468F582E5F034001216F7ECF0D8
:1015F000A3EDF090052712189E1216F7E0FEA3E067
:101600002DFFEE3CFE900527E0FD75F0021216342A
:10161000EEF0A3EFF090054AE06042EDB4011275E0
:10162000F002121634E0FFA3E0900303CFF0A3EF23
:10163000F0EDB4021275F002121634E0FFA3E09050
:101640000305CFF0A3EFF0EDB4031275F00212160C
:1016500034E0FFA3E0900308CFF0A3EFF09005275C
:10166000E004F00224D8E4900289F022900539EFDA
:10167000F0A3EDF090053D7403F0ED60507408F0B8
:101680009000AEE06401600890053A121858703D71
:10169000900539E0FF1216A9C083C08290053AE098
:1016A000FED082D0831215A812165C1215A5ECF09C
:1016B000A3EDF09005391216BEC083C08290053AA2
:1016C000E0D082D0831215A8E4F0A3F0229005396F
:1016D000E0FF121662F583C083C08290053AE0FEF7
:1016E000D082D08312158D12194EFFEE9C90053BCF
:1016F000F0A3EFF0900539121999E0B40107E490D6
:10170000053BF0A3F090053BE0FEA3E0FF1238FCA0
:1017100090053DE0FDC312179C40030227A99005E8
:101720003BE0FEA3E0FF90053912164BC083C08258
:1017300090053AE0FCD082D0831215A812189312BB
:1017400016501216F01217B6121978402690053965
:1017500012164BC083C08290053AE0FCD082D08341
:101760001215A8121876ED1216651216EEE475F031
:1017700001802B1218B65029900539E0FF12164D42
:10178000C083C08290053AE0FED082D0831215A8B3
:10179000E4F0A3F01216611215A574FFF5F01229FA
:1017A0000012193312104E803DC390053BE0648057
:1017B000948050321219331235AD12193312347B22
:1017C000EF6023900539E0FF1216A9C083C0829014
:1017D000053AE0FED082D0831215A812165C1215CD
:1017E000A5ECF0A3EDF0900539E0FF121662F58349
:1017F000C083C08290053AE0FED082D08312158D5E
:10180000E0FEA3E09005391216B8C083C0829005AF
:101810003AE0D082D0831215A8EEF0A3EFF022BBFD
:10182000010689828A83E0225002E722BBFE02E39E
:101830002289828A83E49322BB010CE58229F58206
:10184000E5833AF583E0225006E92582F8E622BBDB
:10185000FE06E92582F8E222E58229F582E5833A4F
:10186000F583E49322BB010689828A83F022500229
:10187000F722BBFE01F322F8BB010DE58229F582B8
:10188000E5833AF583E8F0225006E92582C8F6227E
:10189000BBFE05E92582C8F222EF8DF0A4A8F0CFA7
:1018A0008CF0A428CE8DF0A42EFE22BC000BBE002E
:1018B00029EF8DF084FFADF022E4CCF875F008EF4D
:1018C0002FFFEE33FEEC33FCEE9DEC984005FCEE72
:1018D0009DFE0FD5F0E9E4CEFD22EDF8F5F0EE84A3
:1018E00020D21CFEADF075F008EF2FFFED33FD4068
:1018F00007985006D5F0F222C398FD0FD5F0EA22E2
:10190000C5F0F8A3E028F0C5F0F8E5821582700272
:101910001583E038F022A3F8E0C5F025F0F0E58269
:10192000158270021583E0C838F0E822EB9FF5F0CD
:10193000EA9E42F0E99D42F0E89C45F022ECF0A3DB
:10194000EDF0A3EEF0A3EFF022A8828583F0D08320
:10195000D082122960122960122960122960E47372
:10196000E493A3C583C5F0C583C8C582C8F0A3C5E9
:1019700083C5F0C583C8C582C822A42582F582E547
:10198000F03583F58322EF4E6012EF60010EEDBB60
:10199000010B89828A83F0A3DFFCDEFA2289F050F2
:1019A00007F709DFFCA9F022BBFEFCF309DFFCA965
:1019B000F0223F3F3F3F3F3F3F3F3F003200321763
:1019C0007002580004001E000A000A000A000A0003
:1019D0000F0064000A000A00000000000000000080
:1019E000000000010101010405060708090A0B0CAB
:1019F0000D0E0F00010203003200320032003200EF
:101A00003200320032003200320032003200320046
:101A10003200320032003200370037003700370022
:101A200037003700370037003700370037003700FE
:101A300037003700370037002D002D002D002D0016
:101A40002D002D002D002D002D002D002D002D002E
:101A50002D002D002D002D002D002D002D002D001E
:101A60002D002D002D002D002D002D002D002D000E
:101A70002D002D002D002D00500050005000500072
:101A800050005000500050005000500050005000D6
:101A900050005000500050005500550055005500B2
:101AA000550055005500550055005500550055008E
:101AB00055005500550055004B004B004B004B00A6
:101AC0004B004B004B004B004B004B004B004B00BE
:101AD0004B004B004B004B002D002D002D002D0026
:101AE0002D002D002D002D002D002D002D002D008E
:101AF0002D002D002D002D00FA00FA00FA00FA004A
:101B0000FA00FA00FA00FA00FA00FA00FA00FA0005
:101B1000FA00FA00FA00FA900292E024FE601B1428
:101B20006021147003022BFA24036003022C3D9001
:101B300002927402F0E490030BF09002927403F0AE
:101B4000022D541222D2900289E07003022BDB9006
:101B5000030BE004F0E4900526F0900018E0FF90FD
:101B60000526E0C39F5074E4FF900526E0FE1216A0
:101B7000D3121866EE1216651217BD9005261216BE
:101B80008C1217BF0FEFB409E0900526E0FF121585
:101B90007EE4F0A3F0EF1215CB7404F0A3E4F0EFB1
:101BA000B4010DE49004AAF0A3F09004B51219F268
:101BB000EFB4020DE49004ACF0A3F09004B7121956
:101BC000F2EFB4030DE49004AEF0A3F09004B91268
:101BD00019F2900526E004F0022B5A90030BE0C3A3
:101BE00094034059900017747EF0E490028AF090BC
:101BF000030BF09002927404F0221222D290028918
:101C0000E0603A1224A1E4900526F0900018E0FE6E
:101C1000900526E0FFC39E50161234CB1235639018
:101C20000526E0FF1220DE900526E004F080DC129D
:101C30003683121EB812107E900292EFF022C0E09E
:101C4000C083C082C0D0E8C0E0E9C0E0EAC0E0EBF9
:101C5000C0E0EFC0E0D2AFE5DB30E415E5DB30E11A
:101C600002802290049FE5DFF0900520E4F0022D31
:101C700039E5DB30E50590049A8044E5DB30E1305E
:101C8000E5DB30E01190052312317612319D1228E8
:101C900038F5DF022D39900522E064116003022D32
:101CA00039308A03022D39D28A9004B0F0022D39DE
:101CB000900520E0700F900522E5DFF0900520747C
:101CC00001F0022D39900522E090308593FFB4FF9A
:101CD0000E90049FE5DFF0900522E004F08054EFC1
:101CE000640F702E900523123176900522E0FF12CA
:101CF00031CE540F122865900523123176900522BB
:101D0000E0FF04F01231CEFFE5DF54F04F122865FA
:101D1000802190052312317612319DE5DF1228775C
:101D2000900522E0B41E0C900497E5DFF090049E2D
:101D30007401F090049DE004F075DBFFD0E0FFD06B
:101D4000E0FBD0E0FAD0E0F9D0E0F8D0D0D082D0FB
:101D500083D0E0327E027F757D007B017A00791AA4
:101D6000122986122F76E4FE12193C4003022DFC44
:101D7000E4FC75F088EE1216501216F0121876EE8A
:101D800012178DF583E5822C1215F5E4F0EE12168C
:101D9000E2121876EEA424B7F582E5F03400F5835C
:101DA000E5822C1215F512170EF583E5822C12151B
:101DB000F5E4F0CFEECFCDECCD12104E1210660C44
:101DC000EC640970AD1217DFF583E4F0CFEECF12AB
:101DD00038A41238C21238B31238D1747A2E1217BE
:101DE00044E412171EE4F0900286747EF0E4A3F03F
:101DF000A3F090030DF0A3F00E022D6890028C74F6
:101E00007EF0900017F0E490028BF022758A505318
:101E10008AEF9005457411F09005447422F0900506
:101E2000467433F075994F759AA0E4FFFEC2962070
:101E3000970BD2963097069005457487F00FBF0038
:101E4000010EEF640A4E70E5E4FEFFC29620950B8A
:101E5000D2963095069005457487F00FBF00010EAD
:101E6000EF640A4E70E57590FF75991F759AE00052
:101E70000000000000000000E4FEFF3095063096F0
:101E8000032097069005447487F00FBF00010EEF02
:101E9000640A4E70E6E4F5AD75AEF075AF09F5ACC9
:101EA0007589FF75913E75990FF59675931EF59B93
:101EB000F595F592F59A75800ED28A90054A04F050
:101EC00022E4900527F0FF900526F0EF14601E1421
:101ED000603514604C14605B2404707490052874A1
:101EE00001F0A3742FF0A37458F0022F4A1231733B
:101EF000900001122838FED3941F40031231BD1206
:101F0000281F6E704B8043123173900002122838E4
:101F1000FED3940640031231BD12281F6E7031802B
:101F200029123173900003122838FE12281F6E7098
:101F30001F8017123173900004122838FE648B60E2
:101F4000031231BD12281F6E7006900526E004F0C2
:101F50000FEF64056003022ECB900526E0B4050464
:101F6000A37401F0900527E0FD60079004B4E054ED
:101F70007FF0CFEDCF22E4FF900018E0FEEFC39E8C
:101F8000505FEF25E02497F582E4342A1217582495
:101F90006AF582E5F034021218882477F582E43479
:101FA0002A1217582462F582E5F0340212188824A8
:101FB000B7F582E4342A1217582472F582E5F0341A
:101FC0000212188824D7F582E4342A121758243ACA
:101FD000F582E5F03400F583ECF0A3EDF00F022F6D
:101FE00078900264A3E09004A4F09004BCE0B410E4
:101FF0000AE49004BBF0700312337490049EE06016
:102000000312375A220232ADE493A3F8E493A340BB
:1020100003F68001F208DFF48029E493A3F8540763
:10202000240CC8C333C4540F4420C8834004F4565E
:10203000800146F6DFE4800B010204081020408096
:102040009031E1E47E019360BCA3FF543F30E50989
:10205000541FFEE493A360010ECF54C025E060A896
:1020600040B8E493A3FAE493A3F8E493A3C8C58229
:10207000C8CAC583CAF0A3C8C582C8CAC583CADF97
:10208000E9DEE780BE0F00FF00000000000000FF57
:10209000FFFFFFFFFFFFFF00FFFFFFFFFFFFFFFF4F
:1020A0000000000000000000000000000000000030
:1020B0000000000000000000000000000000000020
:1020C0000000000000000000000000000000000010
:1020D0000000000000000000000000000000000000
:1020E00000000000000000000000000000000000F0
:1020F00000000000000000000000000000000000E0
:1021000000000000009005267410F0A3E4F0A37412
:102110003FF0A374FFF0E4FDFCF99004A1E064AA91
:10212000705074AAF0758A10538AEF000000900571
:1021300026E0FEA3E01231C4FF69F90DBD00010CD9
:10214000BC2FEBBDFFE8900526E0FEA3E012318F27
:10215000E99FF99005281231B26970089004A174C2
:1021600004F08005E49004A1F0758A50538AEF00D2
:10217000000022900528E0FBA3E0FAA3E0F922E0AA
:10218000FEA3E0F5F2EEF5F3E4F5F475EB0B222493
:10219000FEF582EE342FF583E493FFC322900522EF
:1021A000E0FF04F08F8275830022743FF0A374FE79
:1021B000F022E0FEA3E0F5828E83E49322900527CF
:1021C0007401F0222DF582EE3CF583E49322E92F91
:1021D000F9E43AFA02281F75EA8175EB0275EA897B
:1021E000224105420041030B0041029100410310CE
:1021F00000410019004103C9004100020041030AE7
:1022000000410290004102A8004103070041028FF3
:10221000004102A70041049600410520004105222B
:1022200000420498000041049A0041049D004104CA
:102230009B004104970041049E0041049C0141051C
:10224000210041049F1000902EC0E4F0902ECB742A
:10225000D7F0902F58E0540F24F0902EC8F0902E15
:10226000CC7408F0902EC97429F0A3743FF0902E1E
:102270004074811217AD1217AD041217AD14F0A3FC
:102280007402F0A3F0A37482F0902EC67414F09040
:102290002EC17490F0A37403F0A37480F0A37407AC
:1022A000F043E310123829900018EFF02275200156
:1022B00053A87F122E0C12373343A8801238E01235
:1022C00038921237F0EF24E0601024A0600E2470E2
:1022D0007016C283C282C281800E8006900542744D
:1022E00001F0D283D282D281122F7612310590056D
:1022F00042E0FF6017B4010C12385F7587030000DD
:10230000001238EF900542E0B4020100122B178052
:10231000B1C0E0C083C082C0D0EFC0E0900542E011
:1023200024FE601514601A2402703D900542740268
:10233000F0758DA0758E0A802F9005427401F08093
:102340002790030CE0602190030FE0FFC3940F502F
:1023500005E004F08012EFB40F0E90030FE4F0904C
:10236000030CF090054204F0D0E0FFD0D0D082D032
:1023700083D0E0327F007E10E4FDFC900527F0A3BF
:10238000F0758A10538AEF000000EF1231C4FB9001
:102390000528E02BF0900527E03400F00DBD00018A
:1023A0000CED7003EC643070E1EF12318F90052872
:1023B000E09FF0900527E09400F0E0FCA3E0FDEC46
:1023C0009004BBF0EDA3F0758A50538AEF00000033
:1023D00022C0E0C0F0C083C082C0D0E8C0E0ECC042
:1023E000E0EDC0E0EEC0E0EFC0E0D2AF900291E0DF
:1023F00004F0C3940A4017E4F012160E2401FFE41F
:102400003EFEE43DFDE43CFC9003DE12293DD0E0BD
:10241000FFD0E0FED0E0FDD0E0FCD0E0F8D0D0D09E
:1024200082D083D0F0D0E03290053FEDF090053EB1
:10243000EFF0A3E0FE121774F583E5822E1215F576
:10244000E0603590053EE01218EDC083C082900533
:102450003FE0D082D0831215FD1218239029CD12AF
:10246000167E401490053FE0FF90053EE012177580
:102470001215F0E4F07F01227F002290053FEDF07D
:1024800090053EEFF0A3E0FE121767F583E5822E7C
:102490001215F5E0603290053EE01218DFC083C0EF
:1024A0008290053FE0D082D0831215FD9029C7129B
:1024B0001672401490053FE0FF90053EE012176849
:1024C0001215F0E4F07F01227F0022CBEFCBEB640A
:1024D00001701312161CE09004F0F0121630A3E005
:1024E0009004F1121991EB6402701312161CE09023
:1024F00004F4F0121630A3E09004F5121991EB6485
:1025000003701312161CE09004F8F0121630A3E0CA
:102510009004F9121991227E007F807D007B017A60
:102520000479A0122986E49004B0F09004A1740408
:10253000F0E4A3F09004B374ABF0A374ADF0900595
:1025400045E09004A6F0900544E09004A7F09005C3
:1025500046E09004A8F0122EC190049CE0600312A3
:1025600038442290054AE06043C3900021E094146F
:10257000900020E0940550031219EBC390001DE079
:10258000941490001CE0940550031219EBC39000C2
:102590001FE0941490001EE0940550031219EBE420
:1025A00090054AF0900546E09004A8F02290053E80
:1025B0001217D5503090053EE0FFEB121768121548
:1025C000F0E07021EB1217681215F07401F012168A
:1025D0000EFFEB1218DFC083C08290053EE0D08270
:1025E000D0831219AF2290053E1217D550309005B6
:1025F0003EE0FFEB1217751215F0E07021EB121799
:10260000751215F07401F012160EFFEB1218EDC0E2
:1026100083C08290053EE0D082D0831219AF229011
:102620000529EFF0E0FF24931217FAE06020EF1283
:1026300018FB1216031218239029BD12167E400EA5
:10264000900529E024931217FAE4F07F01227F001D
:1026500022900529EFF0E0FF24CA12181BE0602049
:10266000EF1219251216031218239029C112167E93
:10267000400E900529E024CA12181BE4F07F0122C5
:102680007F0022E4FFFE900018E0FDEEC39D501B8A
:10269000EF12157E1218C2EE121581E0FAA3E0D3F4
:1026A0009DEA9C4003CFEECF0E80DB90028DEFF0D1
:1026B00022900529EFF0E0FF2403121805E0601ACC
:1026C000EF12190912160312166F400E900529E039
:1026D0002403121805E4F07F01227F0022900529CF
:1026E000EFF0E0FF24B7121810E0601AEF1219178C
:1026F00012160312166F400E900529E024B7121827
:1027000010E4F07F01227F002290052A1231AA12E4
:10271000390C1231D7E4F58375821E12390F75EA30
:102720009175ED9C90052A12317F00E5EC30E7FBB6
:102730000239089005237401F0A37404F0A374A077
:10274000F0E4F5DA75DA4043DA2075D74075DA58E7
:1027500043A90875B80875F808229005271231AA10
:10276000E4A3F090049EE06008E4F0123709121030
:10277000209005271231B29004BEF0221217D750D4
:10278000171217F7E070111217F77401F012160EF6
:10279000FFEB1218FB12293D221217D750171218FF
:1027A00002E070111218027401F012160EFFEB1203
:1027B000190912293D221217D7501712180DE0706F
:1027C0001112180D7401F012160EFFEB12191712E8
:1027D000293D221217D75017121818E0701112183D
:1027E000187401F012160EFFEB12192512293D2262
:1027F000E4FD90049AE060119004A0E0FE54F0FD26
:10280000EE540FF0E490049AF0CFEDCF2274AA7545
:1028100083F5758255A574557583FA7582AAA574DA
:10282000A57583F5758255A5221218AAFFFEEE90B4
:1028300029D793600974112F121970EEF00F0EEE64
:10284000B410EB227FFE7E3FE4900526F090049CBE
:10285000E0600BE4F08F828E83939004BEF02275CB
:102860008B03758DA0758E15902ECB1218AD438AF3
:1028700080F586F58F43AA08229003DE12294900CD
:102880000000007E007F0E7D007B017A0279A902A4
:10289000298675B28E75B6F9E4F5B743B20143AA3D
:1028A00001023879EFD39404500874932F1217FA69
:1028B000E4F022EFD39404500874032F121805E4B7
:1028C000F022EFD39404500874B72F121810E4F0DC
:1028D00022EFD39404500874CA2F12181BE4F0227C
:1028E0001232479002927401F0122D540235179063
:1028F0002ECB74D7F0538A7F75860122EE30E7071E
:10290000C3E49FFFE49EFE2275EB302202380DA542
:102910002200000000000000000000000000000095
:1029200000000000000000000000000000000000A7
:102930000000000000000000000000000000000097
:102940000000000000000000000000000000000087
:102950000000000000000000000000000000000077
:102FF000000000000000000000000000000000963B
:00000001FF
