:100000005446495300010000700C0200CCC65580D4
:1000100009580102180912124C594B4109580100A4
:10002000180817114C594B410958010218091212AE
:100030004C593032040000000000000000000000B5
:1000400054464353002000000CDE01000000000075
:1000500000000210012100002521000035090100E7
:10006000292100002B2100002D2100003D2100004E
:100070003D2100003D2100003D2100002F21000016
:10008000312100003D2100003321000061560000B5
:1000900047570000372100003D21000059B10010F2
:1000A00037210000353B00003B3B00003D210000B4
:1000B0003D21000097520000E1490000413B000053
:1000C00009500000372100003D2100003D210000C3
:1000D0000000000000000000000000000000000020
:1000E0000000000000000000000000000000000010
:1000F0000000000000000000000000000000000000
:1001000000000000000000000000000000000000EF
:1001100000000000000000000000000000000000DF
:1001200000000000000000000000000000000000CF
:1001300000000000000000000000000000000000BF
:1001400000000000000000000000000000000000AF
:1001500000F003F800F020F8FEE70D480168890878
:100160008900002001C101C101C101C17047000027
:10017000C0E40010FEE7FEE7FEE7FEE7FEE7FEE76D
:10018000FEE7FEE7FEE703480047FEE7FEE7000064
:10019000202100003D21000000F002F800F068F886
:1001A0000AA090E8000C82448344AAF10107DA45D2
:1001B00001D100F05DF8AFF2090EBAE80F0013F0BC
:1001C000010F18BFFB1A43F00103184758F600004F
:1001D000A8F600000A444FF0000C10F8013B13F0A1
:1001E000070408BF10F8014B1D1108BF10F8015B90
:1001F000641E05D010F8016B641E01F8016BF9D183
:1002000013F0080F1EBF10F8014BAD1C0C1B09D1D9
:100210006D1E58BF01F801CBFAD505E014F8016B4B
:1002200001F8016B6D1EF9D59142D6D370470000DD
:10023000103A24BF78C878C1FAD8520724BF30C812
:1002400030C144BF04680C607047000000230024E4
:1002500000250026103A28BF78C1FBD8520728BFD6
:1002600030C148BF0B6070471FB51FBD10B510BD32
:10027000DFF80CD0FFF7F8FF04F096FC0EF074FBEB
:100280000000021003B4FFF7F1FF03BC0EF074FB93
:1002900008B5002103200B460A4600910DF08AFEA6
:1002A00008BD38B5F84D0024AC80EC802C810DF0F1
:1002B0005EFE6861FF20A870F44823462246046071
:1002C000446004720120E8700320214600940DF080
:1002D00071FE012038BD38B5EB4D0228AC782246BE
:1002E0000DD0052810D0A24208BF38BD002003461B
:1002F0000246214600900DF05DFEAC7038BD02292B
:1003000014BF01240224EEE7022914BF64246524EB
:10031000E9E738B513460A464FF0010C00240146C0
:10032000604600940DF046FE38BDD74901200870A4
:100330007047D54800787047D3490020087070474F
:100340002DE9F04104460127002503F00700CE4EB9
:100350008846012804BF0020308146D0022844D1BD
:10036000308904280BD2002818BF306902D10DF063
:1003700052FE306110F8011B217030612EE006281A
:1003800008D20DF04AFE3189C1F10501C900C8400B
:10039000207023E0082808D20DF043FE3189C1F116
:1003A0000701C900C840207018E00C2808D20DF0E1
:1003B000DEFD3189C1F10B01C900C84020700DE09C
:1003C0000E2808D20DF0D5FD3189C1F10D01C9000B
:1003D000C840207002E0FF20207000273089401CB8
:1003E00080B230810E2828BF012588F80050384699
:1003F000BDE8F08130B403F007000024DFF888C2C4
:1004000001280BD06046BCF808308088022B0CD243
:10041000120242EA1020ACF8040010E0ACF80440EC
:10042000ACF80640ACF808400CE01844851EB5F561
:10043000806F04DADCF81450284400F8022C581CB1
:10044000ACF808000C7030BC00207047F0B40746D0
:10045000002003F007048C4D0646012C04BF2E81BA
:10046000EE6025D0DFF820C2022CBCF806C003D015
:1004700013F0070F0DD01BE02A890CEB0203B3F534
:10048000806F15D26869C05C3870501C28810120CB
:100490000EE0120242EA1C22EA80EB68012B05D131
:1004A000B2F5806F24BF40F2FF32EA805A1CEA6046
:1004B0000E70F0BC704738B503F0070000240D46FD
:1004C00001280AD1704821460B4604818480C480EB
:1004D00002200A4600940DF06DFD2C70002038BDFE
:1004E00030B50C006AA183B009684FF00002029198
:1004F00008BF03250AD0217802AB5D5C002D18BF30
:10050000022D41D0012D7ED0032D0DD10F21017080
:100510000321417042808280C280028142818281B7
:10052000817B21F001018173002D1EBF012D03B0DD
:1005300030BD04F047FB05281CBF03B030BD09F0F7
:100540009CFA042804BF03B030BD002D0CBFC020AE
:10055000C1208DF8000060788DF8010060880123CB
:10056000000A8DF80200A0788DF80300A08806220A
:10057000000A8DF8040020798DF8050069460720EF
:100580000CF03EF803B030BD617800EB011202F8C8
:10059000101C617800EB011101F80F5C6278618832
:1005A00000EB021222F80E1C6278A18800EB021206
:1005B00022F80C1C6278A17900EB021222F80A1CC6
:1005C0006278217A00EB021222F8081C6278617AC4
:1005D00000EB021222F8061C6278217B00EB02126B
:1005E00022F8041CE1790529617800EB011010F86C
:1005F000021C0EBF41F0010121F0010100F8021CB4
:1006000092D132E0FFE7617800EB011303F8101C90
:100610006378012100EB031303F80F1C63786188F2
:1006200000EB031323F80E1C6378A18800EB03137F
:1006300023F80C1C617800EB011121F80A2C617879
:1006400000EB011121F8082C617800EB011121F871
:10065000062C617800EB011121F8042C617800EB85
:10066000011010F8021C21F0010100F8021C5BE7E8
:100670000549002048707047034840787047024998
:100680000120487070470000000401103C07011071
:1006900003000201204A11547047204800B5406908
:1006A00083B04FF00001407810F0020F0AD00091A3
:1006B0008DF8041001230522694600200BF0D7FFB6
:1006C00003B000BD10F0040F12D001208DF800001F
:1006D0008DF801108DF802108DF803108DF80410BC
:1006E00003460522694600200BF0C1FF03B000BDA0
:1006F00003B001230022632107205DF804EB0BF017
:100700004FBF70470549002818BF0120C8707047C7
:100710000248C078704700003C0701100004011037
:100720007047FE48D0F8C00000F00100704770B577
:10073000FA4C05000AD001F0A6F938B9D4F8C00087
:1007400010F0010F1CBF0020A06005D10120A060A7
:10075000002D08BF002000D001202062002D18BF0E
:1007600070BDD4F8D410D4F8D00011F0010F18BF28
:1007700011F0600F24D0D4F8B02222F48032C4F8F3
:10078000B02241F0610242F0FF22C4F8D42040F0D0
:10079000610242F0FF22C4F8D02021F06102C4F8C7
:1007A000D42020F06102C4F8D020D4F8B02242F462
:1007B0008032C4F8B022C4F8D410C4F8D00070BDA0
:1007C00010F0010F18BF10F0600FD4D170BDD348E6
:1007D000006A002818BF01207047C00000F1804067
:1007E00000F5A04041637047C00000F1804000F573
:1007F000A040006B00F4807070471021C00000F131
:10080000804000F5A04041637047C449D1F84021C1
:1008100060F30D22C1F840217047C048D0F8400174
:10082000C0F3052070470207520DC0F3031002EB1E
:10083000401000F1804000F5A0400029D0F84011A0
:1008400014BF41F0010121F00101C0F840117047CF
:100850000107490DC0F3031001EB401000F1804087
:1008600000F5A040D0F8400100F001007047AB490E
:1008700000230B6202680A6042684A6082688A60EC
:10088000C268CA60426A0A64826A4A6402698A610A
:100890004269CA61426B0A66826B0A67C26B4A6729
:1008A000026C8A67426CC1F88020826CC1F8842097
:1008B000C26CC1F88820026DC1F88C20026EC1F8AC
:1008C0009C20426EC1F8A020826EC1F8A420C26EA6
:1008D000C1F8A820C26FC1F8C020D0F88020C1F8AC
:1008E000C420D0F88420C1F8C820D0F88820C1F8EE
:1008F000CC20D0F88C20C1F8D020D0F89C20C1F8B2
:10090000E020D0F8A420C1F8F020D0F8A820C1F849
:10091000F420D0F8AC20C1F8F820D0F8B020C1F80D
:10092000FC2021224A63CA63C2694A62C26A8A649D
:10093000026BCA64026FC1F8AC20D0F89020C1F8F5
:10094000D420D0F89420C1F8D820D0F8A020C1F845
:10095000E420426FC1F8B020826FC1F8B420D0F813
:10096000F821C1F88022D0F8FC21C1F88422D0F807
:100970000022C1F88822D0F80422C1F88C22D0F8D5
:100980000822C1F89022D0F80C22C1F89422D0F8A5
:100990001022C1F89822D0F81422C1F89C22D0F875
:1009A000182222F48032C1F8B022D0F8B420C1F865
:1009B0000021D0F8B820C1F80421D0F8BC20C1F83B
:1009C0000821D0F8C020C1F80C21D0F8C420C1F80B
:1009D0001021D0F8C820C1F81421D0F8CC20C1F8DB
:1009E0001821D0F8D020C1F81C21D0F8D420C1F8AB
:1009F0002021D0F8D820C1F82421D0F8DC20C1F87B
:100A00003021D0F8E020C1F84021D0F8E420C1F82E
:100A10004421D0F8E820C1F84821D0F8F020C1F8EE
:100A20005021D0F8F420C1F85421D0F8F820C1F8B2
:100A30005821D0F8FC20C1F85C21D0F8EC20C1F896
:100A40004C21D0F82021C1F88021D0F82421C1F810
:100A50008421D0F82821C1F88821D0F82C21C1F8B0
:100A60008C21D0F83021C1F89021D0F83421C1F880
:100A70009421D0F83821C1F89821D0F83C21C1F850
:100A80009C21D0F84021C1F8A021D0F84421C1F820
:100A9000A421D0F84821C1F8B021D0F84C21C1F8E8
:100AA000C021D0F85021C1F8C421D0F85421C1F898
:100AB000C821D0F85C21C1F8D021D0F86021C1F85C
:100AC000D421D0F86421C1F8D821D0F86821C1F828
:100AD000DC21D0F86C21C1F8E021D0F87021C1F8F8
:100AE000E421D0F87421C1F8E821D0F87C21C1F8C4
:100AF000F021D0F88021C1F8F421D0F88421C1F888
:100B0000F821D0F88821C1F8FC21D0F85821C1F88B
:100B1000CC21D0F87821C1F8EC2101E00050004050
:100B2000FE4A126832F0FF0C05D1D1F890C062F392
:100B3000030CC1F890C0FA4A5370C36F13F0010F51
:100B40001CBF01235370D1F8C03023F00103C1F85A
:100B5000C030D0F88C3013F0010F03D0537843F03D
:100B600002035370D1F8D03023F00103C1F8D03024
:100B7000D0F8900010F0010F03D0507840F004003E
:100B80005070D1F8D40020F00100C1F8D4007047B3
:100B9000E34800787047E24880787047E049C870C1
:100BA0007047DF48C0787047DE490028D1F8C000A0
:100BB00014BF40F0010020F00100C1F8C0007047F0
:100BC000D84951F8C42F60F309020A607047D5482C
:100BD000D0F8C400C0F309007047D149486070479D
:100BE000D048C06870472DE9F047DFF834930546D8
:100BF00015F4003F99F8010099F8031000EA010488
:100C000018BF24F0010415F4802F18BF24F002044B
:100C100015F4002F18BF24F0040415F4801F18BF2A
:100C200024F00804DFF8FC82D8F8B00220F4803009
:100C3000C8F8B00214F00F0F59D0D9F80460D8F8F2
:100C4000B802002740F00100C8F8B802D8F8B8028E
:100C500020F00100C8F8B802D8F8B00240F48030A3
:100C6000C8F8B0024FF0630A0DE002F08AFD50466A
:100C7000D8F8B81211F0010F01D0012703E0011ECE
:100C8000A0F10100F4DC301EA6F1010601DD002F09
:100C9000EBD067B3D8F8C00014F0010F0CBF20F000
:100CA000010040F00100C8F8C000D8F8D00014F0EE
:100CB000020F14BF40F0010020F00100C8F8D0007E
:100CC000D8F8D40014F0040F14BF40F0010020F055
:100CD0000100C8F8D40089F80240012089F800001A
:100CE000D8F8B00240F48030C8F8B00233E0D8F849
:100CF000C00020F00100C8F8C000D8F8D00020F0F3
:100D00000100C8F8D000D8F8D40020F00100C8F8DD
:100D1000D400002089F80200ACB1022089F800005C
:100D2000D8F8B00240F48030C8F8B002D8F8B80261
:100D300040F00100C8F8B802D8F8B80220F001006D
:100D4000C8F8B80207E0D8F8B01221F48031C8F82A
:100D5000B01289F80000D8F8400115F0020F20F019
:100D60000D0018BF40F0010015F0080F18BF40F04B
:100D7000040015F0040F18BF40F00800C8F8400147
:100D800015F0010F25D001F06BF8044601F06BF867
:100D90000146D8F80C0000280EBF20460846214620
:100DA0000028D8F8C00114BF40F0010020F0010075
:100DB000C8F8C00100291CBFD8F8E00140F00100CC
:100DC00003D1D8F8E00120F00100C8F8E001BDE847
:100DD000F087D8F8C00120F00100C8F8C001F0E7A2
:100DE0002DE9F0030246002011074C0DC2F3031158
:100DF00004EB411101F1804101F5A041D1F840110E
:100E000011F0010F11D142F01001C1F3031104EBF5
:100E1000411101F1804101F5A041D1F8401111F0DB
:100E2000010F04BFBDE8F0037047D60106F1804111
:100E300001F5A041D1F81C31C3F30809394BDB6936
:100E4000D1F8001103F008071FFA81F8002142EAE7
:100E50000113C3F3031304EB431303F1804303F5BE
:100E6000A043D3F8403113F0010F18D006EB411323
:100E700003F1804303F5A043D3F844C1CCF3080544
:100E800017F1000C1CBFD3F844C1CCF3023CD3F8DB
:100E9000403105FA0CFCC3F3054360441844491C77
:100EA0000229D4D300FB08F0C9EB0911BDE8F00317
:100EB00000EB4100704710B50120FFF791FF044699
:100EC0000220FFF78DFF044400F0E9FB20444FF4BB
:100ED0007A71484347F23051B0FBF1F010BD2DE973
:100EE000F041104E0546306810F01F0408BF012481
:100EF0000120FFF775FF07460220FFF771FF074447
:100F000000F0CDFB3918084F002D18BF002956D02E
:100F1000D6F8C000002210F0010F07E0E0FE030049
:100F2000180401100050004000389C1C34D0782078
:100F3000B0EB151F08D9D6F8CC0020F00F0040F018
:100F40000100C6F8CC002CE0D6F8C400FD4BC0F37D
:100F500009006043A0EB001003EB4003FA48A0FB3C
:100F600005C04FEA502CB3FBF1F0102828BF0F202A
:100F7000844598BF6046002808BF012005D001289D
:100F800084BF00FB1132B2FBF0F2D6F8CC3060F334
:100F90000303C6F8CC3004E0B7FBF5F0884288BF05
:100FA000421AC4EB04104000B2FBF0F0B0F5005F51
:100FB00028BF41F6FF70726860F30C0272607068BF
:100FC000C0F30C006043C0EB001001EB4000B7FB26
:100FD000F0F0BDE8F081DD48D0F8C01011F0010F4D
:100FE00007D0D0F8CC0000F00F00C0EB001080015B
:100FF000704770B50168406801F01F05C0F30C062A
:101000000120FFF7EDFE04460220FFF7E9FE04444D
:1010100000F045FB06FB05F1C1EB011104EB4101BA
:101020000844CB49B1FBF0F070BDC848D0F8CC0003
:1010300000F00F007047C5494A684B68C2F30C02C4
:1010400060F30C034B6010467047C0484068C0F323
:101050000C007047C00100F1804000F5A040D0F8BE
:1010600000014EF6602180B2B1FBF0F0401C400858
:10107000704730B44EF6602331B1B3FBF1F1491C37
:101080004A08B2F5804F01D343F6FF72B3FBF2F189
:10109000491C4D08C101530801F1804101F5A041EF
:1010A000002807BF981FA3F10C0CD1F8040180B2EF
:1010B00018BFA2F1060C2CF0010CD1F8004162F32C
:1010C0000F04C1F80041D1F8002163F31F42C1F8B9
:1010D0000021D1F8042160F30F02C1F80421D1F8F6
:1010E00010016CF30F00C1F81001284630BC7047A6
:1010F000C00100F1804000F5A040D0F80001000CD4
:101100007047C20102F1804202F5A042D2F80031DC
:1011100061F31F43C2F80031002818BF70478A1FCF
:10112000901F20F001018948D0F8043162F30F03C9
:10113000C0F80431D0F8102161F30F02C0F810217B
:1011400070470107490DC0F3031001EB401000F197
:10115000804000F5A040D0F84401C0F3080070477B
:101160000207520DC0F303107A4B02EB401000F15E
:10117000804000F5A0409B58D0F84421CB1A61F381
:101180000802C0F84421D0F844119B1E63F31841B3
:10119000C0F8441170476D49C9696F4A11F0100FCA
:1011A0004FEA00714FEA5151C0F3031001EB4010B8
:1011B00000F1804000F5A0405258D0F84401D2B26E
:1011C000C0F3080008BF0022801A0004000C08BF0A
:1011D000012070470309DB0103EB810101F140515C
:1011E00001F5C0410007C00E0B6802FA00F0184379
:1011F000086070470209D20102EB810101F1405100
:1012000001F5C04100070968C00E21FA00F000F0A6
:10121000030070470207520DC0F3031002EB4010A9
:1012200000F1804000F5A040C0F84C117047010764
:10123000490DC0F3031001EB401000F1804000F5B0
:10124000A040D0F84C017047404A0021D26912F00A
:10125000080F0DD00107490DC0F3031001EB40103A
:1012600000F1804000F5A040D0F84401C0F3023105
:1012700008467047354AD36943F00803D361020733
:10128000520DC0F3031002EB401000F1804000F556
:10129000A040D0F8442161F30E32C0F844217047D9
:1012A0002A4A0021D26912F0080F0DD00107490D1A
:1012B000C0F3031001EB401000F1804000F5A040A6
:1012C000D0F84801C0F30241084670470207520DAA
:1012D000C0F3031002EB401000F1804000F5A04085
:1012E000D0F8482161F31242C0F848217047042920
:1012F00088BF704710B40023144CE26912F0080F45
:101300004FEA00724FEA5252C0F3031002EB401052
:1013100000EB04021CBFD2F84401C0F302330020EA
:10132000D4F81CC01CF0080F1CBFD2F84801C0F351
:101330000240C91A0844042810DD081A011D0420BF
:1013400010E000001B810700898888880050004059
:1013500000389C1C14510040205100400028BCBFA4
:10136000014400201944E36943F00803E361D2F823
:10137000443161F30E33C2F84431D2F8481160F3BE
:101380001241C2F8481110BC7047DF490028886933
:1013900014BF40F0080020F0080088617047DA4868
:1013A0008069C0F3C00070470207520DC0F30310FC
:1013B00002EB401000F1804000F5A040D0F8482139
:1013C00061F30F02C0F8482170470107490DC0F3CF
:1013D000031001EB401000F1804000F5A040D0F870
:1013E000480180B27047C84AD2F8CC10022903D114
:1013F00010F0010F18BF7047D2F8400110F0010F34
:1014000008BF7047D2F84801D2F844110304C1F371
:1014100002311B0C14BF002970474FF6FF71484082
:10142000C2F848017047B84A0021D26912F0080F8B
:101430000DD00107490DC0F3031001EB401000F17E
:10144000804000F5A040D0F84801C0F300510846A4
:1014500070470120704710B4022ADDF804C026BF8F
:10146000921E52080022022B26BF9B1E5B080023FF
:10147000A64CA4FB0C4C4FEA1C144FEA007C4FEA2C
:101480005C5CC0F303100CEB401000F1804000F5F1
:10149000A040D0F854C161F31B6C62F3134C63F3AA
:1014A0000B2C64F3070CC0F854C110BC704770B427
:1014B0000407640DC0F3031004EB401000F18040FA
:1014C00000F5A040DDF80CC0D0F854010029C0F3AD
:1014D0000366C0F30345C0F30324C0B218BF0E6017
:1014E00012B16900891C116013B16100891C196077
:1014F000BCF1000F04BF70BC704700EB800080009F
:10150000CCF8000070BC704770B491B000224FF46A
:1015100080456C10EC4601E0082A05D2531C03EB11
:101520008303B5FBF3F304E0D31F03EB8303B4FBA6
:10153000F3F35B1A48BF5B424CF82230521C102A6E
:10154000EAD30026009B01215CF821209A42BCBF0F
:1015500013460E46491C1029F6D30107490DC0F366
:10156000031001EB401000F1804101F5A041D1F8DA
:101570005801D1F8582100F00F0066F30302C1F8BA
:101580005821082807D2401C00EB8000B5FBF0F082
:1015900011B070BC7047C01F00EB8000B4FBF0F0CE
:1015A00011B070BC70470107490DC0F3031001EB87
:1015B000401000F1804000F5A040D0F8580100F044
:1015C0000F00082834BF401CC01F00EB800034BF50
:1015D0004FF480414FF40051B1FBF0F0704710F030
:1015E0000F0F08BF70470007400D00F1804000F565
:1015F000A0400029D0F824110CBF21F4803141F41F
:101600008031C0F824117047002110F00F0F0BD06B
:101610000007400D00F1804000F5A040D0F8240103
:1016200010F4803F18BF012108467047364AD2F8AF
:10163000AC0011F0010FD2F8AC10C0F3C00014BF21
:1016400041F0080121F00801C2F8AC1070472E4AA1
:101650005067916770472C490028D1F8AC0014BF3F
:1016600040F0020020F00200C1F8AC0070472649AB
:101670000028D1F8AC0014BF40F0010020F00100B8
:10168000C1F8AC0070472048D0F8DC0070471E4914
:10169000C1F8E00070471C48D0F89800704770B45B
:1016A000194E0020D6F8401111F0010F04BF70BC94
:1016B000704711F0040FD6F81C3101F00805D6F878
:1016C00000C1C3F308031FFA8CF4D6F844C1CCF36D
:1016D000080C18BFC1F30740F269C1F3052112F0ED
:1016E00008021CBFD6F84421C2F30232002D18BFF5
:1016F000491C0CFA02F201FB0200604370BCC3EB10
:10170000031100EB4100704700500040CDCCCCCC21
:10171000FFF75DB810B5FFF75AF8012818BF10BDE4
:101720000020FFF704F821210020FFF756F82121BF
:10173000BDE810400120FFF750B810B5FEF7F0FFEC
:10174000FFF745F801280AD10020FEF7F0FF21211C
:101750000020FFF742F821210120FFF73EF8012188
:10176000052001F04CFB0121052001F048FBF84960
:101770000020087110BD10B54FF4066001F095FB14
:10178000BDE810404FF4066001F080BBF04A01460E
:10179000107B002818BF0120002918BF01211173F8
:1017A0007047EB4A516A506208467047E84900208A
:1017B000C872887048707047E5490020C872887008
:1017C000487070470007C00EE24A801E02EBC0104E
:1017D0004FF480720DF0E6B870B50646FFF71DF8BD
:1017E000DD4D0446C6B1A201314628460DF0DAF8B7
:1017F00005EB84100021016041608160C1600161DE
:1018000041618161C161016241628162C1620163C2
:1018100041638163C16370BD800100F140012846CE
:10182000BDE870400DF0C3B810B5C94CE061FFF7DA
:10183000DAF9FFF7ADF9A1696FF30F01A161A269B0
:10184000C1B242EA0121A161022818BF10BDA069FE
:1018500040F00100A06110BDC0488168C04A11433A
:1018600081600168521C1143016000F0B4BD2DE994
:10187000F047BA4A0D4606469368B9481843906047
:101880001068B8490843106000F0A5FD0024002D41
:1018900079D00020FEF74BFF286820B1FEF7E7FF64
:1018A0000020FEF744FF3046FFF7BEFF0020FEF7A2
:1018B000CFFF002852D0D5F80480FEF7AEFFDFF846
:1018C000989201260746B8F1000F1ED0BA01414692
:1018D00048460DF067F809EB8710046044608460A7
:1018E000C460046144618461C461046244628462CE
:1018F000C462046344638463C4639B48E96859B168
:101900004FF480720DF04EF821E0800100F14001AB
:1019100048460DF04CF8F0E7944F4FF480710DF00D
:1019200046F800203A56002A0EDB1109C90101EBE6
:10193000800101F1405101F5C0411207D20E0B6840
:1019400006FA02F21A430A60401C2028EAD38848AB
:10195000696941B14FF480720DF024F80120FEF75F
:1019600077FF48B904E04FF480710DF020F8F5E7F7
:101970001120FEF76DFF30B1A96821B175484FF411
:1019800080720DF00FF87248C47284704470446223
:10199000017B002101734FF4066001F086FABDE877
:1019A000F0474FF4066001F071BA10B50020FEF761
:1019B000BEFE00F0FDFC6648C078002808BF10BDE0
:1019C0006648016821F0030141F00D7141F080513A
:1019D0000160816821F0020141F00D7141F08051F8
:1019E000816010BD4FF4066001F055BA10B54FF498
:1019F000066001F050FAFEF7EAFE01280AD1002045
:101A0000FEF795FE21210020FEF7E7FE21210120AF
:101A1000FEF7E3FE5748D0F8B01221F48031C0F849
:101A2000B0120020FEF783FE00F0C2FC4848C078E8
:101A3000002808BF10BD4948016821F0030141F0AA
:101A40000D7141F080510160816821F0020141F087
:101A50000D7141F08051816010BD10B501F020FA88
:101A600010F0600018BF012010BD3948C0697047F0
:101A700037488069704772B635498A6922EA0000A2
:101A8000886162B6704732480078002818BF01208C
:101A9000704770B5FEF79BFE002818BF70BD00248C
:101AA0002B4DEC72AC706C7021212046FEF795FE38
:101AB00021210120FEF791FE2C70BDE8704001202D
:101AC000FEF735BE70B50446FEF781FE002818BF4C
:101AD00070BD00211E4DE972A9706970212100209E
:101AE000FEF77BFE21210120FEF777FE022C3CBF92
:101AF0000120FEF782FE012028702C62BDE87040B4
:101B0000FEF715BE10B5FEF762FE002818BF10BD27
:101B100000200F4CE072A07060702121FEF75DFE86
:101B200021210120FEF759FE0120FEF766FE01206B
:101B300020702062BDE81040FEF7F9BD0020FEF7DE
:101B4000F6BD03490020887048700120FEF7EFBD04
:101B50002004011040480030004000300080004068
:101B600002003412030034120060003045070110F7
:101B70000080003000500040FD4988627047FC48FA
:101B8000806A7047002000F05DBB012000F05ABB66
:101B900010B5FFF778FD0446FFF779FDF5480442DC
:101BA00008BF10BDF248816941F0040181610E2136
:101BB00001EAD43104F001020A43816962F31F4152
:101BC0008161ED48016841F02001016010BD0028ED
:101BD00018BF0120E649C8707047E8487047E848D8
:101BE0007047E348C06A7047E1484179C279914241
:101BF00014BF006B406B7047DD48406B70472DE9A8
:101C0000F00FDE4E4FF0000C88B006F14007E146C1
:101C10004FF0FF3806F80C8007F80C900CF1010C1F
:101C2000BCF1200FF6DB4FF0000C002807DD12F8A6
:101C30000C4006F80C400CF1010C6045F7DC002468
:101C400022464FF0010A00280EDD16F902C0BCF151
:101C5000000F06DBBCF1200F3CBF0AFA0CFC4CEA7B
:101C60000404521C8242F0DB002294466D460AFABC
:101C700002FB1BEA040F1ABF05F802C00CF1010CAD
:101C800005F80280521C202AF1DB0022002810DD1A
:101C900016F902C0BCF1000F08DBBCF1200F3ABFFF
:101CA00015F80CC007F802C007F80280521C8242E7
:101CB000EEDBAF4C00220028C4F82C9008DD17F9A9
:101CC00002C0944501D0E76202E0521C8242F6DB7A
:101CD000AC4F0020A7F1600CA7F120060CF80080A3
:101CE00006F8009007F80090401C2028F6DB002042
:101CF000002905DD1A5C0CF80020401C8142F9DC4B
:101D00000022104600290BDD1CF90030002B04DBFB
:101D1000202B3CBF0AFA03F31A43401C8842F3DB32
:101D2000002003460AFA00FB1BEA020F1ABF2B54DD
:101D30005B1C05F80080401C2028F3DB00200029F4
:101D40000ADD1CF90030002B03DB202B3CBFEB5CD1
:101D50003B54401C8842F4DB0020C4F83490002936
:101D600007DD3B56834201D0676302E0401C884296
:101D7000F7DB11F0010F18BF1F2009D00AFA00F39A
:101D8000134203D10AFA00F0024301E0401EF5D5E8
:101D9000002003460AFA00F717421ABF2B545B1CB7
:101DA00005F80080401C2028F4DB002000290ADD13
:101DB0001CF90020002A03DB202A3CBFAA5C325415
:101DC000401C8842F4DB0020C4F830900029DEBFBC
:101DD00008B0BDE8F00F70473256824204D0266347
:101DE00008B0BDE8F00F7047401C8842F4DB08B033
:101DF000BDE8F00F7047644900EB401001EB801024
:101E0000704700EBC000614900EB400001EB80002F
:101E10007047DFF85CC1012B8CF805008CF80610C8
:101E200003D9401C20F0010011468CF807008CF803
:101E3000081000FB01F24FF6FF7101EA4202ACF814
:101E4000122001EA4000ACF8140070474848007ABC
:101E500070474748C0797047454A50729172704741
:101E60004348807A70474248407A7047484A107029
:101E7000517070474649085C70472DE9F047DFF81C
:101E8000F090044699F80C00002804BF99F801006E
:101E90000CF092FD99F80B00002808BFBDE8F08710
:101EA0000027D9F81C003E463D46B84610F0020F08
:101EB0001CBF354F10F0040F05D0B9F81210324A8C
:101EC00021F001018E1810F0010F18BF2F4DD9F825
:101ED00028002060FEF75FFE10F0010F06D0FFF72C
:101EE000A4F8022828BF99F8020000D20020C4F804
:101EF0001480C4E90107C4E903650120BDE8F08747
:101F00001B490020C872704710B50446FEF785FCD7
:101F100082012046BDE810401E490CF043BD2DE96A
:101F2000F041FEF77AFC04460020FFF780F900221A
:101F3000002C84BF012541F6F07633D900214FEA09
:101F4000821C05FA01F3034226D04B080CEB8303F5
:101F500003F1405303F58043CF071B68FF0EFB409E
:101F6000C3F30C03B34217D90020BDE8F081000091
:101F700020040110010007005C0401104507011056
:101F800065070110C507011040940110809C0110E5
:101F90002D04011000400030491C2029D1D3521CCF
:101FA000A242CBD30120E0E70B460007C00EC34995
:101FB000801E01EBC0114FF4807218460CF0F2BC89
:101FC0002DE9F05F00F00F0670000025A0F1020B74
:101FD000012741F6F07846EA05194846FEF738FC35
:101FE000002835D04846FFF72FF907FA00F4022CF5
:101FF00088BF02244846FFF71AF90022002C84BF4C
:102000000BEB05014FEAC11A22D900210AEB821914
:1020100007FA01F3034215D04B0809EB830303F1E0
:10202000405303F580434FEAC17CD3F840384FEA70
:10203000DC6C23FA0CF3C3F30C03434502D90020F4
:10204000BDE8F09F491C2029E2D3521CA242DCD3F8
:102050006D1C022DBFD30120BDE8F09F2DE9F05F7C
:102060000026974C4FF6FF7500280F4641D000F030
:102070000F01C0F30319012918BFBDE8F09FB9F1A2
:10208000020F28BFBDE8F09FFEF7A1FB5FEA000842
:102090001CBF0020FEF74BFB00204FEAC9190022AD
:1020A00009EB8011530801EB830303F1405CD30774
:1020B000DB0E0CF5804C05FA03FBDCF840A807FAB0
:1020C00003F32AEA0B0A4AEA0303521CCCF840380D
:1020D000202AE7D3401C0228E1D3B8F1000F08BF43
:1020E000BDE8F09FA6706670BDE8F05F0120FEF7C6
:1020F0001EBBFEF76CFB5FEA00081CBF0020FEF76A
:1021000016FB002000228101530801EB83034FEAF4
:10211000C27C03F140534FEADC6C03F5804305FABF
:102120000CFAD3F8009007FA0CFC29EA0A0949EAEC
:102130000C0C521CC3F800C0202AE5D3401C2128F7
:10214000E0D3B8F1000FCDD1BDE8F09F10B5FFF797
:1021500022F85B49088210BD594AC1B200F4F85315
:10216000128A914288BF11464FF0640C01FB0CF1BA
:10217000B1FBF2F11A0A02FB0C1110F4005F12BF5E
:1021800008B2484200B2704710B54FF480714D4C10
:102190004D480CF00CFC002001232156002910DBD7
:1021A0000A09D20102EB800202F1405202F5C0425C
:1021B0000907C90ED2F800C003FA01F14CEA010187
:1021C0001160401C2028E8D310BD10B53D4C4FF4E1
:1021D00080713D480CF0EBFB0020012321560029C3
:1021E00010DB0A09D20102EB800202F1405202F533
:1021F000C0420907C90ED2F800C003FA01F14CEA47
:1022000001011160401C2028E8D3BDE810404FF4C4
:1022100024612E480CF0CBBB294810B5808B00F40C
:102220008170FFF701FB4FF4807127480CF0BFFB72
:102230004FF4046125480CF0BAFBBDE810400020C3
:10224000FEF7F9BE70B51E4C0546A06A401CA062A0
:10225000207850B1206A10B1206A401E2062206AA6
:10226000002804BF0020FEF762FA20212846FEF76E
:10227000B4FA616A00291CBF28468847FEF788FC2B
:10228000022815D11248D0F8B81211F0010F0FD062
:10229000D0F8B81241F00101C0F8B812D0F8B81265
:1022A00021F00101C0F8B812A06940F00200A0615D
:1022B0000848016841F02001016070BD40480030CD
:1022C000200401104507011000600030004000307C
:1022D000005000405C0401102DE9F0410027634DDF
:1022E0000126002808BF2E701FD001282F7018BFAC
:1022F0006F701AD0DFF87881D8F800005D49084384
:10230000C8F8000029785C4C002914BF4BF608304F
:102310005A48E06014BF5A484FF0BB70A06059485B
:10232000006830F0FF0206D101E06E70E2E7E2687B
:1023300060F30302E26051B1A06840F01800A060B1
:10234000012000F071F8A06840F48050A0600120E6
:1023500000F06AF8687818B1E06840F03000E0609A
:10236000D4F8B00040F00100C4F8B000012000F043
:102370005BF8E6674FF4E0602061C4F88870287865
:10238000002818BFC4F89460E06820F03000E060D6
:10239000A06820F48050A060D8F8000020F004006D
:1023A00040F00D7040F08050C8F80000BDE8F081AA
:1023B0003148C16821F03001C160816821F4805149
:1023C00081602B48016821F0040141F00D7141F05A
:1023D0008051016070472648026826491143016018
:1023E000224925480A783AB1826842F01802826090
:1023F000826842F480528260497819B1C16841F024
:102400003001C160D0F8B01041F00101C0F8B01047
:1024100070471D49C0B241EA00201749086470475F
:1024200015491A480864704782B040F24C42009047
:1024300013E000BF00BF00BF00BF00BF00BF00BF70
:1024400000BF00BF00BF00BF00BF00BF00BF00BF94
:1024500000BF0198411E0191EBD20098411E0091EE
:1024600028BF0192F5D202B0704700005804011055
:1024700000800040040034120060004005F40100B8
:102480002000BB00D0FE030013005FA000005FA08F
:10249000414840498161891CC161491E416302680C
:1024A00022F0030242F00D7242F080520260426953
:1024B00022F0010242F00D7242F080524261026944
:1024C00011430161354981603549C16035490020BA
:1024D0000860704710B501F04CF932480468002CD0
:1024E00008BF30BFFAD00021016001F046F9204654
:1024F00010BD10B501F03DF926482A4B2649421C73
:102500001C682CB10020186001F037F9204610BD7E
:1025100072B648638A6120BF88614A6362B6BFF3BE
:102520006F8FBFF34F8FEBE71B48016821F003016A
:1025300041F00D7141F0805101601B4981600169DA
:102540001A4A1143016130BF704772B611491248EF
:102550004163C91CC161891E816162B670470E4822
:102560000168134A1143016070470B48016821F06C
:10257000030141F00D7141F080510160704772B666
:10258000044905488161891CC161491E416362B6E5
:102590007047000000003412008000403C003412FC
:1025A000280034125C0401100800341201003412B7
:1025B000030034127047002818BF01204FF4E021B7
:1025C000486070470022B2EBD10F26D20368B3F106
:1025D000FF3F04BF4368B3F1FF3F17D18368B3F1F6
:1025E000FF3F04BFC368B3F1FF3F0FD10369B3F1ED
:1025F000FF3F04BF4369B3F1FF3F07D18369B3F1E4
:10260000FF3F04BFC369B3F1FF3F01D00020704713
:102610002030521CB2EBD10FD8D30120704710B438
:102620000023B3EBD20F30D2D0F800C00C68A44521
:1026300022D1D0F804C04C68A4451DD1D0F808C000
:102640008C68A44518D1D0F80CC0CC68A44513D12F
:10265000D0F810C00C69A4450ED1D0F814C04C6954
:10266000A44509D1D0F818C08C69A44504D1D0F88C
:102670001CC0CC69A44502D010BC0020704720309B
:1026800020315B1CB3EBD20FCED310BC01207047BE
:102690002DE9F041054601F074F8002021264FF4A1
:1026A000825784464FF4E0221660C5F800C01168D6
:1026B00041F004011160116811F0040FFBD11760A3
:1026C00040232C460021D4F80080B8F1FF3F04BF1E
:1026D000D4F80480B8F1FF3F1DD1D4F80880B8F1D8
:1026E000FF3F04BFD4F80C80B8F1FF3F13D1D4F8FA
:1026F0001080B8F1FF3F04BFD4F81480B8F1FF3F59
:1027000009D1D4F81880B8F1FF3F04BFD4F81C8079
:10271000B8F1FF3F08D0C2F800C0401CC0B2082882
:10272000C2D30220BDE8F081491C2034B1EBD30FA5
:10273000C9D3C2F800C00120BDE8F0812DE9F04105
:10274000054601F01EF80020092684464FF4E023D8
:102750001E60C5F800C0196841F0040119601968CD
:1027600011F0040FFBD12C464FF480620021276842
:10277000B7F1FF3F04BF6768B7F1FF3F17D1A76804
:10278000B7F1FF3F04BFE768B7F1FF3F0FD12769FB
:10279000B7F1FF3F04BF6769B7F1FF3F07D1A769F2
:1027A000B7F1FF3F04BFE769B7F1FF3F08D0C3F8B7
:1027B00000C0401CC0B20328CAD30220BDE8F0818B
:1027C000491C2034B1EBD20FD1D3C3F800C0012093
:1027D000BDE8F0812DE9F05F0F46804604264FF0FA
:1027E000020A4FF0000B4FF4E02900F0CAFF444604
:1027F0003846C9F800A00F21B0E82C10A4E82C102E
:10280000491EF9D2D9F8000040F00400C9F80000D0
:10281000D9F8000010F0040F06D000BF00BFD9F8AF
:10282000000010F0040FF8D1C9F800B04546384652
:102830000F21D5E90023D5E902C4D0F800E0964580
:1028400004BF42689A4205D18268624504BFC268EB
:10285000A24208D0761E03D34046FFF719FFC4E713
:102860000220BDE8F09F10301035491EE1D2012052
:10287000BDE8F09F70B50D46044600F082FF4FF4AE
:102880008072214628460CF08DF8012070BD2DE99C
:10289000F041C0B014460E46054610F0FF0F23D09D
:1028A00025F0FF086F4600F06CFF4FF48072414640
:1028B00038460CF077F8E8B2C0F58077A74288BFB9
:1028C000274668443A4631460CF07BF84046FFF70D
:1028D000DFFE022843D069464046FFF77BFF02280F
:1028E00041D03D443E44E41BB4F5807F19D34FF4FE
:1028F0008072314668460CF064F82846FFF7C8FE3F
:1029000002282CD069462846FFF764FF02282AD007
:10291000A4F5807405F5807506F58076B4F5807FA2
:10292000E5D2C4B16F4600F02CFF4FF48072294607
:1029300038460CF037F82246314668460CF041F82C
:102940002846FFF7A5FE022809D069462846FFF76A
:1029500041FF022807D040B00120BDE8F08140B01F
:102960000A20BDE8F08140B00B20BDE8F0810000F6
:102970002E490860086100F010B82C4908604861D1
:1029800000F00BB8294948677047284988677047A5
:10299000264801210166016570474FF04022116B06
:1029A00010F0010F18BF21F4404110F0020F1CBFBE
:1029B00021F4405141F4805110F0040F18BF21F46C
:1029C000406110F0080F18BF41F4407110F0100F73
:1029D00018BF41F0C00110F0200F18BF41F03001C6
:1029E00010F0400F18BF41F00C0110F0800F18BF1D
:1029F00041F0030141F4BE0141F020411163D2F8DE
:102A0000901010F4807F1CBF21F0030141F00201FF
:102A100010F4007F1CBF21F00C0040F0080141F4CD
:102A2000BE0040F02040C2F8900070470010004007
:102A30007047D0488268D0490A438260C268114317
:102A4000C1604169CD4A114341617047C94841693C
:102A500021F0010141F00D7141F080514161C168E7
:102A600021F0400141F00D7141F08051C160816859
:102A700021F0400141F00D7141F0805181607047BB
:102A800010B5BC4CA168BC480143A160E168084393
:102A9000E0606069B94908436061B94843F63F7135
:102AA000C160002181638164C0F8B01003210A2055
:102AB00000F0A5F90A2000F0C5F9606920F00100D6
:102AC00040F00D7040F080506061E06820F0400000
:102AD00040F00D7040F08050E060A06820F04000B1
:102AE00040F00D7040F08050A06010BDA44A10600E
:102AF0005160484390607047A14A1060516048435C
:102B000010F0010F18BF401C906070479C49C1F83D
:102B1000B00070479A49002818BF012088647047A8
:102B200097498863C86840F00200C8607047DFF8C2
:102B300050C2CCF82000CCF82410CCF82820CCF8D7
:102B40002C300120CCF83000DCF8340010F0010FFC
:102B500005D020BFDCF8340010F0010FF9D110F0DF
:102B6000020018BF4FF0FF3070478548C16821F060
:102B70000201C16070478248C16841F00101C16033
:102B800070477F4B186259629A6201201864586C32
:102B900010F0010F04D020BF586C10F0010FFAD1D3
:102BA00010F0060018BF4FF0FF3070477448C1683E
:102BB00021F00101C16070477148C16841F0040112
:102BC000C1607047027C017B02F03F0241EA024192
:102BD0006B4A916501685162416891628168D16276
:102BE00001211165516D11F0010F04D020BF516D0D
:102BF00011F0010FFAD1D36D8382D36D1B0CC38208
:102C0000136E0383136E1B0C4383536E8383526EC8
:102C1000C2F30E42C28311F0020018BF4FF0FF3022
:102C200070475748C16821F00401C160704754489B
:102C3000C16841F00801C1607047DFF844C1CCF8B9
:102C40007820CCF82000CCF82430CCF828100120D3
:102C5000CCF87000DCF8740010F0010F05D020BF34
:102C6000DCF8740010F0010FF9D110F0060018BF65
:102C70004FF0FF3070474248C16821F00801C16041
:102C8000704701684FEA31423D49C1F89C204068D5
:102C9000C1F8A000C86840F02000C8607047016813
:102CA0004FEA31423649C1F89C208088C1F8A00023
:102CB000C86840F02000C8607047314B18625A6203
:102CC00099620120C3F89400D3F8980010F0010F26
:102CD00005D020BFD3F8980010F0010FF9D110F003
:102CE000060018BF4FF0FF307047254A106251624E
:102CF0000120C2F89000D2F8980010F0010F05D022
:102D000020BFD2F8980010F0010FF9D110F00600A2
:102D100018BF4FF0FF3070471948C16821F02001FB
:102D2000C16070471648C16841F01001C16070472A
:102D3000A3F1050C124BC3F888C018625A6299625D
:102D40000120C3F88000D3F8840010F0010F05D0F3
:102D500020BFD3F8840010F0010FF9D110F0060065
:102D600018BF4FF0FF3070470548C16821F01001CF
:102D7000C1607047008000404000341201003412EE
:102D8000009000401B4810B5022140F8501F01215F
:102D900001611021416241F206014161002181611E
:102DA0000421816390214163416B41F00101416342
:102DB0004FF4817101610161032000F043F80021AB
:102DC000032000F01CF8002010BD10B5032000F017
:102DD00045F808484FF48071016600210166102112
:102DE000816702214165002010BD03490020087061
:102DF000704700000030004060040110704700F090
:102E00000303DA004FF0FF0C0CFA02F24FF0050C4E
:102E10000CEBC30301FA03F300F00C0101F1E02114
:102E2000002807DAD1F8140D90431A401043C1F876
:102E3000140D7047D1F8000490431A401043C1F8B4
:102E40000004704700F01F01012202FA01F140095D
:102E5000800000F1E020C0F80011704700F01F0171
:102E6000012202FA01F14009800000F1E020C0F8DF
:102E70008011704700F01F01012202FA01F14009A0
:102E8000800000F1E020C0F8801270474FF0E02190
:102E9000C1F8000170474FF0E021C1F88001704790
:102EA0004FF0E020D0F8000170474FF0E021C1F86A
:102EB00080027047084800687047074A1168106030
:102EC00008467047044A126800F1100352F82300C4
:102ED00042F823107047000008ED00E002210C20AA
:102EE000FFF78DBFB8488268B8490A438260C2685C
:102EF0001143C1607047B448816821F4805141F0AA
:102F00000D7141F080518160C16821F4805141F020
:102F10000D7141F08051C1607047AD4881B0016FC3
:102F200011F4007FFBD1816E11F0010F1CBFD0F8AE
:102F30008410009104D0D0F88410009A9142FAD005
:102F4000016F11F4007F04BF4CF27101016642F27F
:102F50004131816601B070479D4981B04FF40D52F7
:102F60008A660A6FCA66012898BF012005D9401EEB
:102F7000B0F5803F28BF4FF6FF7082B24FF05C5033
:102F800040EA022048664FF01140C1F88000086F07
:102F900010F4007FFBD1886E10F0010F1CBFD1F838
:102FA0008400009004D0D1F88400009A9042FAD0B6
:102FB000086F10F4007F04BF4CF27100086642F203
:102FC0004130886601B07047814881B0016F11F4CB
:102FD000007FFBD1816E11F0010F1CBFD0F884106F
:102FE000009104D0D0F88410009A9142FAD04FF4A6
:102FF0000D51816601B070477348806810F48050AD
:1030000008BF70477248806E00F00100704770483A
:10301000406EC0F30F2070476D48D0F884007047B1
:1030200010B50C20FFF726FF0C20FFF70BFF6849B7
:103030000220486710BD664910B5032088670C2040
:10304000FFF70CFFBDE810400C20FFF713BF614AEB
:1030500011681060084670475D4810B5016FC16681
:103060005C480068002818BF80475B48016841F44D
:103070008051016010BD574840687047524810B5F4
:10308000826852490A438260C2681143C160504954
:10309000032088670C20FFF7E1FE0C20FFF7EAFE13
:1030A00000F066F94D4B0420C3F888004FF6FF701E
:1030B000C3F88C0072B66033FFF74EFF4FF4007018
:1030C000186062B610BDF8B572B64148016F11F4D0
:1030D000007FFBD1816E11F0010F1CBFD0F884106E
:1030E000009104D0D0F88410009A9142FAD04FF4A5
:1030F0000D51816639494FF400320A6662B6D1F843
:103100000412314D002946D0324C4FF6FF73591A44
:10311000A160AA69D5F81CC002F00F020CF00F0CD8
:103120006244121D01FA02F2A2F5EA41DFF8B0C0D2
:10313000313961452FD2D0F88400191AE160B1F518
:10314000803F28D2274B4FF0000CA1FB03070CFB5C
:10315000037301FB0C3163460BF038FC401C400844
:103160002061B0F57A7F38BF4FF47A701E4B9968B2
:10317000002908BF98605A681A609968C3E901106D
:103180008A421BD9824205D9814201D9616002E09D
:10319000606000E0626000F0F7F8A86820F48050FA
:1031A00040F00D7040F08050A860E86820F4805036
:1031B00040F00D7040F08050E860F8BD8242E9D8E0
:1031C0008142E5D8E2E700000080004000103412A0
:1031D00000C00040640401105C04011000A0004025
:1031E0002F6E160000879303E80701100F488168CF
:1031F0000F4A114381600F48016841F40471016076
:10320000001F016841F004010160016841F01001F4
:1032100001607047084908607047BFF34F8F084945
:1032200006480860BFF34F8FFEE7000000800040B3
:103230000400341214ED00E008ED00E00400FA058B
:103240000CED00E018488168184A114381601003B2
:10325000416941F001014161016A21F00F02144905
:103260000A430262134B8A1EC3F8C42001657047EB
:103270004FF04020006900F0700070474FF0402090
:103280000D4940F8301F0D4941600D4901660D4957
:10329000416670474FF0402148680B4A904202BF98
:1032A000496C00290948704700800040040034122E
:1032B00003005FA000600040C0805FA055955FA044
:1032C0000A005FA000005FA061A5650561B6650505
:1032D000022824BF00207047DE4B53F8202043F81B
:1032E00020101046704770B5DB4C206FD94D10F0A0
:1032F000010F05D00120E0662868002818BF80472C
:10330000206F10F0020F08BF70BD0220E0666868F1
:10331000002808BF70BDBDE870400047CF4810B519
:103320008268CF490A438260C2681143C160CA49BA
:1033300002220A6501230B660323CB664A65816876
:1033400021F0800141F00D7141F080518160C16830
:1033500021F0800141F00D7141F08051C1600920E0
:10336000FFF770FD0221BDE810400920FFF747BDBF
:10337000BA488268BA490A438260C2681143C16090
:10338000B549022008657047B34902204865B34833
:10339000816821F0800141F00D7141F08051816020
:1033A000C16821F0800141F00D7141F08051C16090
:1033B0007047AA488068C0F3C0107047A648016FE4
:1033C00011F4007F14BF4FF440714FF48071016617
:1033D000704710B5A04CE06F10F0020F4FF00100E5
:1033E00018BF0320606700F068F99C498A69C969C1
:1033F00002F00F02D04001F00F01C8400521B0FBE0
:10340000F1F04FF405710009C4F880109549A1FB53
:1034100000104009C4F88400206F10F4007F14BF2E
:103420004FF440704FF48070206610BD8A48016FE1
:1034300011F4807F14BF4FF440714FF400710166A6
:103440007047854B30B4DA6F12F0010F14BF0322BE
:1034500002225A6700EB4005C5EBC0104FF496748A
:10346000C1EBC0004C4300EB80007F4904EB4010EF
:10347000A1FB0010794900224FF0020C8C69C008B2
:10348000C96904F00F0401F00F012144C84005216F
:10349000B0FBF1F0B0F5803F05D3511C4008CAB233
:1034A000B0F5803FF9D242EA0C2141F01001C3F897
:1034B0008810C3F88C00186F10F4807F14BF4FF48D
:1034C00040704FF40070186630BC70476248016F5E
:1034D00011F4003F14BF4FF440314FF480310166C6
:1034E00070475D48016F11F4803F14BF4FF44031C5
:1034F0004FF40031016670475748006FC0F3002059
:1035000070475548006FC0F34020704753498968A1
:10351000C1F3C011002904BF002070474E490028A4
:103520000CBFD1F80002D1F8040270474B4B9A68E7
:10353000C2F3C012002A04BF00207047464A002888
:103540000CBFD2F88000D2F88800C0F30A200CBF6C
:10355000D2F88020D2F8882002F00F02D3F818C0E9
:10356000DB690CF00F0C03F00F0363441A44914025
:10357000012202EB400048433C49A1FB0010000936
:1035800070473B4901200870704770B4334BC1EB62
:10359000011149009A69D3F81CC002F00F020CF027
:1035A0000F0C6244121DD14008BF012104D0B1F5B7
:1035B000803F28BF4FF6FF719A68C2F3C012002AFD
:1035C0001CBF70BC7047D3F808C0254A4CEA020CF7
:1035D000C3F808C0D3F80CC04CEA0202DA601E4AF5
:1035E0004FF0020CC2F850C04FF4003414660425AA
:1035F000C2F88850C2F88C101E4DD566C2F874C04F
:103600001D4902283CBF134E46F8201000211848DF
:1036100001704FF400711166017819B920BF01786B
:103620000029FBD014669567D566C2F854C0986827
:1036300020F0800040F00D7040F080509860D86815
:1036400020F0800040F00D7040F08050D86070BCD9
:10365000704700007C04011000A000400080004082
:10366000800034121F85EB51CDCCCCCC8988888862
:103670007804011002000202335500004FF0E021EF
:103680000020886108611F494860704710B54FF0FD
:10369000E02460610020A0610221401EFFF7AFFB23
:1036A0000720206110BD4FF0E02100200861704725
:1036B00014480188491C018070471248806870478F
:1036C0002DE9F0410F4C002705462780A0684FF4F4
:1036D0007A71B0FBF1F04FF0E026401E7061B761E7
:1036E0000221C81EFFF78BFB072030612188A94209
:1036F000FCD33761BDE8F081034948430149886044
:10370000704700008404011040420F00704770B5FC
:1037100005464FF40D500406A0660320E0662648D7
:1037200060664CF2710020662448C4F8800042F2C2
:103730004630A06602210020FFF761FB0020FFF762
:1037400081FB002D08BF70BDA06E42F241310843DD
:10375000A06670BD012110B5880781674FF40D5137
:1037600081660020FFF77AFBBDE810400020FFF7DC
:1037700081BB012081074867704701208107886766
:1037800070474CF271008107086670470C4A116857
:103790001060084670470A4808B5006818B18047AD
:1037A000002818BF08BD4CF2710188070166016F3F
:1037B000C166006F009008BD07383937009C1C9126
:1037C0009004011070B5FF4D00244FF4A0612C70DF
:1037D0006C70EC70FC480BF0EAF84FF4A061FB4809
:1037E0000BF0E5F8FA48AC602C71C0F80043C0F863
:1037F0000443C0F80843C0F80C43C0F81043C0F8B5
:103800001443C0F81843C0F81C43C0F82043C0F864
:103810002443C0F82843C0F82C43C0F83043C0F814
:103820003443C0F83843C0F83C43C0F84043C0F8C4
:103830004443C0F84843C0F84C43C0F85043C0F874
:103840005443C0F85843C0F85C43C0F86043C0F824
:103850006443C0F86843C0F86C43C0F87043C0F8D4
:103860007443C0F87843C0F87C436C716821D94830
:103870000BF09DF86821D8480BF099F8EC6070BD0A
:10388000D049002048707047CE4840787047CD48F6
:103890000079002818BF01207047CA4840790028E5
:1038A00018BF01207047C748C078002818BF012002
:1038B0007047C448407800EB800101EBC000C54967
:1038C00001EBC00070472DE9F041BE4D0446C149EF
:1038D0006A78C24F02EB820000EBC200C04E01EBDF
:1038E000C0033A78307821461044420018460BF065
:1038F00068F86A78B84902EB820000EBC20001EB7D
:10390000C0033A78307821461044420018460BF044
:1039100058F801206871BDE8F081AA48C068704776
:10392000A848A949407800EB800001EB00207047CF
:103930002DE9F041A34E07463078002814BFA9486E
:10394000A948047814BFA948A948057804FB05F8DC
:10395000FFF76FF829462046FFF7C8F870789B4CB0
:1039600000EB8000984904EB002201EB00203B466D
:103970000146FFF7DCF8FFF769F870784FEA480274
:1039800000EB800004EB002039460BF01AF8012010
:10399000F070BDE8F0812DE9F0478A4D04468A4970
:1039A0006878DFF8408200EB800001EB002C28787B
:1039B000DFF834928D4E8E4F2146002815BF98F8BF
:1039C000002099F8002033783B7802FB03F04FEA9F
:1039D000400260460AF0F5FF68787C4900EB800001
:1039E00001EB002C28782146002815BF98F800200C
:1039F00099F8002033783B7802FB03F04FEA40024D
:103A000060460AF0DEFF0120E870BDE8F0876D48EF
:103A10008068704770B5774C054601462278764835
:103A200052000AF0CEFF22782946520073480AF06D
:103A3000C8FF64490120087170BD2DE9F04FADF257
:103A40003C5DDFF880910120CDF8240599F8030052
:103A5000CDF8200599F80400CDF81C0599F805006B
:103A6000CDF8180501F0AEF8FDF752FECDF8380597
:103A7000FEF709F8CDF83405FDF7E7FACDF8300583
:103A8000FDF789F80446FDF745FED9F8140004282F
:103A9000BCBF0420C9F8140099F80200B9F814104A
:103AA000000240EA014040F001020023912107207A
:103AB00008F076FD14F0010F05D0FDF7EAFF0020B5
:103AC000CDF8240504E00020FDF7B5FAFEF71AF85A
:103AD00000263746B3464FF0010A04F016FF0128CE
:103AE0001DD00DF5A060FEF7C8F9002800F0FB819D
:103AF0000DF5A06005F05DFD002089F80100D9F802
:103B00001400C01E8642CABF874201250025DDF889
:103B10000C05002836D0DDF81C0520B132E04FF04E
:103B2000010B00F0CAB96846DDF80C150AF053FF26
:103B300080467DB12F4C4146207842002E480AF045
:103B400040FF2078414642002C480AF03AFF89F8AD
:103B500004A017E0FEF76DFF264C01212078FEF748
:103B6000C5FF264A4346A2F140010846FEF7DFFFA3
:103B7000FEF76CFF20784146420020480AF021FF02
:103B800089F804A0DDF80805002800F0EA80DDF8D7
:103B90002005002840F0E58099F80000DDF8084590
:103BA000002861D1D9F80880B8F1000F43D00D4842
:103BB0000078CDF82C050D480078CDF82805FEF7E3
:103BC00038FF1DE094040110589D0110F407011006
:103BD000F413011058A2011074170110CA04011047
:103BE000CB040110C8040110C5040110C904011060
:103BF000C6040110CC040110F41601103417011092
:103C0000DDF82815DDF82C05FEF776FF2146424643
:103C10000846FEF7B6FFFEF719FFFC4800780228B9
:103C200004BF404605F017FAF8480078092804BF99
:103C3000204605F010FAF6480078012814D9DFF87C
:103C4000CC8398F80000042804BF204605F003FA4E
:103C5000214668460AF0C4FE044698F8000005288C
:103C600004BF204605F0F7F9ADB399F8010099F8C3
:103C7000002000EB8001E748002A00EB01202146EC
:103C80000CBFE54AE54A137814BFE54AE54A1278C5
:103C900003FB02F24FEA42020AF093FE99F8010098
:103CA00000EB8001E04800EB012399F80000214679
:103CB000002814BFD948D848007814BFD84AD94A38
:103CC000127800FB02F04FEA400218460AF079FE33
:103CD00089F803A038E0FFE7CDF8284599F80000FF
:103CE000002814BFCD48CC4890F8008014BFCC48C1
:103CF000CC48047808FB04F0CDF82C05FEF799FEBB
:103D000021464046FEF7F2FE99F80100C64C00EB52
:103D10008000C04904EB002201EB00200146DDF8E1
:103D20002835FEF704FFFEF791FEDDF82C05DDF8DF
:103D30002815420099F8010000EB800004EB0020F8
:103D40000AF03FFE89F803A0B0480078032808D1A4
:103D500099F8010000EB8001AE4800EB012005F06E
:103D60007AF9DDF8100500287DD0DDF81805002867
:103D700079D199F80000DDF8104548BBD9F80C80DE
:103D8000B8F1000F24D0A9480178A9480078084468
:103D9000401C4008019002200090FEF74AFEDDE939
:103DA0000010FEF7A9FE214642460846FEF7E9FE4E
:103DB000FEF74CFE9F480078022804BF404605F0FD
:103DC000DDFA9C480078092804BF204605F0D6FAA1
:103DD00045B399F80100954D00EB800101EBC0015E
:103DE0009548DFF84C8200EBC1032A7898F8000070
:103DF00021461044420018460AF0E3FD99F80100FC
:103E00002A7800EB800101EBC0018C4898F8003063
:103E100000EBC1001A44214652000AF0D2FD89F895
:103E200005A02EE08148A0460178814800780C1852
:103E3000FEF7FFFD601C40080221FEF757FE99F8CF
:103E400001007E4D00EB800101EBC0007A4905EBDB
:103E5000C00201EBC00108464346FEF768FEFEF7CC
:103E6000F5FD620000E01BE099F8010000EB800125
:103E700001EBC00005EBC00041460AF0A2FD89F845
:103E800005A06C48007803280AD199F8010000EBDE
:103E9000800101EBC001684800EBC10005F06EFA3B
:103EA000FEF72EF8D9F81400761C7F1C8642A8BFB6
:103EB000874211DBD9F8100070B1FDF72BFCDDF85B
:103EC0003005FDF7B8F8DDF8380588B1DDF83405C0
:103ED00060B1FDF717FE0BE0DDF82405002818BFE0
:103EE000FDF710FEF9E500F0BAFEF6E5FDF7D1FDAD
:103EF000BBF1000F04BF0420C9F814000BD0DDF89B
:103F0000200589F80300DDF81C0589F80400DDF8B8
:103F1000180589F80500B9F814104FEA0B2040EA9B
:103F2000014200239121072008F03AFB0DF23C5D8D
:103F30005846BDE8F08F10B50024FDF796FD4049C6
:103F400010F0020F0AD0CA78002A08BF012410F02E
:103F5000040F03D00A79002A08BF012410F0010FD2
:103F600003D04879002808BF01240020002C08BF96
:103F700010BD00200870BDE810405EE508B50F21B7
:103F800000F035FF012804D1FFF7D5FF009001F0C4
:103F900076F82B48C17800291CBF4179002904D04C
:103FA000007900281CBF012008BD002008BD08B50D
:103FB0000F2100F01CFF012804D1FFF7BCFF009087
:103FC00001F05DF81E48C17800291CBF4179002925
:103FD00004D0007900281CBF012008BD002008BDC6
:103FE000704717490020C8700871487108F008BF71
:103FF00010B54FF4A06107480AF0D9FCBDE81040A5
:104000004FF4A06108480AF0D2BC00003D05011041
:10401000C7040110589D0110C5040110C804011007
:10402000C9040110C6040110F4070110CA040110EC
:10403000CB0401104205011058A2011074170110A1
:1040400094040110FE487047FE480178FE4800784D
:1040500048434100FA480AF0AABC70B50646F94840
:104060000478F9480578FEF7E4FC29462046FEF777
:1040700043FDF648F649407800EB800001EB002252
:104080003146EF48FEF77DFDFEF7E0FCF148007891
:10409000152818BF70BDEA48BDE8704004F0DBBFCA
:1040A000002818BF0120E949C870704710B5E74CD7
:1040B000002804BFA06010BDDFF89CC3E7490B785F
:1040C000E7490A7801465A43520060460AF079FCF3
:1040D000E148A06010BDE3490020C1F80003C1F829
:1040E0000403C1F80803C1F80C03C1F81003C1F8B8
:1040F0001403C1F81803C1F81C03C1F82003C1F868
:104100002403C1F82803C1F82C03C1F83003C1F817
:104110003403C1F83803C1F83C03C1F84003C1F8C7
:104120004403C1F84803C1F84C03C1F85003C1F877
:104130005403C1F85803C1F85C03C1F86003C1F827
:104140006403C1F86803C1F86C03C1F87003C1F8D7
:104150007403C1F87803C1F87C037047C248704704
:10416000002818BF0120B9490871704710B56821AF
:10417000BE480AF01CFCBDE810406821BC480AF0AB
:1041800016BC002818BF0120B0494871704710B50F
:10419000AE4C002804BFE06010BD68220146B5485F
:1041A0000AF00FFCB348E06010BD70B5A74C0021C9
:1041B0000546E1702171617108F022FE002D14BFE7
:1041C000012000202070BDE8704036E42DE9F04F5A
:1041D00089B04FF4A061A0480AF0E9FB6821A54826
:1041E0000AF0E5FBFDF741FC0446FDF791FA089063
:1041F000FDF749FC0790FCF728FF0690FDF78AFAC7
:104200000020FCF718FFFDF77DFC00252E4604F08A
:104210007CFB012853D06846FDF72FFE00285BD0B9
:10422000684605F0C6F914F0020F1CD08B48DFF881
:1042300028B2DDF8089090F800808948DA460778BF
:10424000FEF7F7FB0120FEF765FC39464046FEF716
:1042500053FC524649465846FEF793FC0020FEF7B1
:1042600059FCFEF7F3FB14F0010F20D08248DFF871
:1042700004B24FF0020801788048DA46DDF8109069
:1042800000780844401C4708FEF7D3FB0120FEF7E6
:1042900041FC41463846FEF72FFC524649465846F7
:1042A000FEF76FFC0020FEF735FCFEF7CFFBFDF7B5
:1042B00027FE6D1C102D03D2FDF724FCA7E7012675
:1042C000FDF728FA0698FCF7B6FE089848B107985B
:1042D00028B1FDF717FC04E000F0C1FC97E7FDF7FB
:1042E000D8FBCEBB594F14F0020F19D05B48DFF852
:1042F00068C101785A486346007801FB00F210203B
:104300000021002A0AD933F9118008EB5008B8FBC4
:10431000F0F52CF81150491C8A42F4D84E48B86088
:1043200014F0010F18D05448524B017853489C4662
:1043300000780A184FF010014FF000000AD03CF945
:10434000105005EB5105B5FBF1F423F81040401C6B
:104350008242F4D84748F86009B03046BDE8F08F93
:1043600001207047464870474548006870474449F7
:104370000A68B2F1FF3F15D0052804BFC87A70471C
:1043800028DC012804BF08797047022804BF087A96
:104390007047032804BF487A7047042804BF887A0E
:1043A000704727E0052813D007DC012822D0022817
:1043B0001CBF032804280BD01CE0142812BF1528AA
:1043C0002D207047162804BF28207047172811D1C8
:1043D00000207047142804BF087B7047152804BFCD
:1043E000487B7047162804BF887B7047172804BF96
:1043F000C87B7047FF20704730B5C1B000244FF430
:10440000807168460AF0D3FAFF221D4D511C6846A0
:104410000AF0EBFAFF21224661F307022D23214621
:1044200063F3070163F30F21282363F3174164F358
:104430001F61CDE902414BF6BB30049422E000003D
:10444000F40C0110C5040110C604011094040110FD
:10445000589D01103D050110F4110110C804011010
:10446000C9040110F4130110F416011058A2011030
:1044700074170110DC170110CA040110CB040110DD
:1044800000AE0200CDE900022846FEF701F96946B8
:104490002846FEF79FF941B030BD2DE9FF4FDFF808
:1044A000E882C1B08346D8F800004E9F91468A4604
:1044B0004446B0F1FF3F08BFFFF79EFFD4E901106B
:1044C0006BF307018B466AF30700449969F30F20E9
:1044D00061F317402568D4E9036467F31F6007465A
:1044E000FF22511C68460AF080FA0297CDE9036466
:1044F000CDE9005B4046FEF7CBF869464046FEF743
:1045000069F9012818BF002045B0BDE8F08F2DE9FA
:10451000F74FDFF8749283460020D9F80060C0B0EE
:104520008A464C46B6F1FF3F04BF43B0BDE8F08F6A
:10453000D4E902856768FF22511C6846D9F810400B
:104540000AF053FA6BF3070542986AF30F2560F3FC
:104550001745012060F31F65CDF80880CDE90354AD
:104560004846CDE90067FEF793F869464846FEF7EE
:1045700031F943B0BDE8F08F2DE9F04F8248834E0A
:1045800000250368C1B074422F461720FFF7EFFEE5
:1045900084461420FFF7EBFE40B2B3F1FF3F04D096
:1045A000BCF1000F03D12D2801D0FFF725FF142007
:1045B000FFF7DDFE40B202901520FFF7D8FE4FFA5C
:1045C00080F91620FFF7D3FE40B201901620FFF7C6
:1045D000CEFE404240B20090FDF747FADFF8B0A1AE
:1045E000834600208AF803008AF804008AF8050050
:1045F00008F006FC00208AF80000FFF71EFA1BF006
:10460000010F04D00AF0F6F9012808BF01251BF0BC
:10461000020F7DD05F489AF80110604A90F800C000
:104620005D4801EB810102EB012200784FF00008A8
:104630000028C8BFACF1010A1EDD0021BAF1000F4D
:1046400016DD01F1010B01FB00830BFB008B32F83F
:10465000133032F81BB0A3EB0B031BB2002BB8BF17
:104660005B421BB2BB42C8BF1F46491C5145E8DB39
:1046700008F101088045E0DBB945B8BF45F0020507
:104680004FF00008C146BCF1000FC8BFA0F1010AFD
:104690001BDD0021BAF1000F13DD09FB001332F816
:1046A00013B002EB43035B88ABEB03031BB2002B9D
:1046B000B8BF5B421BB24345C8BF9846491C514531
:1046C000EBDB09F10109E145E3DB02994145B8BFA4
:1046D00045F004054FF00009BCF1000F13DD002385
:1046E00000280CDD09FB003132F91110B142C8BFBE
:1046F0000E46A142B8BF0C465B1C8342F2DB09F1B7
:104700000109E145EBDB0198B04204DB009800E0D1
:1047100003E0A04201DD45F0080560421A4C08F0B4
:10472000FF0B00F0FF08206807F0FF0A06F0FF0902
:10473000B0F1FF3F08BFFFF75FFED4E901106BF354
:1047400007006AF30F20266869F31740D4E9037461
:1047500065F3070168F31F600D468046FF22511C78
:1047600068460AF042F9CDF80880CDE90374064C9A
:10477000CDE900652046FDF78BFF69462046FEF730
:1047800029F841B0BDE8F08F00AE0200F1D8FFFF7C
:1047900094040110C6040110C5040110589D0110B5
:1047A000FA4920F07E4008617047F8480069704778
:1047B000F64880897047F548C089704770470843BC
:1047C00018BF7047F148006910F0807F1CBF0020BF
:1047D000107070472DE9FF5F8346ED480027DDF834
:1047E00038A005780398109EB9463C4650452CD019
:1047F00006FB050E0F983BF91EC006FB05093BF9A9
:104800001900BCEB000348BFA0EB0C0306FB05A896
:104810003BF91840B4EB000C48BFA0EB040C03EBD1
:104820000C0004B231F91EC031F91900BCEB0003D1
:1048300048BFA0EB0C0331F918C0BCEB000148BF26
:10484000A0EB0C0158180FFA80F9012A2DD04FF077
:1048500001080AF0D4F8CF49002C0A782EDD0F9910
:1048600006FB05113BF911101431282926D90399AB
:1048700002EB0A0C11448C4520D9119B129D134464
:104880002A448B421CBF8D1A15F1020F30F91150CA
:1048900000EB4106B6F90260A5EB060508D01E350F
:1048A0003C2D08D94FF0000808E0A1450CDD0AE0D6
:1048B0000A35142DF6D8491C8C45E2D8A14503DDF4
:1048C000B8F1000F00D0012704B03846BDE8F09FD2
:1048D000B14A0280428000218280C180018153421E
:1048E00043818181C181018241828182C1820283AF
:1048F0007047A6480078002818BF0120704710B5FF
:104900004FF4A061A5480AF052F84FF4A061A44802
:104910000AF04DF89D490020087010BD2DE9FF4FA9
:1049200085B09846DDE913A791460446DDF848B006
:1049300008F077FA0026954D002840F0C88000F076
:1049400041F9052800F0C3800698CDE902070A2046
:10495000049094481E27007800908E4800780190BB
:10496000A88910B96878012819D108F095FAB0B96A
:10497000BAF1010F13D0BBF1010F02D1E889C828A9
:104980000DD808F03AFA01280BD0DDE9001200201A
:10499000891812D0029A32F91020BA4209DDEE715C
:1049A0001BE0052004900398012814BF2827322714
:1049B000EBE7401C80B28142ECD8286910F4803FBC
:1049C0000BD0E879401CC0B2E8710499884204D940
:1049D000012068714FF0FF34EE7108F00EFA0128E3
:1049E00075D1BBF1000F2BDCBAF1010F28D028697B
:1049F00010F4003F0AD0A879401CC0B2A8710A2860
:104A000004D9012068714FF0FF34AE710A20019083
:104A1000644800274FF01E0B007800905D4890F826
:104A200000A009F0F1FF01460020AAF1010CBCF141
:104A3000000F17DD31F910201E2A03DD2E7246E02B
:104A4000AE71E3E701EB4003B3F90230002BB8BFCE
:104A5000002A03DAD21ABA42C8BF17B2401C80B289
:104A60006045E7DB31F910001E28E7DC0098504470
:104A7000431E534515DD31F91A001E28DEDC01EB1B
:104A80004A02B2F90220002AB8BF002803DA801ACD
:104A9000B842C8BF07B20AF101001FFA80FA5345B5
:104AA000E9DC31F91A001E28C8DC286910F4002F4F
:104AB0000DD05F45C2DD287A401CC0B22872019932
:104AC000884204D9012068714FF0FF342E72B4F18E
:104AD000FF3F28D0002C07BFE878012809B0BDE8C7
:104AE000F08FEE704FF4A0612C4809F060FF4FF496
:104AF000A0612B4809F05BFF2E7000F069F80428D4
:104B000032D0B9F1000F1CBF4846FEF744FFB8F1A0
:104B1000000F04BF09B0BDE8F08F404609B0BDE802
:104B2000F04FFEF7D0BE687901281CBF09B0BDE880
:104B3000F08F4846FFF791FA6E714FF4A061174865
:104B400009F035FF4FF4A061154809F030FF2E70D1
:104B5000B9F1000F1CBF4846FEF71DFFB8F1000F6A
:104B6000DBD109B0BDE8F08FB9F1000F1CBF48469A
:104B7000FEF7DEFEB8F1000F04BF09B0BDE8F08F0C
:104B8000404609B0BDE8F04F09F043BFAC04011046
:104B9000C5040110CB040110F1D8FFFF441D011022
:104BA00044180110CA04011010B505F095FE05F077
:104BB0003EFF002010BD0000F74988707047F6489E
:104BC00080787047F44800787047F3484078704721
:104BD000F1480078022805D005281CBF0020704746
:104BE00004F04BBF08F0ECB8EB490870704770B5A3
:104BF000E94E04460D463078A04212D002281AD061
:104C0000052814BF002004F038FF44EA052132785B
:104C1000002341EA024141EA00626121072007F0D6
:104C2000BFFC7570072C28BF70BDDFE804F01607C5
:104C30000B13160F160008F0C3F8E6E7284600F03D
:104C40002BFA0AE0284608F05CF906E0284604F052
:104C500009FF02E0284607F05BFD347070BDCF49C4
:104C600000200968B1F8641011F4807F08BF704714
:104C7000FDF730BCC94900200968B1F8641011F48F
:104C8000807F08BF7047FDF734BCC4490020096825
:104C9000B1F8641011F4007F08BF704709F0BEBE80
:104CA000BE4900200968B1F8641011F4806F08BF94
:104CB000704709F0B8BEB849C87800281CBF401E2C
:104CC000C870704770B5B649D1F8CC00B24C10F03E
:104CD000030F0AD040F4BE0040F02040C1F8C800E5
:104CE000E078002804BF0120E070AE488068AB4D3A
:104CF00010F0020F296807D14FF04020406910F0F2
:104D0000010F01D0E07840B1B1F86410002011F437
:104D1000807F18BFFDF7EDFB07E0B1F864100020BD
:104D200011F4806F18BF09F07EFE9F49084208BF4A
:104D300070BD2968496E090CE17070BD10B572B67E
:104D4000FEF708FDBDE81040FEF767BA10B5012870
:104D500002D0022805D008E04FF42F30FDF798FC70
:104D600003E04FF040219148086772B6FEF7F2FC6D
:104D7000BDE81040FEF751BA874900280A7918BFEC
:104D800001200871C0B2824208BF7047002200288B
:104D900018BF012200230121022007F001BC7E4838
:104DA0000079002818BF012070477B484069704790
:104DB00079480069704778480069002818BFC07AB0
:104DC00070477549886170477348806970477249B8
:104DD000C86170477048C06970477048026802F542
:104DE000C073118A508A02F5A072FCF708BF2DE942
:104DF000F04FDFF8A49197B00E46C9F8140005F003
:104E000085FCC9F8100000287ED090F800C089F811
:104E100005C0417889F80610837804460CF101003A
:104E200089F8073000F0FE0089F80800E27889F878
:104E30000920207989F80A00607989F80B0009F1C6
:104E40000D004FF0000B80F800B080F801B0207822
:104E500089F80C006046FCF7DCFF99F80B1099F814
:104E60000A00FCF7F9FF6946204605F078FC608AE5
:104E7000D9F8185000281CBF6843050B678BD9F878
:104E80001C80002F08BF4FF480574FF4805A002039
:104E900016F0040F18BF4FF4857016F0080F18BFF6
:104EA00040F0040016F0020F1CBF40F2012108433D
:104EB00016F0010F18BF40F48460616A6FF30F06AB
:104EC00008406FF30F0108430643009810900498C0
:104ED0001190089812900198139007981590CDF8AA
:104EE00050B010A93046FCF7C2FC16F0020F7ED07D
:104EF00004F085FF5FEA000B34D004F097FF6843AD
:104F0000050B5946002000E01FE0FCF7B2F8218AAB
:104F100000291CBF0020FCF723F904F0A7FF08FBC1
:104F200000F0000B8030010A0820012202FA00F391
:104F30000B4201D1401EF9D5A0F10408A07B002846
:104F400018BFA0F1010B17D112E014480068B0F8A7
:104F5000640010F4807F18BFFDF7CBFA002017B073
:104F6000BDE8F08FB4F80CB0BBF1000FC9D1CEE7AB
:104F70000020FCF769F98346E07B002814BF401E3F
:104F8000FCF78EF90BEB0801042911DDA8EB0101F8
:104F900001F10408042110E0C0040110EC05011027
:104FA000006000400080004008000300AD2007B012
:104FB0000029BCBFA8EB010800218044B8F1040F10
:104FC00006DDA8F10400C5404FF0040808E00EE03B
:104FD000B8F1000F04DAC8F1000085404FF0000876
:104FE0000020FCF747F941460020FCF76FF916F066
:104FF000010F23D0A18A00291CBF0120FCF739F83A
:10500000268B3EB131460120FCF7AAF8314611202B
:10501000FCF7A6F8A67D3EB1711E0120FCF72AF927
:10502000711E1120FCF726F9E67D3EB1711E0120AC
:10503000FCF74CF9711E1120FCF748F9E07A0028C2
:105040001CBF0001FBF74BFF029804F0B4FE03986D
:1050500030B12B4699F8062099F8051009F0E8FCC4
:1050600052463946284609F0E8FC0598FFF71EF835
:105070000998FFF78CF817B00120BDE8F08F10B544
:10508000FCF7B4FC04F09FFE0249002008610120F7
:1050900010BD0000C0040110FB4908707047FA48B9
:1050A00000787047F94810B4F94A0168914218D164
:1050B0004168B1F5907F14D80022D0F808C00346AB
:1050C0001146B2EB9C0F24BF10BC704753F821402F
:1050D000491C2244B1EB9C0FF8D3002A04BF10BC3A
:1050E0007047002010BC7047E848FDF7D1BAE64988
:1050F00001200870704770B50E4605461024FFF772
:1051000057FE15F0020F18BF052403D115F0010F4B
:1051100018BF09243246102C28BF70BD002A08BFD2
:1051200070BD204490F928102046BDE8704005F07D
:1051300049BBF0B5ADF6040D0446FFF739FE054650
:1051400014F0020F0AD06F4604263846FCF7DCFE46
:1051500095F92C103A46304605F034FB14F0010F57
:1051600004BF0DF6040DF0BD08246E463146012043
:10517000FCF71AFF95F930103246204605F022FB65
:105180000DF6040DF0BD2DE9F34F8BB00020079014
:105190000868089008790290487901908879B1F9F7
:1051A0000890B1F90AA08A6904928A89D1E9078432
:1051B000C0F5807602EA00070B98096910F0010F2C
:1051C00009914FF0000016D000900198002840F29D
:1051D000FF800098012101FA00F20998104018BFE1
:1051E00001200390009A0499002001EB821183466C
:1051F000059100F0E3B8FCF72CF98346DDE90101E5
:105200004843032101EB400020F0030241462046C1
:1052100009F0D7FB5846FCF71CF901984FF0000B3A
:10522000002840F2D5800122099802FA0BF10840CB
:1052300018BF01200021039004988C4600EB8B10CE
:1052400005904DE0012000FA01F20898024244D096
:1052500038F9020B039AA0EB0A000CF1010C002AAA
:105260000CBF09EB0004A9EB00044808059A06905E
:1052700052F82000CA07D50E0090E84082B2C2F36F
:105280000420D3B212F4005F02D0002C02DB03E052
:10529000002C01DD9C1B00E09C19BC4205DD1F2891
:1052A0003ABF0024401C3C4606E0002C04DA0028EB
:1052B000C6BF3C46401E002402F4005242EA0020D1
:1052C0004FF6FF73009AAB4020439A43A84042EA4E
:1052D0000003DDE9050240F82230491C202902D2F2
:1052E00002988445AED301980BF1010B83459AD304
:1052F0006EE0012101FA00F208990A425BD034F90C
:10530000021B039AA1EB0A010BF1010B002A0CBF4F
:105310004944A9EB010138F9022BA2EB0A0214BFA0
:10532000A9EB02024A440029B4BF4B420B46002AB3
:10533000B8BF52429A423ED9059B4208069253F8A2
:105340002220C3074FEAD36E0A9222FA0EF293B2DA
:10535000C3F3042203F0FF0C13F4005F02D0002912
:1053600002DB04E0002902DD0CEB060501E0ACEBFA
:105370000605BD4205DD1F2A3ABF0025521C3D46E9
:1053800006E0002D04DA002AC6BF3D46521E002565
:1053900003F4005141EA022129434FF6FF730A9AB0
:1053A00003FA0EF39A4301FA0EF142EA0103DDE932
:1053B000051241F82230401C202802D202998B4568
:1053C00097D300980199401C00908842FFF401AFE8
:1053D0000B98032826BF0120079007980DB0BDE861
:1053E000F08F2DE9F04F8BB0002205920D794E79A8
:1053F00091F806C00C68CDF808C0B1F90830B1F9D1
:105400000A2006928A690392D1F810C0CA69CDF8C1
:105410001CC08989DDF808C001EA0C07C0F1080149
:105420000091F0B1081EC0F2DF804FF0000A002E9C
:105430007DD9012101FA00F004900098401E01FA84
:1054400000F00A904FF00108079808FA0AF10840A6
:1054500018BF01200021019003988C4600EB8A1BA5
:10546000B4E04FF0000A002E61D94FF00108079810
:1054700008FA0AF1084018BF0120002101900398A2
:105480008C4600EB8A1B4FE0E004011000AF0200E5
:105490005443524601208840204242D032F9028BC8
:1054A00006980CF1010CA8EB0000DDF80480B8F1BF
:1054B000000F0CBF03EB0008A3EB0008480808909E
:1054C0005BF820004FEAC1794FEAD969049020FACD
:1054D00009F080B210F4005F0AD0B8F1000F0FDAC3
:1054E00010F4F85018BFA0F5807040F4005007E0A9
:1054F000B8F1000F04DD10F4F85018BFA0F580706B
:1055000040F080004FF6FF7EDDF810800EFA09FEB5
:1055100028EA0E0800FA09F048EA000808984BF853
:105520002080491C202901D2AC45B3D300E054E0CF
:105530000AF1010AB24598D34FE001208840204289
:1055400041D032F9028B06980CF1010CA8EB000057
:10555000DDF80480B8F1000F0CBF03EB0008A3EBEB
:105560000008480809905BF820004FEAC1794FEA2B
:10557000D969089020FA09F080B210F4005F03D0D6
:10558000B8F1000F07DA02E0B8F1000F03DDDDF833
:10559000108020EA0800DDF80080B8F1000FC4BFD9
:1055A000DDF8288048EA00004FF6FF7EDDF8208015
:1055B0000EFA09FE28EA0E0800FA09F048EA000887
:1055C00009984BF82080491C202901D2AC45B4D35E
:1055D0000AF1010AB245FFF435AF00980028C2BFB6
:1055E00005980BB0BDE8F08F4FF0000B002E45D9A9
:1055F0000298C0F580700090029840F4807001908D
:10560000039A0020014602EB8B1A31E001224FEA97
:10561000184C82404FEA0C4C224226D04FEA5009E7
:10562000C2075AF82980D20E28FA02F39BB2DDF89D
:1056300000E003F0FF0C0CEB5E0EDDF804C0491C2B
:105640000EEA0C0CBC4588BFBC4623F0FF0343EABE
:105650000C034FF6FF7C0CFA02FC28EA0C0C03FA50
:1056600002F24CEA02024AF82920401C202801D20A
:10567000A942CBD30BF1010BB345C1D30120059057
:105680000BB0BDE8F08F2DE9F04F89B000220292F7
:105690000A790F6804924A790092B1F90830B1F999
:1056A0000A608A690592CA6909690391FE49896895
:1056B000A0EB010CCCF1050881424AD84AD10098F0
:1056C0004FF0000A002844D90121039801FA0AFC8E
:1056D0001CEA000018BF01200190059900208446B3
:1056E00001EB8A1B2DE001218140394226D032F99D
:1056F000021B019C891B4FEA19454FEA05450CF135
:10570000010C002C0CBF5D185D1A4FEA500EC1074A
:105710005BF82E90CC0E29FA04F189B2002DC8BF97
:1057200041F4005141F480514FF6FF75A54029EA3C
:105730000505A14045EA01044BF82E40401C2028F5
:1057400002D204998C45CED300980AF1010A824511
:10575000BAD35BE0B8F1000F5DDB00984FF00009B1
:10576000002853D908F10800012101FA00FB401E6E
:1057700001FA00F008900124039804FA09F10840A6
:1057800018BF01200021019005988C4600EB891A72
:1057900034E00120884038422DD032F9020B019CC0
:1057A000801B0CF1010C002C0CBF1C181C1A4808A3
:1057B00007905AF82000CD07ED0E0690E84080B221
:1057C00010F4005F02D0002C04DA01E0002C01DDAF
:1057D00020EA0B00B8F1000FC4BF089C20434FF62D
:1057E000FF7E0EFA05FE069CA84024EA0E04044340
:1057F00007984AF82040491C202902D20498844581
:10580000C7D3009809F101098145B4D3B8F1000F5D
:1058100004BF01200290029809B0BDE8F08F2DE985
:10582000F04FD5B08346002088464990489072B624
:10583000FCF71BF90646FDF7BCFD48B1FDF75CFE21
:105840004990FDF743FEFDF75CFE4890FDF749FEE9
:10585000FCF702F8FBF75CFF4D90FCF714F94C9055
:10586000FBF758FF0120FBF7B0FD50901120FBF72C
:10587000ACFD5190FDF7C0FB4B90FDF7A5FB4FF43D
:105880009350FDF712FB62B6FBF789FD4A900120A9
:10589000FBF77BFD0120FBF7DCFD52900020FBF7BE
:1058A00080FF4F900020FBF771FF4E900020FBF728
:1058B000C2FB53900020044636AF47F82040401CFE
:1058C0000628FAD3DFF8E49116F0020F4FF0010535
:1058D00005D04FF404614846369509F068F816F093
:1058E000010F10D04FF40071714809F060F80120E9
:1058F000FAF7AEFF002818BF38951120FAF7A8FF75
:10590000002818BF3995DFF8ACA1674E369850B320
:105910000020FBF78CFC00909AF800008DF8040042
:1059200065480078012894BF6448654800788DF880
:1059300005000020FBF777FD002818BF4FF0FF306F
:1059400004908DF806807088ADF80800ADF80A4024
:105950000020FBF720FCADF80C004FF04050CDE9E3
:1059600006905848089037984FF0FF0838B3002049
:10597000FBF75DFC09909AF800008DF828008DF87F
:1059800029500D948DF82A807088ADF82C00ADF860
:105990002E400020FBF7FFFBADF830009DF805001E
:1059A00009EB80110F919DF8041048434FF04051CE
:1059B00001EB40011091434901EB40001190DFF8E9
:1059C0000891DFF808A1389858B30120FBF72FFCA5
:1059D0001290FBF705F900280CBF9AF8000099F81F
:1059E00000008DF84C000120FBF72EFC05FA00F0BA
:1059F0008DF84D000120FBF7E8FCC04316908DF8B0
:105A00004E80B088ADF85000ADF852400120FBF751
:105A1000C2FBADF85400264818902D4819902D4827
:105A20001A90399858B31120FBF701FC1B90FBF733
:105A3000D7F800280CBF99F800009AF800008DF8FC
:105A400070001120FBF700FC05FA00F08DF87100E2
:105A50001120FBF7BAFCC0431F908DF87280B0880C
:105A6000ADF87400ADF876401120FBF794FBADF86B
:105A700078001948219019482290194823909DF8E0
:105A80004D000221022809D9042805D99DF84C208F
:105A9000199800EB820019908DF84D109DF8710057
:105AA000022828D904281DE0E0040110004000303D
:105AB00040480030C8040110C7040110C60401109A
:105AC000C904011000200030CA040110CB040110E9
:105AD0004008003040280030C0480030C00A003084
