:100000005446495300010000407902008FCD310071
:1000100010400121180202115339305910400202D8
:100020001802021153393059104001101802021100
:1000300053393059030000000000000000000000A8
:100040005446435300200000785002000000000096
:100050000080011001210000252100002DDB01009E
:10006000292100002B2100002D2100003D2100004E
:100070003D2100003D2100003D2100002F21000016
:10008000312100003D21000033210000115D0000FE
:10009000F75D0000372100003D210000F14C001009
:1000A0003721000001410000074100003D21000010
:1000B0003D2100004B590000A95000000D410000F7
:1000C000D1560000372100003D2100003D210000F5
:1000D0000000000000000000000000000000000020
:1000E0000000000000000000000000000000000010
:1000F0000000000000000000000000000000000000
:1001000000000000000000000000000000000000EF
:1001100000000000000000000000000000000000DF
:1001200000000000000000000000000000000000CF
:1001300000000000000000000000000000000000BF
:1001400000000000000000000000000000000000AF
:1001500000F003F800F020F8FEE70D480168890878
:100160008900002001C101C101C101C17047000027
:1001700094560010FEE7FEE7FEE7FEE7FEE7FEE727
:10018000FEE7FEE7FEE703480047FEE7FEE7000064
:10019000202100003D21000000F002F800F068F886
:1001A0000AA090E8000C82448344AAF10107DA45D2
:1001B00001D100F05DF8AFF2090EBAE80F0013F0BC
:1001C000010F18BFFB1A43F001031847A0F6010006
:1001D00010F701000A444FF0000C10F8013B13F037
:1001E000070408BF10F8014B1D1108BF10F8015B90
:1001F000641E05D010F8016B641E01F8016BF9D183
:1002000013F0080F1EBF10F8014BAD1C0C1B09D1D9
:100210006D1E58BF01F801CBFAD505E014F8016B4B
:1002200001F8016B6D1EF9D59142D6D370470000DD
:10023000103A24BF78C878C1FAD8520724BF30C812
:1002400030C144BF04680C607047000000230024E4
:1002500000250026103A28BF78C1FBD8520728BFD6
:1002600030C148BF0B6070471FB51FBD10B510BD32
:10027000DFF80CD0FFF7F8FF05F01CFC1BF070FC5A
:100280000080011003B4FFF7F1FF03BC1BF070FC0A
:1002900008B5002103200B460A46009119F028FFFB
:1002A00008BD38B5FE4D0024AC81EC812C8219F0DC
:1002B000F2FE2862FF206872FA4823462246046054
:1002C000446004720120A872AC612C706C70032031
:1002D0002146009419F00CFF012038BD38B5F04DCF
:1002E00002286C7A22460DD0052810D0A24208BF01
:1002F00038BD0020034602462146009019F0F8FE62
:100300006C7238BD022914BF01240224EEE70229D1
:1003100014BF64246524E9E738B513460A464FF054
:10032000010C002401466046009419F0E1FE38BD3E
:1003300038B500240BF03AFF002818BF012410F054
:10034000B4FB002818BF0224D5484178A14208BF59
:1003500038BD44700320002301462246009319F063
:10036000C7FE38BDCE498A78824208BF704708B5BB
:1003700002008A704FF003004FF0020118BF012203
:100380000023009319F0B4FE08BDC5490120C870D0
:100390007047C348C0787047C1490020C870704793
:1003A0002DE9F04104460127002503F00700BC4E6B
:1003B0008846012804BF0020308246D0022844D15C
:1003C000308A04280BD2002818BFF06902D119F036
:1003D000F2FFF06110F8011B2170F0612EE0062899
:1003E00008D219F0EAFF318AC1F10501C900C840FD
:1003F000207023E0082808D219F0E3FF318AC1F108
:100400000701C900C840207018E00C2808D219F074
:1004100042FE318AC1F10B01C900C84020700DE0D5
:100420000E2808D219F039FE318AC1F10D01C90038
:10043000C840207002E0FF2020700027308A401C56
:1004400080B230820E2828BF012588F80050384637
:10045000BDE8F08130B403F007000024DFF840C2AB
:1004600001280BD06046BCF810308089022B0CD2DA
:10047000120242EA1020ACF80C0010E0ACF80C407C
:10048000ACF80E40ACF810400CE01844851EB5F5F1
:10049000806F04DADCF82050284400F8022C581C45
:1004A000ACF810000C7030BC00207047F0B4074668
:1004B000002003F007047A4D0646012C04BF2E826B
:1004C0006E6125D0DFF8D8C1022CBCF80EC003D075
:1004D00013F0070F0DD01BE02A8A0CEB0203B3F5D3
:1004E000806F15D2286AC05C3870501C28820120A9
:1004F0000EE0120242EA1C22EA816B69012B05D14F
:10050000B2F5806F24BF40F2FF32EA815A1C6A6163
:100510000E70F0BC704738B503F0070000240D469C
:1005200001280AD15E4821460B4604828481C48199
:1005300002200A46009419F0DBFD2C70002038BD23
:1005400030B50C0058A183B009684FF00002029149
:1005500008BF03250AD0217802AB5D5C002D18BFCF
:10056000022D41D0012D7ED0032D0DD10F21017020
:100570000321417042808280C28002814281828157
:10058000817B21F001018173002D1EBF012D03B07D
:1005900030BD05F0A3FA05281CBF03B030BD0BF039
:1005A000AEFB042804BF03B030BD002D0CBFC0203B
:1005B000C1208DF8000060788DF80100608801236B
:1005C000000A8DF80200A0788DF80300A0880622AA
:1005D000000A8DF8040020798DF80500694607208F
:1005E0000FF0B8FC03B030BD617800EB011202F8E7
:1005F000101C617800EB011101F80F5C62786188D2
:1006000000EB021222F80E1C6278A18800EB0212A5
:1006100022F80C1C6278A17900EB021222F80A1C65
:100620006278217A00EB021222F8081C6278617A63
:1006300000EB021222F8061C6278217B00EB02120A
:1006400022F8041CE1790529617800EB011010F80B
:10065000021C0EBF41F0010121F0010100F8021C53
:1006600092D139E0FFE7617800EB011303F8101C29
:100670006378012100EB031303F80F1C6378618892
:1006800000EB031323F80E1C6378A18800EB03131F
:1006900023F80C1C617800EB011121F80A2C05E00D
:1006A00000840010F487001003000201617800EB61
:1006B000011121F8082C617800EB011121F8062CBA
:1006C000617800EB011121F8042C617800EB011036
:1006D00010F8021C21F0010100F8021C54E76449E3
:1006E0000020087170476248007970476049012016
:1006F000087170475F4A1154704710B582B0017895
:100700008DF8001041788DF8011081788DF8021075
:10071000C1788DF8031001798DF8041041798DF8B6
:10072000051080798DF8060000248DF8074016F03A
:10073000E5F9002804BF9DF800004A2806D19DF87D
:1007400001104B48002918BF047004D068461BF004
:1007500025FA02B010BD012101708169491C816137
:10076000F4E770474249002818BF0120887270479B
:100770003F48807A70473E484079704708B5002866
:1007800014BF012200223A48012142710320002AAD
:1007900018BF01220023009319F0AAFC08BD3448B9
:1007A0004079704732498871704731488079002814
:1007B00018BF0120704701460020072904BF2E48BA
:1007C0007047082908BF2D48704710B44FF0000C3F
:1007D000072808BFDFF8A0C003D0082808BFDFF84B
:1007E0009CC04FF0000093B1002A9CBF10BC704722
:1007F0003CF9103031F91040234403EBD3735B1004
:100800002CF81030401C8242F2D810BC7047002AED
:100810009CBF10BC704731F810302CF81030401CD1
:100820008242F8D810BC704711480078002818BFE1
:10083000012070470E48806970470D4988617047F4
:10084000002818BF01200A49C87170470848C079BC
:10085000002818BF01207047002818BF0120044954
:10086000087270470248007A002818BF01207047BC
:1008700000840010F487001006880010FE87001026
:100880007047FE48D0F8500300F00100704770B583
:10089000FA4D04000AD001F0C8FB38B9D5F850036E
:1008A00010F0010F1CBF0020A86005D10120A86036
:1008B000002C08BF002000D00120286270BDEF4846
:1008C000006A002818BF01207047C00000F1804076
:1008D00000F5A04041637047C00000F1804000F582
:1008E000A040006B00F4807070471021C00000F140
:1008F000804000F5A04041637047E049D1F84021B5
:1009000060F30D22C1F840217047DC48D0F8400167
:10091000C0F30520704700F00F0202EB4202920183
:10092000C0F3031002EB801000F1804000F5A040FE
:100930000029D0F8401114BF41F0010121F001015C
:10094000C0F84011704700F00F0101EB410189012F
:10095000C0F3031001EB801000F1804000F5A040CF
:10096000D0F8400100F00100704700F00F0202EBE8
:1009700042029201C0F3031002EB801000F18040AC
:1009800000F5A0400029D0F8401114BF41F0020149
:1009900021F00201C0F84011704700F00F0101EB97
:1009A00041018901C0F3031001EB801000F1804088
:1009B00000F5A040D0F84001C0F340007047AF49B7
:1009C00000230B6202680A6042684A6082688A609B
:1009D000C268CA60426A0A64826A4A6402698A61B9
:1009E0004269CA61826B0A66826C0A67C26C4A6796
:1009F000026D8A67426DCA67826DC1F88020C26D40
:100A0000C1F88420026EC1F88820426EC1F88C20A3
:100A1000426FC1F8B020C26FC1F8B820C26EC1F8F1
:100A2000A820D0F89422C1F85023D0F89822C1F819
:100A30005423D0F89C22C1F85823D0F8A022C1F842
:100A40005C23D0F88420C1F8F020D0F88820C1F8C9
:100A5000F420D0F88C20C1F8F820D0F89020C1F80C
:100A6000FC2021224A63CA63C2694A62C26A8A645C
:100A7000026BCA64026FC1F8AC20026ACA62426BA0
:100A80000A65C26B4A66026C8A66426CCA66826FED
:100A9000C1F8B420D0F88020C1F8BC20D0F8A4223E
:100AA000C1F86023D0F8A822C1F86423D0F8AC22A2
:100AB000C1F86823D0F8B022C1F86C23D0F8B42272
:100AC000C1F87023D0F8B822C1F87423D0F8BC2242
:100AD000C1F87823D0F8C022C1F87C23D0F88C224A
:100AE00022F48032C1F84023D0F89022C1F84C2380
:100AF000D0F89420C1F80021D0F89820C1F8042142
:100B0000D0F89C20C1F80821D0F8A020C1F80C2111
:100B1000D0F8A420C1F81021D0F8A820C1F81421E1
:100B2000D0F8C820C1F83421D0F8AC20C1F8182181
:100B3000D0F8B020C1F81C21D0F8B420C1F8202191
:100B4000D0F8B820C1F82421D0F8BC20C1F8282161
:100B5000D0F8C020C1F82C21D0F8C420C1F8302131
:100B6000D0F8CC20C1F84021D0F8D020C1F84421E1
:100B7000D0F8D820C1F84C21D0F8E420C1F8602189
:100B8000D0F8E820C1F86421D0F8EC20C1F8682141
:100B9000D0F8F020C1F86C21D0F8D420C1F8482159
:100BA000D0F8DC20C1F85021D0F8E020C1F8542161
:100BB000D0F8F420C1F87021D0F8F820C1F87421E1
:100BC000D0F8FC20C1F87821D0F80021C1F87C21B0
:100BD000D0F83C21C1F8C021D0F84021C1F8C4218F
:100BE000D0F84421C1F8C821D0F84821C1F8CC215F
:100BF000D0F84C21C1F8D021D0F85021C1F8D4212F
:100C0000D0F87021C1F8F421D0F85421C1F8D821CE
:100C1000D0F85821C1F8DC21D0F85C21C1F8E021DE
:100C2000D0F86021C1F8E421D0F86421C1F8E821AE
:100C3000D0F86821C1F8EC21D0F86C21C1F8F0217E
:100C4000D0F87421C1F80022D0F87821C1F804222C
:100C5000D0F88021C1F80C22D0F88C21C1F82022D4
:100C6000D0F89021C1F82422D0F89421C1F828228C
:100C7000D0F89821C1F82C2202E00000005000407A
:100C8000D0F8AC21C1F84022D0F8B021C1F84422FC
:100C9000D0F8B821C1F84C22D0F8C421C1F86022A4
:100CA000D0F8C821C1F86422D0F8CC21C1F868225C
:100CB000D0F8D021C1F86C22D0F87C21C1F80822EC
:100CC000D0F88421C1F81022D0F88821C1F814226C
:100CD000D0F89C21C1F83022D0F8A021C1F83422EC
:100CE000D0F8A421C1F83822D0F8A821C1F83C22BC
:100CF000D0F8B421C1F84822D0F8BC21C1F8502264
:100D0000D0F8C021C1F85422D0F8D421C1F8702203
:100D1000D0F8D821C1F87422D0F8DC21C1F87822AB
:100D2000D0F8E021C1F87C22D0F8E421C1F880227B
:100D3000D0F8E821C1F88422D0F8EC21C1F888224B
:100D4000D0F8F021C1F88C22D0F8F421C1F890221B
:100D5000D0F8F821C1F89422D0F81822C1F8B422B2
:100D6000D0F8FC21C1F89822D0F80022C1F89C22CA
:100D7000D0F80422C1F8A022D0F80822C1F8A42299
:100D8000D0F80C22C1F8A822D0F81022C1F8AC2269
:100D9000D0F81422C1F8B022D0F81C22C1F8C02229
:100DA000D0F82022C1F8C422D0F82822C1F8CC22E1
:100DB000D0F83422C1F8E022D0F83822C1F8E42279
:100DC000D0F83C22C1F8E822D0F84022C1F8EC2249
:100DD000D0F85422C1F80023D0F85822C1F80423D7
:100DE000D0F86022C1F80C23D0F86C22C1F820237F
:100DF000D0F87022C1F82423D0F87422C1F8282337
:100E0000D0F87822C1F82C23D0F82422C1F8C822C7
:100E1000D0F82C22C1F8D022D0F83022C1F8D42248
:100E2000D0F84422C1F8F022D0F84822C1F8F422C8
:100E3000D0F84C22C1F8F822D0F85022C1F8FC2298
:100E4000D0F85C22C1F80823D0F86422C1F810233E
:100E5000D0F86822C1F81423D0F87C22C1F83023DE
:100E6000D0F88022C1F83423D0F88422C1F8382386
:100E7000D0F88822C1F83C23FD4A126832F0FF0CFA
:100E800005D1D1F890C062F3030CC1F890C0F94AC3
:100E90005370D0F8943213F0010F1CBF012353702C
:100EA000D1F8503323F00103C1F85033D0F8A43205
:100EB00013F0010F03D0537843F002035370D1F8BD
:100EC000603323F00103C1F86033D0F8B43213F07B
:100ED000010F03D0537843F004035370D1F87033FB
:100EE00023F00103C1F87033D0F8AC0210F0010F09
:100EF00003D0507840F008005070D1F8680320F01B
:100F00000100C1F868037047DA4800787047D94893
:100F100080787047D749C8707047D648C078704706
:100F2000D549D1F8542360F30902C1F8542370471E
:100F3000D148D0F85403C0F309007047CD49486048
:100F40007047CD48C06870472DE9F047DFF824931B
:100F5000054615F4003F99F8010099F8031000EADE
:100F6000010418BF24F0010415F4802F18BF24F0E9
:100F7000020415F4002F18BF24F0040415F4801F98
:100F800018BF24F00804DFF8F082D8F8400320F4FA
:100F90008030C8F8400314F00F0F65D0D9F8046012
:100FA000D8F84803002740F00100C8F84803D8F8F3
:100FB000480320F00100C8F84803D8F8400340F483
:100FC0008030C8F840034FF0630A0DE002F031FFB3
:100FD0005046D8F8481311F0010F01D0012703E063
:100FE000011EA0F10100F4DC301EA6F1010601DDB6
:100FF000002FEBD0BFB3D8F8500314F0010F0CBF93
:1010000020F0010040F00100C8F85003D8F8600358
:1010100014F0020F14BF40F0010020F00100C8F8E6
:101020006003D8F8700314F0040F14BF40F00100FF
:1010300020F00100C8F87003D8F8680314F0080F16
:1010400014BF40F0010020F00100C8F8680389F8DF
:101050000240012089F80000D8F8400340F48030B5
:10106000C8F840033AE0FFE7D8F8500320F0010049
:10107000C8F85003D8F8600320F00100C8F86003F6
:10108000D8F8700320F00100C8F87003D8F868039E
:1010900020F00100C8F86803002089F80200ACB114
:1010A000022089F80000D8F8400340F48030C8F8E6
:1010B0004003D8F8480340F00100C8F84803D8F8C6
:1010C000480320F00100C8F8480307E0D8F84013AF
:1010D00021F48031C8F8401389F80000D8F84001A5
:1010E00015F0020F20F00D0018BF40F0010015F0C0
:1010F000080F18BF40F0040015F0040F18BF40F0AF
:101100000800C8F8400115F0010F21D001F0C5F921
:10111000044601F0C5F90146D8F80C0000280EBFBE
:101120002046084621460028D8F8000214BF40F0A7
:10113000010020F00100C8F80002D8F840020029A0
:1011400014BF40F0010020F00100C8F840020BE09D
:10115000D8F8000220F00100C8F80002D8F84002D8
:1011600020F00100C8F8400215F0200F18BF00243D
:1011700017D0204601F09BF900284FEA841000F1B7
:10118000804000F5A040D0F8C01214BF41F001012A
:1011900021F00101C0F8C012641C022CE9D3BDE8A3
:1011A000F087D8F8C00220F00100C8F8C002D8F8D3
:1011B000000320F00100C8F80003BDE8F0872DE926
:1011C000F003024602F00F01002001EB41018C0107
:1011D000C2F3031104EB811101F1804101F5A0413B
:1011E000D1F8401111F0010F11D142F01001C1F3FB
:1011F000031104EB811101F1804101F5A041D1F807
:10120000401111F0010F04BFBDE8F003704702EB7D
:1012100042018E0106F1804101F5A041D1F824314F
:10122000C3F30809144BDB69D1F8001103F0080778
:101230001FFA81F8002142EA0113C3F3031304EB00
:10124000831303F1804303F5A043D3F8403113F037
:10125000010F20D006EB811303F1804303F5A04377
:10126000D3F844C1CCF3080517F1000C06E00000E8
:10127000E0FE030024840010005000401CBFD3F89F
:1012800044C1CCF3023CD3F8403105FA0CFCC3F363
:10129000054360441844491C0229CCD309EBC90119
:1012A00000FB08F001EB0911BDE8F00300EB410081
:1012B000704710B50120FFF782FF04460220FFF7B8
:1012C0007EFF044400F097FC20444FF47A714843B9
:1012D0004CF25031B0FBF1F010BD2DE9F041FE4E63
:1012E0000546306810F01F0408BF01240120FFF7F5
:1012F00066FF07460220FFF762FF074400F07BFC11
:101300003918F64F002D18BF002959D0D6F85003D0
:10131000002210F0010FF248A0FB05C04FEA501068
:1013200033D07823B3EB151F08D9D6F85C0320F02F
:101330000F0040F00100C6F85C0334E0D6F85433E7
:10134000DFF8A0C3C3F3090363436FF018056B43D1
:101350000CEB43034FEA101CB3FBF1F0102828BF3D
:101360000F20844598BF6046002808BF012005D0A3
:10137000012884BF00FB1132B2FBF0F2D6F85C33D7
:1013800060F30303C6F85C330DE0D6F85C33C0F3BA
:10139000031023F00F031843C6F85C03B7FBF5F006
:1013A000884288BF421A32206043B2FBF0F0B0F5A9
:1013B000005F28BF41F6FF70726860F30C02726034
:1013C0007068C0F30C00604300EBC00202EB001039
:1013D00001EB4000B7FBF0F0BDE8F081BE48D0F86B
:1013E000501311F0010F07D0D0F85C0300F00F008C
:1013F000C0EB00108001704770B50168406801F0D3
:101400001F05C0F30C060120FFF7D9FE0446022099
:10141000FFF7D5FE044400F0EEFB06FB05F1322297
:1014200001FB02410844AD49B1FBF0F070BDAA4890
:10143000D0F85C0300F00F007047A7494A684B687A
:10144000C2F30C0260F30C034B6010467047A248D5
:101450004068C0F30C00704700EB4000800100F1D1
:10146000804000F5A040D0F800019F4980B2B1FB58
:10147000F0F0401C4008704730B49B4B31B1B3FBD7
:10148000F1F1491C4A08B2F5804F01D343F6FF72CF
:10149000B3FBF2F1491C4D088F494FEA520C51F849
:1014A000803F096803F00704C1F3031300EB400118
:1014B000890101F1804101F5A04118B3D1F804017F
:1014C000DB1C634380B2A2EB4303D1F8004123F05D
:1014D000010362F30F04C1F80041D1F800216CF35D
:1014E0001F42C1F80021D1F8042160F30F02C1F8B6
:1014F0000421D1F8180163F30F00C1F81801284640
:1015000030BC7047DB1CACF106006343A0EB430327
:10151000DBE700EB4000800100F1804000F5A040D7
:10152000D0F80001000C704700EB4002920102F17C
:10153000804202F5A042D2F8003161F31F43C2F8A5
:101540000031002818BF7047634A52F8800F00F03E
:10155000070C52F81C0BC0F30313881FD91C01FBA6
:101560000CF1A0EB4101936E21F0010160F30F0338
:101570009366D06F61F30F00D067704700F00F01E2
:1015800001EB41018901C0F3031001EB801000F170
:10159000804000F5A040D0F84401C0F30800704737
:1015A00000F00F0202EB42029201C0F303104F4B16
:1015B00002EB801000F1804000F5A0409B58D0F86D
:1015C0004421CB1A61F30802C0F84421D0F8441139
:1015D0009B1E63F31841C0F8441170473E49C96926
:1015E000434A11F0100F00F00F0101EB41014FEAE7
:1015F0008111C0F3031001EB801000F1804000F571
:10160000A0405258D0F84401D2B2C0F3080008BF3D
:101610000022801A0004000C08BF01207047030953
:101620001B0203EB810101F1405101F5404100072C
:10163000C00E0B6802FA00F01843086070470209F8
:10164000120202EB810101F1405101F54041000716
:101650000968C00E21FA00F000F00300704700F0A6
:101660000F0303EB43039B01C0F3031003EB801054
:1016700000EB810000F1804000F5A040C0F850214F
:10168000704700F00F0202EB42029201C0F3031018
:1016900002EB801000EB810000F1804000F5A040DB
:1016A000D0F8500170470C4A0021D26912F0080F9F
:1016B00010D000F00F0101EB41018901C0F30310CC
:1016C00001EB801000F1804000F5A040D0F844010B
:1016D000C0F3023108467047005000400008AF2FA9
:1016E00089888888D8810C00A08601001C510040A0
:1016F00028510040F94AD36943F00803D36100F050
:101700000F0202EB42029201C0F3031002EB8010C1
:1017100000F1804000F5A040D0F8442161F30E3282
:10172000C0F844217047ED4A0021D26912F0080F39
:1017300010D000F00F0101EB41018901C0F303104B
:1017400001EB801000F1804000F5A040D0F8480186
:10175000C0F302410846704700F00F0202EB42025C
:101760009201C0F3031002EB801000F1804000F5FD
:10177000A040D0F8482161F31242C0F848217047D8
:10178000042988BF704710B40023D44CE26912F0DA
:10179000080F00F00F0202EB42024FEA8212C0F380
:1017A000031002EB801000EB04021CBFD2F84401CE
:1017B000C0F302330020D4F81CC01CF0080F1CBF7B
:1017C000D2F84801C0F30240C91A0844042803DDD6
:1017D000081A011D042003E00028BCBF01440020BA
:1017E0001944E36943F00803E361D2F8443161F33B
:1017F0000E33C2F84431D2F8481160F31241C2F8F6
:10180000481110BC7047B5490028886914BF40F0E2
:10181000080020F0080088617047B0488069C0F374
:10182000C0007047AD490028886914BF40F002002D
:1018300020F0020088617047A8488069C0F340002A
:10184000704700F00F0202EB42029201C0F3031056
:1018500002EB801000F1804000F5A040C0F84C1170
:10186000704700F00F0101EB41018901C0F3031043
:1018700001EB801000F1804000F5A040D0F84C0151
:101880007047964AD2F85C13022903D110F0010F79
:1018900018BF7047D2F8400110F0010F0BD0D2F8FA
:1018A0004C01D2F844110028C1F302311EBF0029B7
:1018B000C043C2F84C01012101EB410100204FEA75
:1018C000811C0CEB801101F1804101F5A041D1F8A0
:1018D000402112F0010F0BD0D1F84C21D1F8443146
:1018E000002AC3F302331EBF002BD243C1F84C21A0
:1018F000401C0228E5D37047784A0021D26912F0D3
:10190000080F10D000F00F0101EB41018901C0F375
:10191000031001EB801000F1804000F5A040D0F8EA
:101920004801C0F300510846704701207047F0B4E9
:10193000022ADDE9044C069E26BF921E52080022B0
:10194000022B26BF9B1E5B080023654DA5FB04549C
:101950002709BCF1020F0CBF0124002400F00F0581
:1019600005EB4505AD01C0F3031005EB801000F158
:10197000804505F5A045D5F86401002E61F31B6094
:1019800062F3144063F30C2067F307006CF38F30AD
:1019900014BF40F4005020F40050002C14BF40F459
:1019A000001020F40010C5F86401F0BC70472DE968
:1019B000F00700F00F0606EB4606B601C0F3031071
:1019C00006EB801000F1804000F5A040DDE90754EF
:1019D000DDF824C0D0F864010029C0F3036AC0F325
:1019E0000449C0F38137C0F34036C0F30428C0B2C5
:1019F00018BFC1F800A01AB14FEA4901891C116053
:101A00001BB14FEA4801891C19601DB100EB800031
:101A100080002860002C18BF2760BCF1000F18BFA1
:101A2000CCF80060BDE8F00770472C490028C86971
:101A300014BF40F0200020F02000C8617047274804
:101A4000C069C0F34010704770B491B000224FF4E9
:101A500080456C10EC4601E0082A05D2531C03EBCC
:101A60008303B5FBF3F304E0D31F03EB8303B4FB61
:101A7000F3F35B1A48BF5B424CF82230521C102A29
:101A8000EAD30026009B01215CF821209A42BCBFCA
:101A900013460E46491C1029F6D300F00F0101EB46
:101AA00041018901C0F3031001EB801000F1804176
:101AB00001F5A041D1F86801D1F8682100F00F00CC
:101AC00066F30302C1F8682108280BD2401C00EB22
:101AD0008000B5FBF0F011B070BC704700500040C2
:101AE000CDCCCCCCC01F00EB8000B4FBF0F0F2E713
:101AF00000F00F0101EB41018901C0F3031001EB7C
:101B0000801000F1804000F5A040D0F8680100F09E
:101B10000F00082834BF401CC01F00EB800034BFFA
:101B20004FF480414FF40051B1FBF0F0704710F0DA
:101B30000F0F08BF704700F00F0000EB400080015E
:101B400000F1804000F5A0400029D0F82C110CBF16
:101B500021F4803141F48031C0F82C11704700210C
:101B600010F00F0F0ED000F00F0000EB40008001CE
:101B700000F1804000F5A040D0F82C0110F4803F27
:101B800018BF01210846704700F00F0000EB40002D
:101B9000800100F1804202F5A042D2F83401C2F87F
:101BA000341170472F4B58679967DA6770472D4992
:101BB0000028D1F8AC0014BF40F0020020F0020071
:101BC000C1F8AC00704727490028D1F8AC0014BF19
:101BD00040F0010020F00100C1F8AC00704721483E
:101BE000D0F8E00070471F49C1F8E40070471D4875
:101BF000D0F89800704770B41A4E0020D6F8401103
:101C000011F0010F04BF70BC704711F0040FD6F83B
:101C1000242101F00805D6F800C1C2F308021FFA1A
:101C20008CF4D6F844C1CCF3080C18BFC1F30740BC
:101C3000F369C1F3052113F008031CBFD6F8443142
:101C4000C3F30233002D18BF491C0CFA03F301FB48
:101C50000300604302EBC20170BC01EB021100EB18
:101C60004100704700500040FEF729BE10B5FEF756
:101C700026FE012818BF10BD0020FEF708FE212116
:101C80000020FEF722FE2121BDE810400120FEF7D2
:101C90001CBE10B5FEF7F4FDFEF711FE01280AD1B7
:101CA0000020FEF7F4FD21210020FEF70EFE212189
:101CB0000120FEF70AFE0121052001F004FC0121AC
:101CC000052001F000FCF8490020087110BD10B596
:101CD0004FF4066001F04DFCBDE810404FF4066083
:101CE00001F038BCF04A0146107B002818BF0120E3
:101CF000002918BF012111737047EB4A516A5062E5
:101D000008467047E8490020C872887048707047DC
:101D1000E5490020C87288704870704770B50007A8
:101D2000C00E0D46801E00EB400101EB0014DF48A1
:101D30004FF4987200EBC400294619F034FFDC48D8
:101D400005F5987100EBC400BDE870404FF498723F
:101D500019F029BF2DE9F0410546FEF7D6FDD54F14
:101D6000DFF854830446EDB14C2004FB00F2164624
:101D70002946384619F017FF324605F500614046FE
:101D800019F011FF04EB440000EB041407EB84008E
:101D90004C2119F00DFF08EB8400BDE8F0414C2107
:101DA00019F006BF4C21401C41430C46384619F03F
:101DB000FFFE21464046BDE8F04119F0F9BE10B5DE
:101DC000B94CE061FFF7C0F8FFF79EF8A1696FF327
:101DD0000F01A161A269C1B242EA0121A1610228F9
:101DE00018BF10BDA06940F00100A06110BDB3484C
:101DF0008168B34A114381600168521C114301603C
:101E000000F055BE2DE9F041AC4A0C4605469368FA
:101E1000AB48184390601068AA490843106000F06E
:101E200046FE0026002C7DD00020FEF730FD206805
:101E300020B1FEF7C4FD0020FEF729FD2846FFF77C
:101E4000BEFF0020FEF77FFD002835D06068FFF759
:101E500081FF9D48E36853B1A1694FF4407C4A4239
:101E60000CEB820203EB810119F09DFE1DE0974D02
:101E70004FF4407119F09CFE0020012329560029DF
:101E800010DB0A09120202EB800202F1405202F555
:101E900040420907C90ED2F800C003FA01F14CEA2A
:101EA00001011160401C2628E8D38948616959B1B5
:101EB0004FF4007219F077FE0120FEF744FDDFF8C1
:101EC000EC817B4F48B904E04FF4007119F070FECB
:101ED000F2E71120FEF737FD70B1A56865B1404605
:101EE0004FF49872294619F05EFE38464FF4987206
:101EF00005F5987119F057FE0220FEF724FD18B978
:101F00001220FEF720FD68B124695CB171484FF4DE
:101F10009872214619F047FE6F484FF4987204F505
:101F2000987100E001E019F03EFE5F48C6728670CD
:101F300046704662017B002101734FF4066001F098
:101F400018FBBDE8F0414FF4066001F003BB10B58B
:101F50000020FEF79CFC00F097FD5348C078002855
:101F600008BF10BD5548016821F0030141F00D7113
:101F700041F080510160816821F0020141F00D7152
:101F800041F08051816010BD4FF4066001F0E7BA66
:101F900010B54FF4066001F0E2FAFEF790FC01285C
:101FA0000AD10020FEF773FC21210020FEF78DFCF2
:101FB00021210120FEF789FC4848D0F8401321F484
:101FC0008031C0F840130020FEF761FC00F05CFD9A
:101FD0003548C078002808BF10BD3848016821F096
:101FE000030141F00D7141F080510160816821F0E1
:101FF000020141F00D7141F08051816010BD10B5BA
:1020000001F0B2FA10F0600018BF012010BD2648A0
:10201000C069704724488069704772B622498A694E
:1020200022EA0000886162B670471F4800780028E5
:1020300018BF0120704770B5FEF741FC002818BF9B
:1020400070BD0024184DEC72AC706C7021212046DC
:10205000FEF73BFC21210120FEF737FC2C70BDE888
:1020600070400120FEF713BC70B50446FEF727FC54
:10207000002818BF70BD00210B4DE972A97069706E
:1020800021210020FEF721FC21210120FEF71DFC6B
:10209000022C3CBF0120FEF728FC012028702C6296
:1020A000BDE87040FEF7F3BB2C840010189D003093
:1020B00018BD00300080003000A0003000800040DB
:1020C000020034120300341200C000300E880010E9
:1020D00000D00030489E003048BE00300050004024
:1020E00010B5FEF7ECFB002818BF10BD0020FE4C19
:1020F000E072A07060702121FEF7E7FB2121012032
:10210000FEF7E3FB0120FEF7F0FB012020702062C8
:10211000BDE81040FEF7BBBB0020FEF7B8BBF2499C
:102120000020887048700120FEF7B1BBEE4988623C
:102130007047ED48806A7047002818BF0120EA49BF
:10214000C8627047E848C06A002818BF012070477D
:10215000002000F0D2BB012000F0CFBB10B5FFF78C
:102160003EFD0446FFF73FFDE048044208BF10BDB6
:10217000DD48816941F0040181610E2101EAD43119
:1021800004F001020A43816962F31F418161D8486A
:10219000016841F02001016010BD002818BF012036
:1021A000D149C8707047D3487047D3487047CE486C
:1021B000006B7047CC484179C279914214BF406BA3
:1021C000806B7047C848806B70472DE9F04FC94F4E
:1021D0004FF0000C8DB007F14C04E6464FF0FF388D
:1021E00007F80C8004F80CE00CF1010CBCF1260F90
:1021F000F6DB4FF0000C002807DD12F80C5007F852
:102200000C500CF1010C6045F7DC00220126CDF8E2
:1022100004E06D46CDF800E0002816DD17F902C095
:10222000BCF1000F0EDBBCF1260F0BD24FEA5C199C
:102230000CF01F0C55F829A006FA0CFC4AEA0C0C0D
:1022400045F829C0521C8242E8DB002294460DF179
:1022500008094FEA521A02F01F0B55F82AA006FA95
:102260000BFB1AEA0B0F1ABF09F802C00CF1010CA4
:1022700009F80280521C262AEBDB0022002810DD20
:1022800017F902C0BCF1000F08DBBCF1260F3ABF02
:1022900019F80CC004F802C004F80280521C8242F3
:1022A000EEDBDFF844A200220028CAF830E009DDA6
:1022B00014F902C0944502D0CAF8304002E0521C22
:1022C0008242F5DBDFF834B20020ABF1720404F196
:1022D0004C0704F8008007F800E00BF800E0401C11
:1022E0002628F6DB0020002904DD1A5C2254401C5D
:1022F0008142FADC0020CDF804E0CDF800E00029AE
:1023000012DD2256002A0CDB262A0AD2530902F0DB
:102310001F0255F823C006FA02F24CEA020245F801
:102320002320401C8842ECDB00200246430900F0D9
:102330001F0C55F8233006FA0CFC13EA0C0F1ABFD9
:1023400009F80020521C09F80080401C2628EDDB0B
:10235000002000290BDD2256002A05DB262A3CBF7F
:1023600019F802200BF80020401C8842F3DB002003
:10237000CAF838E0002909DD1BF90020824202D0AA
:10238000CAF838B002E0401C8842F5DB11F0010FBA
:1023900018BF252015D0420900F01F0355F8222050
:1023A00006FA03F31A420AD1420900F01F0055F859
:1023B000223006FA00F0184345F8220001E0401EE2
:1023C000E9D500200246430900F01F0C55F82330E0
:1023D00006FA0CFC13EA0C0F1ABF09F80020521C75
:1023E00009F80080401C2628EDDB002000290ADDCA
:1023F0002256002A04DB262A3CBF19F802203A5450
:10240000401C8842F4DB0020CAF834E00029DCBF1D
:102410000DB0BDE8F08F3A56824204D0CAF834704D
:102420000DB0BDE8F08F401C8842F4DB0DB0BDE874
:10243000F08F40F2DB114843314901EB80007047D7
:102440003049C0EB001001EBC0007047DFF898C0C6
:10245000012B8CF805008CF8061003D9401C20F0E5
:10246000010011468CF807008CF8081000FB01F2FF
:102470004FF6FF7101EA4202ACF8122001EA400077
:10248000ACF8140070471848007A70471648C079B5
:102490007047154A5072917270471348807A70479E
:1024A0001148407A7047184A1070517070471649A9
:1024B000085C70472DE9F047DFF82C90044699F846
:1024C0000C00002804BF99F8010019F076FB99F878
:1024D0000B00002808BFBDE8F0874FF00008474612
:1024E0004646454612E000002C840010010007001B
:1024F0006C8400100E88001034880010A68800102C
:102500002C1E01109825011039840010D9F81C00E8
:1025100010F0020F1CBFDFF80C8410F0040F05D080
:10252000B9F81210FF4A21F001018F1810F0010FC5
:1025300018BFFD4E10F0200F18BFFC4DD9F8280031
:102540002060FEF7E4FC10F0010F06D0FEF76FFFED
:10255000022828BF99F8020000D20020E760C4E9F1
:102560000108C4E904650120BDE8F087F0490020B6
:10257000C872704770B50546FEF7C7F94C2100FBDD
:1025800001F21446EB49284619F00DFB224605F5E9
:102590000060BDE87040E84919F005BBF0B583B0B4
:1025A000FEF7B3F9044600210846FFF76AF80090E9
:1025B00001210020FFF765F800220190002C2AD9A4
:1025C0006E464FF0010C4FF6F07502EB4200002111
:1025D00000EB02104B0901F01F0756F823300CFAEC
:1025E00007F73B4211D0CB079B0C03EB80034F084E
:1025F00003EB870303F1405303F500431B889BB2B1
:10260000AB4202D903B00020F0BD491C2629E1D31A
:10261000521CA242D9D303B00120F0BD70B50D46C3
:102620000107C80E811E01EB410000EB0114C348F5
:102630004FF4987200EBC401284619F0B4FAC04870
:102640004FF4987200EBC40105F59870BDE8704036
:1026500019F0A9BA2DE9F04F00F00F07780083B008
:10266000A0F1020B0025E9464FF001084FF6F07685
:1026700047EA051A5046FEF766F9002843D050464F
:10268000FFF711F808FA00F4022C88BF0224002199
:102690005046FEF7F6FF009001215046FEF7F1FF8D
:1026A00000210190002C2ED90BEB0500982200FB95
:1026B00002FA01EB4102002002EB011C420900F08A
:1026C0001F0359F8222008FA03F31A4215D000F02C
:1026D00001020AEB423202EB8C02430802EB830256
:1026E00002F1405202F51042B2F8182D92B2B242F5
:1026F00003D903B00020BDE8F08F401C2628DDD3AD
:10270000491CA142D5D36D1C022DB1D303B00120C9
:10271000BDE8F08F2DE9F0410026854D00280C46DC
:1027200040D000F00F01C0F3031001290EBF0021BB
:102730000229BDE8F081022828BFBDE8F0810F180A
:10274000FEF7BDF85FEA00081CBF0020FEF79FF807
:102750000023982007FB00FC03EB4300002200EB62
:10276000031702F001000CEB4030510800EB87002A
:1027700000EB810000F1405000F51040521CC0F801
:10278000184D262AEDD35B1C022BE5D3B8F1000FC0
:1027900008BFBDE8F081AE706E70BDE8F041012069
:1027A000FEF775B8FEF78BF85FEA00081CBF002043
:1027B000FEF76DF8002303EB4300002200EB031C3F
:1027C000D007800C510800EB8C0000EB810707F16B
:1027D000405707F50047521C3C60262AF0D35B1C8B
:1027E000312BE8D3B8F1000FD5D1BDE8F08110B599
:1027F000FEF7F4FE4E49088210BD4D4AC1B200F406
:102800007F43128A914288BF11464FF0640C01FB4E
:102810000CF1B1FBF2F11A0A02FB0C1110F4803F2B
:1028200012BF08B2484200B2704710B54FF4407171
:10283000444C454819F0BCF90020012321560029D9
:1028400010DB0A09120202EB800202F1405202F58B
:1028500040420907C90ED2F800C003FA01F14CEA60
:1028600001011160401C2628E8D310BD10B5354C7D
:102870004FF44071344819F09BF900200123215690
:10288000002910DB0A09120202EB800202F1405219
:1028900002F540420907C90ED2F800C003FA01F15F
:1028A0004CEA01011160401C2628E8D341F67871FA
:1028B000204819F07DF9BDE8104041F678711E48B6
:1028C00019F076B91A4810B5808B00F48170FFF7C3
:1028D00076FA4FF440711C4819F06AF941F6185124
:1028E000144819F065F941F61851134819F060F9C8
:1028F000BDE810400020FEF7A0BD70B50C4C0546A9
:10290000A06A401CA062E16A002918BFFEF7B9FF67
:102910002078F8B1206A10B1206A401E2062206A37
:10292000002813E02C1E01109825011088260110A4
:102930002C8400100080003000A00030189D003072
:1029400018BD00300E88001000C0003004BF002009
:10295000FDF79DFF20212846FDF7B7FF616A00299A
:102960001CBF28468847FEF7CFFA022815D10E482B
:10297000D0F8481311F0010F0FD0D0F8481341F0F0
:102980000101C0F84813D0F8481321F00101C0F844
:102990004813A06940F00200A0610448016841F0BA
:1029A0002001016070BD0000005000406C840010E8
:1029B0002DE9F0410027644D0126002808BF2E7044
:1029C0001FD001282F7018BF6F701AD0DFF87C81DC
:1029D000D8F800005E490843C8F8000029785D4C2B
:1029E000002914BF49F608305B48E06014BF5B481B
:1029F0004FF0BB70A0605A48006830F0FF0206D16B
:102A000001E06E70E2E7E26860F30302E26051B158
:102A1000A06840F01800A060012000F073F8A068E2
:102A200040F48050A060012000F06CF8687818B184
:102A3000E06840F03000E060D4F8B00040F0010001
:102A4000C4F8B000012000F05DF8E6674FF4E060E4
:102A50002061C4F888702878002818BFC4F89460F2
:102A6000E06820F03000E060A06820F48050A060B2
:102A7000D8F8000020F0040040F00D7040F08050C5
:102A8000C8F80000BDE8F0813248C16821F030018B
:102A9000C160816821F4805181602C48016821F077
:102AA000040141F00D7141F08051016070472748E9
:102AB0000268274911430160234926480A783AB140
:102AC000826842F018028260826842F4805282601A
:102AD000497819B1C16841F03001C160D0F8B01037
:102AE00041F00101C0F8B01070471E49C0F3080062
:102AF00041EA002017490864704716494FF020400A
:102B00000864704782B040F24C42009013E000BF6E
:102B100000BF00BF00BF00BF00BF00BF00BF00BFBD
:102B200000BF00BF00BF00BF00BF00BF00BF0198D3
:102B3000411E0191EBD20098411E009128BF0192E5
:102B4000F5D202B070470000688400100080004099
:102B5000040034120060004005F4010020009B00D6
:102B6000D0FE0300130000A0424841498161891C46
:102B7000C1614A1E4263036823F0030343F00D73EF
:102B800043F080530360436923F0010343F00D7366
:102B900043F08053436103691A430261364A8260FD
:102BA000364AC260C2681143C160354900200860DE
:102BB000704710B501F035F931480468002C08BFA2
:102BC00030BFFAD00021016001F02FF9204610BD7E
:102BD00010B501F026F92648294B2649421C1C68ED
:102BE0002CB10020186001F020F9204610BD72B60B
:102BF00048638A6120BF88614A6362B6BFF36F8F02
:102C0000BFF34F8FEBE71B48016821F0030141F050
:102C10000D7141F0805101601A49816001691A4AC1
:102C20001143016130BF704772B6114911484163C9
:102C3000C91CC161891E816162B670470D48016877
:102C4000124A1143016070470A48016821F00301EC
:102C500041F00D7141F080510160704772B6044936
:102C600004488161891CC161491E416362B6704795
:102C700000003412008000403C003412280034125E
:102C80006C84001008003412010034120300341266
:102C9000704770470022B2EBD10F26D20368B3F120
:102CA000FF3F04BF4368B3F1FF3F17D18368B3F11F
:102CB000FF3F04BFC368B3F1FF3F0FD10369B3F116
:102CC000FF3F04BF4369B3F1FF3F07D18369B3F10D
:102CD000FF3F04BFC369B3F1FF3F01D0002070473D
:102CE0002030521CB2EBD10FD8D30120704710B462
:102CF0000023B3EBD20F30D2D0F800C00C68A4454B
:102D000022D1D0F804C04C68A4451DD1D0F808C029
:102D10008C68A44518D1D0F80CC0CC68A44513D158
:102D2000D0F810C00C69A4450ED1D0F814C04C697D
:102D3000A44509D1D0F818C08C69A44504D1D0F8B5
:102D40001CC0CC69A44502D010BC002070472030C4
:102D500020315B1CB3EBD20FCED310BC01207047E7
:102D60002DE9F041054601F064F8002021264FF4DA
:102D7000825784464FF4E0221660C5F800C01168FF
:102D800041F004011160116811F0040FFBD11760CC
:102D900080232C460021D4F80080B8F1FF3F04BF07
:102DA000D4F80480B8F1FF3F1DD1D4F80880B8F101
:102DB000FF3F04BFD4F80C80B8F1FF3F13D1D4F823
:102DC0001080B8F1FF3F04BFD4F81480B8F1FF3F82
:102DD00009D1D4F81880B8F1FF3F04BFD4F81C80A3
:102DE000B8F1FF3F08D0C2F800C0401CC0B20828AC
:102DF000C2D30220BDE8F081491C2034B1EBD30FCF
:102E0000C9D3C2F800C00120BDE8F0812DE9F0412E
:102E1000054601F00EF80020092684464FF4E02311
:102E20001E60C5F800C0196841F0040119601968F6
:102E300011F0040FFBD12C464FF48062002127686B
:102E4000B7F1FF3F04BF6768B7F1FF3F17D1A7682D
:102E5000B7F1FF3F04BFE768B7F1FF3F0FD1276924
:102E6000B7F1FF3F04BF6769B7F1FF3F07D1A7691B
:102E7000B7F1FF3F04BFE769B7F1FF3F08D0C3F8E0
:102E800000C0401CC0B20328CAD30220BDE8F081B4
:102E9000491C2034B1EBD20FD1D3C3F800C00120BC
:102EA000BDE8F0812DE9F05F8846814604274FF0A8
:102EB0007F0A4FF0020B4FF4E02600F0BAFF4946BC
:102EC000424653464FF0060CC6F800B052F8040BC9
:102ED00041F8040BC6F800C0306810F0040FFBD1B5
:102EE0005B1EF1D2002030604C4645461F20D4E9DD
:102EF00000C3D4E90221D5F800E0E64504BFD5F8C7
:102F000004C09C4505D1AB68934204BFEA688A427D
:102F100008D07F1E03D34846FFF722FFCDE70220EB
:102F2000BDE8F09F10341035401EE0D20120BDE80E
:102F3000F09F70B50D46044600F07BFF4FF4007221
:102F40002146284618F02FFE012070BD2DE9F041E2
:102F50000546C005ADF5007D14460E46C00D25D0D2
:102F6000A8466FF308086F4600F063FF4FF4007245
:102F70004146384618F017FEC5F30800C0F5007743
:102F8000A74288BF274668443A46314618F01AFEE1
:102F90004046FFF7E5FE022844D069464046FFF769
:102FA00081FF022843D03D443E44E41BB4F5007F3A
:102FB00019D34FF400723146684618F003FE2846D4
:102FC000FFF7CEFE02282DD069462846FFF76AFF9C
:102FD00002282CD0A4F5007405F5007506F50076DE
:102FE000B4F5007FE5D2C4B16F4600F022FF4FF484
:102FF00000722946384618F0D6FD2246314668460A
:1030000018F0E0FD2846FFF7ABFE02280AD069461B
:103010002846FFF747FF022809D00DF5007D012063
:10302000BDE8F0810DF5007D0A20BDE8F0810DF5C9
:10303000007D0B20BDE8F0812E490860086100F09A
:1030400010B82C490860486100F00BB8294948675E
:103050007047284988677047264801210166016545
:1030600070474FF04022116B10F0010F18BF21F490
:10307000404110F0020F1CBF21F4405141F4805137
:1030800010F0040F18BF21F4406110F0080F18BFB2
:1030900041F4407110F0100F18BF41F0C00110F062
:1030A000200F18BF41F0300110F0400F18BF41F061
:1030B0000C0110F0800F18BF41F0030141F4BE0174
:1030C00041F020411163D2F8901010F4807F1CBFB2
:1030D00021F0030141F0020110F4007F1CBF21F038
:1030E0000C0040F0080141F4BE0040F02040C2F85E
:1030F00090007047001000407047D0488268D04967
:103100000A438260C2681143C1604169CD4A1143DC
:1031100041617047C948416921F0010141F00D71D9
:1031200041F080514161C16821F0400141F00D71D1
:1031300041F08051C160816821F0400141F00D7182
:1031400041F080518160704710B5BC4CA168BC480B
:103150000143A160E1680843E0606069B949084340
:103160006061B94843F63F71C160002181638164A9
:10317000C0F8B01003210A2000F0A5F90A2000F0E1
:10318000C5F9606920F0010040F00D7040F08050FA
:103190006061E06820F0400040F00D7040F0805029
:1031A000E060A06820F0400040F00D7040F08050DA
:1031B000A06010BDA44A1060516048439060704701
:1031C000A14A10605160484310F0010F18BF401C25
:1031D000906070479C49C1F8B00070479A49002838
:1031E00018BF01208864704797498863C86840F019
:1031F0000200C8607047DFF850C2CCF82000CCF85D
:103200002410CCF82820CCF82C300120CCF8300049
:10321000DCF8340010F0010F05D020BFDCF83400DA
:1032200010F0010FF9D110F0020018BF4FF0FF307D
:1032300070478548C16821F00201C160704782482B
:10324000C16841F00101C16070477F4B186259624B
:103250009A6201201864586C10F0010F04D020BF4E
:10326000586C10F0010FFAD110F0060018BF4FF0A3
:10327000FF3070477448C16821F00101C160704798
:103280007148C16841F00401C1607047027C017B54
:1032900002F03F0241EA02416B4A916501685162C6
:1032A000416891628168D16201211165516D11F00F
:1032B000010F04D020BF516D11F0010FFAD1D36D71
:1032C0008382D36D1B0CC382136E0383136E1B0C9E
:1032D0004383536E8383526EC2F30E42C28311F056
:1032E000020018BF4FF0FF3070475748C16821F007
:1032F0000401C16070475448C16841F00801C160D1
:103300007047DFF844C1CCF87820CCF82000CCF826
:103310002430CCF828100120CCF87000DCF87400C0
:1033200010F0010F05D020BFDCF8740010F0010F81
:10333000F9D110F0060018BF4FF0FF307047424837
:10334000C16821F00801C160704701684FEA31424D
:103350003D49C1F89C204068C1F8A000C86840F011
:103360002000C860704701684FEA31423649C1F811
:103370009C208088C1F8A000C86840F02000C86088
:103380007047314B18625A6299620120C3F8940069
:10339000D3F8980010F0010F05D020BFD3F89800A3
:1033A00010F0010FF9D110F0060018BF4FF0FF30F8
:1033B0007047254A106251620120C2F89000D2F88D
:1033C000980010F0010F05D020BFD2F8980010F03F
:1033D000010FF9D110F0060018BF4FF0FF30704711
:1033E0001948C16821F02001C16070471648C168C2
:1033F00041F01001C1607047A3F1050C124BC3F8F6
:1034000088C018625A6299620120C3F88000D3F81C
:10341000840010F0010F05D020BFD3F8840010F015
:10342000010FF9D110F0060018BF4FF0FF307047C0
:103430000548C16821F01001C1607047008000405C
:103440004000341201003412009000401B4810B5B7
:10345000022140F8501F012101611021416241F217
:103460000601416100218161042181639021416352
:10347000416B41F0010141634FF4817101610161D0
:10348000032000F043F80021032000F01CF8002086
:1034900010BD10B5032000F045F808484FF48071C6
:1034A000016600210166102181670221416500202B
:1034B00010BD034900200870704700000030004034
:1034C00070840010704700F00303DA004FF0FF0C27
:1034D0000CFA02F24FF0050C0CEBC30301FA03F3F4
:1034E00000F00C0101F1E021002807DAD1F8140DF9
:1034F00090431A401043C1F8140D7047D1F80004EE
:1035000090431A401043C1F80004704700F01F01B7
:10351000012202FA01F14009800000F1E020C0F828
:103520000011704700F01F01012202FA01F1400969
:10353000800000F1E020C0F88011704700F01F010A
:10354000012202FA01F14009800000F1E020C0F8F8
:10355000801270474FF0E021C1F8000170474FF032
:10356000E021C1F8800170474FF0E020D0F8000161
:1035700070474FF0E021C1F88002704708480068AA
:103580007047074A1168106008467047044A12687D
:1035900000F1100352F8230042F823107047000096
:1035A00008ED00E002210C20FFF78DBFB8488268CB
:1035B000B8490A438260C2681143C1607047B44889
:1035C000816821F4805141F00D7141F0805181609A
:1035D000C16821F4805141F00D7141F08051C1600A
:1035E0007047AD4881B0016F11F4007FFBD1816E4F
:1035F00011F0010F1CBFD0F88410009104D0D0F856
:103600008410009A9142FAD0016F11F4007F04BF38
:103610004CF27101016642F24131816601B070479E
:103620009D4981B04FF40D528A660A6FCA6601281F
:1036300098BF012005D9401EB0F5803F28BF4FF646
:10364000FF7082B24FF05C5040EA022048664FF0B3
:103650001140C1F88000086F10F4007FFBD1886E24
:1036600010F0010F1CBFD1F88400009004D0D1F8F5
:103670008400009A9042FAD0086F10F4007F04BFD3
:103680004CF27100086642F24130886601B0704722
:10369000814881B0016F11F4007FFBD1816E11F080
:1036A000010F1CBFD0F88410009104D0D0F8841012
:1036B000009A9142FAD04FF40D51816601B07047E3
:1036C0007348806810F4805008BF70477248806E5D
:1036D00000F0010070477048406EC0F30F20704743
:1036E0006D48D0F88400704710B50C20FFF726FF16
:1036F0000C20FFF70BFF68490220486710BD6649A0
:1037000010B5032088670C20FFF70CFFBDE81040C0
:103710000C20FFF713BF614A11681060084670471C
:103720005D4810B5016FC1665C480068002818BF8D
:1037300080475B48016841F48051016010BD5748E3
:1037400040687047524810B5826852490A43826007
:10375000C2681143C1605049032088670C20FFF7FD
:10376000E1FE0C20FFF7EAFE00F05CF94D4B04206F
:10377000C3F888004FF6FF70C3F88C0072B6603350
:10378000FFF74EFF4FF40070186062B610BDF8B539
:1037900072B64148016F11F4007FFBD1816E11F0C8
:1037A000010F1CBFD0F88410009104D0D0F8841011
:1037B000009A9142FAD04FF40D51816639494FF485
:1037C00000320A6662B6D1F80412314D002946D0A3
:1037D000324C4FF6FF73591AA160AA69D5F81CC084
:1037E00002F00F020CF00F0C6244121D01FA02F2FB
:1037F000A2F54341DFF8B0C0513961452FD2D0F86E
:103800008400191AE160B1F5803F28D2274B4FF0B0
:10381000000CA1FB03070CFB037301FB0C31634697
:1038200018F0D5F9401C40082061B0F57A7F38BF08
:103830004FF47A701E4B9968002908BF98605A6847
:103840001A609968C3E901108A421BD9824205D9DE
:10385000814201D9616002E0606000E0626000F0D6
:10386000EDF8A86820F4805040F00D7040F08050D2
:10387000A860E86820F4805040F00D7040F080505F
:10388000E860F8BD8242E9D88142E5D8E2E700006D
:10389000008000400010341200C00040748400100A
:1038A0006C84001000A000404F62250000E1F50587
:1038B000CC8800100F4881680F4A114381600F487F
:1038C000016841F404710160001F016841F00401C6
:1038D0000160016841F0100101607047084908600B
:1038E0007047BFF34F8F084906480860BFF34F8FFA
:1038F000FEE70000008000400400341214ED00E0F8
:1039000008ED00E00400FA050CED00E015488168C0
:10391000154A114381601003416941F00101416181
:10392000016A21F00F0211490A430262104B8A1EFC
:10393000C3F8C420016570474FF04020006900F0D3
:10394000700070474FF040200A4940F8301F0A4984
:1039500041600A4901660A49416670474FF04020BC
:1039600040687047008000400400341203005FA0EC
:1039700000600040C0845FA050995FA00A005FA073
:1039800000005FA0022824BF00207047DE4B53F8E0
:10399000202043F820101046704770B5DB4C206F94
:1039A000D94D10F0010F05D00120E06628680028ED
:1039B00018BF8047206F10F0020F08BF70BD0220B3
:1039C000E0666868002808BF70BDBDE87040004729
:1039D000CF4810B58268CF490A438260C26811435C
:1039E000C160CA4902220A6501230B660323CB6624
:1039F0004A65816821F0800141F00D7141F08051EC
:103A00008160C16821F0800141F00D7141F0805169
:103A1000C1600920FFF77AFD0221BDE810400920AE
:103A2000FFF751BDBA488268BA490A438260C2684A
:103A30001143C160B549022008657047B3490220AF
:103A40004865B348816821F0800141F00D7141F073
:103A500080518160C16821F0800141F00D7141F019
:103A60008051C1607047AA488068C0F3C010704799
:103A7000A648016F11F4007F14BF4FF440714FF45A
:103A800080710166704710B5A04CE06F10F0020F16
:103A90004FF0010018BF0320606700F066F99C49F1
:103AA0008A69C96902F00F02D04001F00F01C840D5
:103AB0000521B0FBF1F04FF405710009C4F8801046
:103AC0009549A1FB00104009C4F88400206F10F450
:103AD000007F14BF4FF440704FF48070206610BD1B
:103AE0008A48016F11F4807F14BF4FF440714FF486
:103AF000007101667047854B30B4DA6F12F0010F28
:103B000014BF032202225A6700EB4005C5EBC01028
:103B1000C1EBC0004FF4FA744C43C0EB001000EB53
:103B200040007E4904EBC000A1FB00107849002250
:103B30004FF0020C8C69C008C96904F00F0401F051
:103B40000F012144C8400521B0FBF1F0B0F5803FE2
:103B500005D3511C4008CAB2B0F5803FF9D242EA01
:103B60000C2141F01001C3F88810C3F88C00186FC5
:103B700010F4807F14BF4FF440704FF4007018664B
:103B800030BC70476148016F11F4003F14BF4FF41F
:103B900040314FF48031016670475C48016F11F489
:103BA000803F14BF4FF440314FF40031016670473D
:103BB0005648006FC0F3002070475448006FC0F3B0
:103BC0004020704752498968C1F3C011002904BFE1
:103BD000002070474D4900280CBFD1F80002D1F8F1
:103BE000040270474A4B9A68C2F3C012002A04BF0D
:103BF00000207047454A00280CBFD2F88000D2F858
:103C00008800C0F30A200CBFD2F88020D2F88820A8
:103C100002F00F02D3F818C0DB690CF00F0C03F0B0
:103C20000F0363441A449140012202EB40004843D1
:103C30003949A1FB0010000970473949012008707B
:103C4000704770B4324B322251439A69D3F81CC08A
:103C500002F00F020CF00F0C6244121DD14008BF9D
:103C6000012104D0B1F5803F28BF4FF6FF719A685B
:103C7000C2F3C012002A1CBF70BC7047D3F808C042
:103C8000244A4CEA020CC3F808C0D3F80CC04CEA32
:103C90000202DA601D4A4FF0020CC2F850C04FF425
:103CA000003414660425C2F88850C2F88C101D4DEB
:103CB000D566C2F874C01C4902283CBF124E46F8B3
:103CC00020100021164801704FF400711166017830
:103CD00019B920BF01780029FBD014669567D56615
:103CE000C2F854C0986820F0800040F00D7040F099
:103CF00080509860D86820F0800040F00D7040F04F
:103D00008050D86070BC70478C84001000A00040C8
:103D100000800040800034121F85EB51CDCCCCCC0C
:103D20008884001002000202EB5B00004FF0E021EB
:103D30000020886108611F494860704710B54FF046
:103D4000E02460610020A0610221401EFFF7BBFB60
:103D50000720206110BD4FF0E0210020086170476E
:103D600014480188491C01807047124880687047D8
:103D70002DE9F0410F4C002705462780A0684FF43D
:103D80007A71B0FBF1F04FF0E026401E7061B76130
:103D90000221C81EFFF797FB072030612188A94246
:103DA000FCD33761BDE8F08103494843014988608D
:103DB000704700009484001040420F00704770B5B7
:103DC00005464FF40D500406A0660320E066264821
:103DD00060664CF2710020662448C4F8800042F20C
:103DE0004630A06602210020FFF76DFB0020FFF7A0
:103DF0008DFB002D08BF70BDA06E42F2413108431B
:103E0000A06670BD012110B5880781674FF40D5180
:103E100081660020FFF786FBBDE810400020FFF719
:103E20008DBB0120810748677047012081078867A3
:103E300070474CF271008107086670470C4A1168A0
:103E40001060084670470A4808B5006818B18047F6
:103E5000002818BF08BD4CF2710188070166016F88
:103E6000C166006F009008BD075E5F3700AF2F91FD
:103E7000A084001070B5FA4D00244FF4E4612C705A
:103E80006C70EC70F74817F093FE4FF4E461F6485D
:103E900017F08EFEAC602C714C21F44817F088FEB0
:103EA0004C21F34817F084FE6C717421F14817F02F
:103EB0007FFE7421F04817F07BFEEC60AC71EC6182
:103EC0002C626C62AC62EC622C632C6170BDE449C4
:103ED000002048707047E24840787047E048007919
:103EE000002818BF01207047DD488079002818BFDE
:103EF00001207047DA484079002818BF0120704738
:103F0000D748C078002818BF012070470021D44846
:103F1000C16201637047D948704770B5D84A0546F9
:103F2000107851784218520014462946D34817F0A9
:103F300049FE22462946D34817F044FEC8490120CD
:103F4000887170BDC64800697047C548407800EB6D
:103F50004001C1EB4010C74901EB800070472DE9DB
:103F6000F041BF4D0446C3496A78C74F02EB420097
:103F7000C0EB4210C54E01EB80033A783078214601
:103F800010444200184617F01DFE6A78BA4902EB49
:103F90004200C0EB421001EB80033A7830782146B2
:103FA00010444200184617F00DFE01206871BDE86C
:103FB000F081AB48C0687047A9484078C0EBC001A9
:103FC000C1EB8010A74901EB401070472DE9F0418B
:103FD000A34E07463078002814BFAD48AD4804789A
:103FE00014BFAD48AD48057804FB05F8FFF785F828
:103FF00029462046FFF7DEF870789B4CC0EBC001E5
:10400000C1EB8010974904EB401201EB40103B4696
:104010000146FFF7F0F8FFF77DF870784FEA4802A5
:10402000C0EBC001C1EB801004EB4010394617F023
:10403000C9FD0120F070BDE8F0812DE9F047884D01
:10404000044688496A78DFF84882C2EBC200C0EBB8
:10405000821001EB40132878DFF838928E4E8F4F94
:10406000002815BF98F8000099F8000032783A78D7
:1040700000FB02F04FEA40022146184617F0A2FD6D
:104080006A787949C2EBC200C0EB821001EB401C98
:1040900028782146002815BF98F8002099F80020BC
:1040A00033783B7802FB03F04FEA4002604617F09A
:1040B00089FD0120E870BDE8F08769488068704795
:1040C00070B5774C0546014622786848520017F0D3
:1040D00079FD227829465200654817F073FD604942
:1040E0000120087170BD2DE9F04FADF26C7DDFF855
:1040F00070910120CDF84C0799F80300CDF84807DE
:1041000099F80400CDF8440799F80500CDF8400768
:1041100099F80600CDF83C0701F0E0FC8046FDF779
:10412000A3FDCDF86407FDF780FFCDF86007FDF72C
:104130008EF9CDF85C07FCF7EAFE0446FCF7E4FED6
:104140000646FDF793FD99F802000025002804BFFC
:104150000420C9F8180008D0B8F1020F1CBF0A20CB
:10416000C9F818000CD089F80250FDF737F908306B
:1041700000094FF0010BCDF85007022E0AD022E0C3
:1041800012F0BCFC10F4817F14BF3C201E20C9F843
:104190001800E8E7B8F1020F03D0B8F1050F08D016
:1041A00011E04FF47A71484390FBF1F0C9F8180020
:1041B00007E007F0CAFD002814BF05201220C9F847
:1041C000180089F802B0D9F818000428BCBF0420F0
:1041D000C9F8180099F80200B9F81810000240EA6E
:1041E000014040F001020023912107200BF082FEE4
:1041F00014F0010F2ED1B8F1020F2BD00020FDF7E3
:104200001CF9FDF76DFF17F0E7FC00252F46CDF8F0
:10421000385706F0D4FA012846D00DF5E460FEF7D1
:1042200049F9002800F0DF820DF5E46007F0B2FAEA
:10423000002089F80100D9F81800C01E8542CABFC5
:10424000874201240024DDF82C0758B3DDF8440729
:1042500048B35DE0FDF7EFFE0020CDF84C07D2E754
:10426000A484001000270110D8880010389E001088
:10427000849E0010202E0110D09E0010C0840010DB
:104280000F850010C88400100C8500100D850010EB
:104290000A850010078500100B85001008850010A6
:1042A0000E85001034E004E00120CDF8380700F05E
:1042B00084BA6846DDF82C1717F093FC82467CB16F
:1042C000F94E514630784200F84817F07BFC3078C0
:1042D00051464200F64817F075FC89F804B017E023
:1042E000FEF70BFFF04E01213078FEF763FFF04A36
:1042F0005346A2F14C010846FEF77DFFFEF70AFF88
:10430000307851464200EA4817F05CFC89F804B066
:10431000DDF82807002800F0D680DDF848070028DF
:1043200040F0D18099F80000DDF82867F0BBD9F89B
:1043300008A0BAF1000F24D0DE480078CDF8580765
:10434000DD480078CDF85407FEF7D7FEDDF85417A6
:10435000DDF85807FEF734FF314652460846FEF7AF
:1043600074FFFEF7D7FED5480078022804BF5046F8
:1043700006F052FED1480078092804BF304606F006
:104380004BFECF480078012816D9DFF830A39AF801
:104390000000042804BF304606F03EFE3146684661
:1043A00017F024FC06469AF8000000E004E0052817
:1043B00004BF304606F030FECCB399F8010099F8FE
:1043C0000020C0EBC001C1EB8011BE48002A00EB09
:1043D000411031460CBFBC4AB64A137814BFB64AE6
:1043E000BA4A127803FB02F24FEA420217F0EAFBE4
:1043F00099F80100C0EBC001C1EB8011B44800EB9B
:10440000411399F800003146002814BFA948AE486E
:10441000007814BFA84AAD4A127800FB02F04FEAB8
:104420004002184617F0CEFB89F803B03CE0FFE7E6
:10443000CDF8546799F80000002814BF9D48A248A1
:1044400090F800A014BF9C48A04806780AFB06F02C
:10445000CDF85807FEF751FE31465046FEF7AAFE4A
:1044600099F801009A4EC0EBC001C1EB801095494C
:1044700006EB401201EB40100146DDF85437FEF721
:10448000BAFEFEF747FEDDF85807420099F8010032
:10449000C0EBC001C1EB801006EB4010DDF85417F3
:1044A00017F090FB89F803B08448007803280AD1FC
:1044B00099F80100C0EBC001C1EB8011814800EB0D
:1044C000411006F0A9FDDDF8300700287ED0DDF8A8
:1044D000400700287AD199F80000DDF8306748BB22
:1044E000D9F80CA0BAF1000F24D07A4801787A48A4
:1044F00000780844401C4008019002200090FEF71C
:10450000FCFDDDE90010FEF75BFE31465246084631
:10451000FEF79BFEFEF7FEFD70480078022804BF00
:10452000504606F014FF6D480078092804BF304655
:1045300006F00DFF4CB399F80100DFF898A100EBED
:104540004001C1EB401166489AF8002000EB81035E
:1045500061483146007810444200184617F032FB9B
:1045600099F801005C4A00EB4001C1EB40115D4845
:104570009AF80030127800EB81001A44314652005C
:1045800017F020FB89F805B02FE05248009601781B
:10459000514800780E18FEF7B0FD701C400802214B
:1045A000FEF708FE99F80100DFF838A100EB4001A2
:1045B000C1EB40104A490AEB800201EB800108463A
:1045C000009BFEF718FEFEF7A5FD00E01CE099F841
:1045D0000100720000EB4001C1EB40100AEB8000CB
:1045E000009917F0EFFA89F805B03C4800780328E5
:1045F0000AD199F8010000EB4001C1EB40113848A5
:1046000000EB810006F0A3FEDDF83407002873D02C
:10461000DDF83C0730B1B8F1020F18BFB8F1050F53
:104620006BD0BDE099F80000DDF8346740BBD9F8E5
:1046300010A0BAF1000F23D02B480178407808442D
:10464000401C4008019002200090FEF756FDDDE975
:104650000010FEF7B5FD314652460846FEF7F5FD5F
:10466000FEF758FD21480078022804BF504606F0A6
:104670009DFF1E480078092804BF304606F096FFCB
:1046800019480178407874B1084444002246314604
:10469000174817F097FA22463146164817F092FA53
:1046A00089F806B042E029E00E850010389E00101F
:1046B000849E00100A8500100B8500108D85001067
:1046C00009850010002701100785001008850010DB
:1046D000D88800100C8500100D8500109285001000
:1046E000202E0110D09E00100F850010978500101D
:1046F000C0840010C884001052E028E00C18FEF7B7
:10470000FCFC601C40080221FEF754FDFB4A3346C6
:10471000A2F108010846FEF76EFDFEF7FBFC620001
:104720003146F64817F04EFA89F806B0F44800789A
:10473000032804BFF34806F039FF17F05CFA0020A5
:10474000C9F82C00C9F8300000F01FFE28E0002155
:10475000DDF8340717F054FADDF85007782828BF41
:1047600015F0010F1CD0E84C207A58B10820FCF756
:1047700022F8E64A1378527899184A000146082030
:10478000FBF7CAFDE07958B10720FCF714F8DF4ABF
:1047900001460720137852781A445200FBF7BCFDFB
:1047A000FDF7E4FED9F818006D1C7F1C8542A8BFF8
:1047B000874211DBD9F8140070B1FDF757FADDF824
:1047C0005C07FCF73AFEDDF8640788B1DDF86007A6
:1047D00060B1FDF785FC0BE0DDF84C07002818BF41
:1047E000FDF77EFC15E501F0C6F912E5FDF723FCA7
:1047F000DDF83807002804BF0420C9F818000FD0DE
:10480000DDF8480789F80300DDF8440789F804005B
:10481000DDF8400789F80500DDF83C0789F8060057
:10482000DDF83807B9F81810000240EA0142002309
:10483000912107200BF05EFBDDF838070DF26C7D4F
:10484000BDE8F08F10B50024FDF7E1FBB04910F092
:10485000020F0AD0CA78002A08BF012410F0040F02
:1048600003D00A79002A08BF012410F0010F03D0F9
:104870004A79002A08BF012410F0200F03D088795C
:10488000002808BF01240020002C08BF10BD002014
:104890000870BDE8104026E438B505460F2412F034
:1048A0002DF940B101F01AF9022803D001F016F9F0
:1048B000052800D10E242146284601F06AFA012875
:1048C00004D1FFF7BFFF009001F0DCFB9048C178F6
:1048D00000291CBF4179002906D0817900291FBF1A
:1048E00000790028012038BD002038BDD4E770478A
:1048F00070B5874C00250646E57025716571FBF79C
:10490000A5FF002818BFA571002E1CBF0120A070B4
:10491000BDE870400BF0E2BF002818BF01207C49C1
:10492000C87170477A48C079704710B54FF4E46198
:10493000784817F03DF9BDE810404FF4E46176483F
:1049400017F036B975487047754801787548007892
:1049500048434100714817F02BB970B506467048BE
:10496000047870480578FEF7C8FB29462046FEF714
:1049700027FC67484078C0EBC001C1EB8010654957
:1049800001EB401231466548FEF75FFCFEF7C2FBC3
:1049900065480078152818BF70BD6048BDE87040B4
:1049A00006F03ABB002818BF01205949C87070476B
:1049B00010B5574C002804BFA06010BDDFF86CC1D3
:1049C0005B490B785B490A7801465A4352006046BE
:1049D00017F0F8F85548A06010BD10B54C215648A6
:1049E00017F0E6F8BDE810404C21544817F0E0B845
:1049F00051487047002818BF012045490871704789
:104A000010B574214E4817F0D3F8BDE8104074215A
:104A10004C4817F0CDB8002818BF01203C49487118
:104A2000704710B53A4C002804BFE06010BD7422F6
:104A30000146454817F0C6F84348E06010BD3448C9
:104A40000021C161016241628162C16201637047FC
:104A5000002818BF01202E498871704710B52C4CD2
:104A6000002804BF206110BD28490A784978114404
:104A70004A000146354817F0A5F83448206110BDBA
:104A800033487047214A01463148137852781A4416
:104A9000520017F097B830B44FF0000C029C6343FB
:104AA00004BF30BC704732F91C4051F82C502C44E4
:104AB00040F82C400CF1010C6345F4D830BC704731
:104AC000002B08BF704710B4DDF804C0BCF1000F24
:104AD0004FF0000C3ED0002A9CBF10BC704751F82C
:104AE0002C4004EB5304B4FBF3F420F81C400CF10D
:104AF000010C6245F3D810BC70470000C884001058
:104B000097850010C0840010F48700100F850010F6
:104B1000A484001000270110D8880010F88F00101E
:104B200007850010088500108D850010189700106B
:104B30000A8500100B850010389E0010849E00101E
:104B4000202E0110D09E0010449F0010D884001029
:104B5000D0840010002A9CBF10BC704751F82C4034
:104B600094FBF3F420F81C400CF1010C6245F5D8DD
:104B700010BC704770B5FF4D00260446EE702E71D4
:104B80006E71FBF763FE002818BFAE710BF0A6FE36
:104B9000002C14BF012000202870BDE87040FFF7F2
:104BA000A2BA2DE9F04F8FB04FF4E461F24816F04D
:104BB000FFFF7421F14816F0FBFFEE4E00207063FA
:104BC000B0630090019002900390FDF720FA044634
:104BD000FDF74AF80C90FDF728FA0B90FCF737FC2C
:104BE0000A90FDF743F80020FCF727FCFDF778FA60
:104BF00000273D4605F0E3FD012878D004A8FDF725
:104C000059FC002872D004A806F0C4FD14F0020F6D
:104C10001DD0D9480D908346D948DDF818A090F8EA
:104C20000080D84890F80090FEF767FA0120FEF760
:104C3000D5FA49464046FEF7C3FA5A4651460D9802
:104C4000FEF703FB0020FEF7C9FAFEF763FA14F043
:104C5000010F21D0C9480D908346CB484FF002097F
:104C6000DDF820A00178C94800780844401C4FEACC
:104C70005008FEF742FA0120FEF7B0FA49464046D6
:104C8000FEF79EFA5A4651460D98FEF7DEFA0020CE
:104C9000FEF7A4FAFEF73EFA14F0200F1DD0BC492F
:104CA0006B46099891F800C049781A466144491C3E
:104CB0004FEA510C00214FF002085FEA4C0918BF7F
:104CC0000CFB08FC09D030F9118052F82190C8443F
:104CD00043F82180491C8C45F5D8FDF747FC7F1C23
:104CE000102F05D2FDF7FCF984E700E00CE0012568
:104CF000FCF7BCFF0A98FCF7A0FB0C9848B10B9896
:104D000028B1FDF7EDF904E000F035FF72E7FDF79B
:104D100092F9002D52D114F0020F18D09848964BFA
:104D2000017898489C46007801FB00F21020002191
:104D3000002A0AD93CF9118008EB5008B8FBF0F7BB
:104D400023F81170491C8A42F4D88B48B06014F0E3
:104D5000010F18D08C48894B01788C481F46007889
:104D60000A184FF010004FF000010AD037F91180F7
:104D700008EB5008B8FBF0FC23F811C0491C8A422C
:104D8000F4D87E48F06014F0200F17D08048814C92
:104D90006B46017840780A184FF010014FF0000080
:104DA0000AD053F820C00CEB510CBCFBF1FC24F8EA
:104DB00010C0401C8242F4D8764830610FB02846BB
:104DC000BDE8F08F012070474FF43F3070474FF43B
:104DD0003F30006870474FF43F310A68B2F1FF3F3F
:104DE00015D0052804BFC87A704728DC012804BF05
:104DF00008797047022804BF087A7047032804BF67
:104E0000487A7047042804BF887A704727E005284D
:104E100013D007DC012822D002281CBF0328042855
:104E20000BD01CE0142812BF15282D20704716281F
:104E300004BF28207047172811D10020704714287C
:104E400004BF087B7047152804BF487B70471628AD
:104E500004BF887B7047172804BFC87B7047FF20BA
:104E6000704770B5ADF5007D00244FF400716846C1
:104E700016F09EFE4FF43F36FF224FF40071684655
:104E800016F0C3FEFF21254661F307052D222146BA
:104E900062F3070162F30F2128224BF6BB3062F365
:104EA000174164F31F61CDE90005CDE90241049487
:104EB0003046FDF755FF69463046FDF7F3FF0DF527
:104EC000007D70BD2DE9F04F4FF43F34ADF5017D0D
:104ED000834620688A9F984691468A46B0F1FF3FF4
:104EE00008BFFFF7BEFFD4E901106AF3070069F3BA
:104EF0000F20256868F31740D4E903646BF30701BA
:104F000067F31F608B460746FF224FF40071684627
:104F100016F07BFE0297CDE90364CDE9005B4FF408
:104F20003F342046FDF71CFF69462046FDF7BAFFD7
:104F3000012818BF00200DF5017DBDE8F08F2DE997
:104F4000F04F4FF43F3389461D680021ADF5017DD8
:104F500090468246B5F1FF3F02BF08460DF5017D40
:104F6000BDE8F08FFF22D3E902744FF40071684668
:104F700012E00000A484001018970010449F001055
:104F80000A8500100B8500100C8500100D8500109F
:104F90000F850010D8840010D3F810B05E6816F0AA
:104FA00034FE6AF3070469F30F2468F31744012001
:104FB00060F31F64CDE90274CDE900564FF43F342D
:104FC000CDF810B02046FDF7CBFE69462046FDF730
:104FD00069FF0DF5017DBDE8F08F2DE9F04F4FF42D
:104FE0003F30894E00250368ADF5017D74422F46A0
:104FF0001720FFF7F0FE84461420FFF7ECFE40B2C6
:10500000B3F1FF3F04D0BCF1000F03D12D2801D034
:10501000FFF727FF1420FFF7DEFE40B202901520B5
:10502000FFF7D9FE4FFA80F91620FFF7D4FE40B201
:1050300001901620FFF7CFFE404240B20090FCF7EF
:10504000E6FFDFF8C8A1834600208AF803008AF84B
:1050500004008AF80500FBF7F9FB00281CBF0020BC
:105060008AF806000BF03AFC00208AF80000FFF7EF
:105070003AF81BF0010F04D016F0CCFD012808BF50
:1050800001251BF0020F7DD061489AF801104FF006
:10509000000890F800C05F48C1EBC102C2EB81116B
:1050A00000785D4A002802EB4112C8BFACF1010A4A
:1050B0001EDD0021BAF1000F16DD01F1010B01FB2D
:1050C00000830BFB008B32F8133032F81BB0A3EBDC
:1050D0000B031BB2002BB8BF5B421BB2BB42C8BF65
:1050E0001F46491C5145E8DB08F101088045E0DB1B
:1050F000B945B8BF45F002054FF00008C146BCF104
:10510000000FC8BFA0F1010A1BDD0021BAF1000F9A
:1051100013DD09FB001332F813B002EB43035B8885
:10512000ABEB03031BB2002BB8BF5B421BB2434582
:10513000C8BF9846491C5145EBDB09F10109E1451F
:10514000E3DB02994145B8BF45F004054FF0000983
:10515000BCF1000F13DD002300280CDD09FB00313A
:1051600032F91110B142C8BF0E46A142B8BF0C4679
:105170005B1C8342F2DB09F10109E145EBDB01989D
:10518000B04200E005E002DB0098A04201DD45F0FE
:105190000805604208F0FF0B4FF43F3400F0FF08B1
:1051A000206807F0FF0A06F0FF09B0F1FF3F08BFD3
:1051B000FFF757FED4E901106BF307006AF30F20E5
:1051C000266869F31740D4E9037465F3070168F3AF
:1051D0001F600D468046FF224FF40071684616F0AE
:1051E00014FDCDF80880CDE90374CDE900654FF4D6
:1051F0003F342046FDF7B4FD69462046FDF752FED8
:105200000DF5017DBDE8F08FF1D8FFFFA4840010FB
:10521000088500100785001000270110FF4920F0C5
:105220007E4008617047FD4800697047FB4800896F
:105230007047FA4840897047F848B0F90C00704749
:10524000084318BF7047F548006910F0807F1CBF05
:105250000020107070472DE9FF5FF1480027DDF84E
:105260003CA005780E98119E8B46B9463C465045A9
:105270002CD006FB050E10983BF91EC006FB050955
:105280003BF91900BCEB000148BFA0EB0C0106FB89
:1052900005A83BF91840B4EB000C48BFA0EB040C88
:1052A00001EB0C0004B232F91EC032F91900BCEB5C
:1052B000000148BFA0EB0C0132F918C0BCEB0002A2
:1052C00048BFA0EB0C0288180FFA80F9012B37D0E9
:1052D0004FF0010816F0A3FCD249002C0A7807DD34
:1052E000109906FB05113BF911101431282909D832
:1052F0000099B1F914103C2904DC0099B1F9161099
:105300003C2926DD0E9902EB0A0C11448C4520D96C
:10531000129B139D13442A448B421CBF8D1A15F116
:10532000020F30F9115000EB4106B6F90260A5EB0F
:10533000060508D01E353C2D08D94FF0000808E0BE
:10534000A1450CDD0AE00A35142DF6D8491C8C4520
:10535000E2D8A14503DDB8F1000F00D0012704B069
:105360003846BDE8F09F7047AF4A02804280002176
:105370008280C1800181534243818181C181018248
:1053800041828182C18202837047A4490020C88182
:1053900048617047A14800218161C1617047A348FD
:1053A0007047A34A0146A148137852781A44520024
:1053B00016F008BC2DE9F04383B00C460546FFF714
:1053C0005FFB024699480021031F002C88BF4FF065
:1053D000010C0AD95E5C2EB935F911603C2EA8BFCC
:1053E00003F801C0491CA142F4D38C4EB6F80E80DC
:1053F000B8F1000F09D10021002C06D935F811C0F1
:1054000020F811C0491C8C42F8D80021EC46002C31
:105410000AD935F8117030F81190A7EB09072CF86C
:105420001170491C8C42F4D8B8F11E0F24BF002122
:10543000002C11D9585C00281CBF3CF9110010F158
:10544000140F06DD142804DC32F81170384422F8F9
:105450001100491CA142EDD31046FFF713FBF08960
:1054600042F2107188423ABF401CF081F1817048CD
:10547000294602784078104442006C4816F0A2FB9E
:1054800003B0BDE8F08365480078002818BF01200C
:10549000704710B54FF4E461664816F089FB5F4928
:1054A0000020087010BD2DE9FF4F85B09A46DDE958
:1054B000137593460446DDF848800BF020FA574EEA
:1054C0004FF0000900287CD100F008FB052878D0B7
:1054D0000698CDE902050A20049057481E25007859
:1054E0000090504800780190308910B970780128F8
:1054F0000ED10BF03FFA58B9012F09D0B8F1010FC6
:1055000002D17089C82803D80BF0ACFA012809D160
:1055100007F0B6F828B311F0A1FB10B311F060FB4F
:1055200008281ED00BF0D7F9012809D007F0A8F8F9
:1055300068B111F093FB50B111F052FB082806D06E
:1055400005200490039801280CBF41253C2500202C
:10555000DDE900128A180BD0029931F91010A94226
:1055600002DD86F8079014E0401C80B28242F3D836
:10557000306910F4803F0CD0F079401CC0B2F0715B
:105580000499884205D9012070714FF0FF3486F8E4
:10559000079011F063FBF0B111F022FB08281AD03C
:1055A0000A25B8F1000F53DC012F51D0306910F4F7
:1055B000003F32D0B079401CB07111F04FFB30B1D8
:1055C00000E02AE011F00CFB082818BF0525B0798F
:1055D000A84222D91BE00BF07EF901281DD10A2533
:1055E000B8F1000F34DC012F32D0306910F4003FE5
:1055F00013D0B079401CB07111F030FB20B111F024
:10560000EFFA082818BF0525B079A84205D901206E
:1056100070714FF0FF3486F806900FE0E0840010C0
:10562000078500100D850010F1D8FFFFF8840010E9
:105630000F850010A8A500100C85001011F05EFA6F
:1056400010F4807F2CD000F049FA022803D027E024
:1056500086F80690E1E74FF0010816F0E5FA0746F4
:1056600011F034FA054611F02DFA0246002100200F
:10567000002D08D900FB021337F913300F2B0FDB75
:10568000401CA842F6D3B8F1000F09D0491C0129EB
:10569000EDD9B8F1000F03D001204FF0FF34707145
:1056A000B4F1FF3F25D0002C07BFF078012809B0E6
:1056B000BDE8F08F86F803904FF4E461F84816F0E7
:1056C00077FA86F8009000F00FFA04282FD0BBF18B
:1056D000000F1CBF5846FEF7B0FCBAF1000F04BF24
:1056E00009B0BDE8F08F504609B0BDE8F04FFEF7B5
:1056F00036BC707901281CBF09B0BDE8F08F584650
:10570000FFF72BF986F805904FF4E461E44816F0B2
:105710004FFA86F80090BBF1000F1CBF5846FEF709
:105720008CFCBAF1000FDED109B0BDE8F08FBBF1FF
:10573000000F1CBF5846FEF749FCBAF1000F04BF2A
:1057400009B0BDE8F08F504609B0BDE8F04F16F043
:1057500070BA2DE9FF4FADF6646D9B464FF01E0AFF
:10576000DDF8AC8E06F08CFF012808BF4FF03C0A34
:10577000BBF914100123DDF8982EDDF8640E16F045
:105780005DFADFF820930020054689F80100FEF756
:1057900013FCC54F06463C7800F0A0F905289BF89D
:1057A0000C0017D0BBF80E30C1B28B4224BFBBF83F
:1057B0000820BBF80AC034D3D0B284452CD301FBF7
:1057C000040B36F91BB00BF1140BBBF1280F1FD9DA
:1057D000012526E0BBF80E30C0B2834224BFBBF8DF
:1057E0000820BBF80AC01CD3D1B28C450AD300FBF9
:1057F000041B36F91BB01BF1140FE9DB491CC9B2BD
:105800008C45F4D26DB9401CC0B28342ECD208E0A2
:10581000401CC0B28445D2D21DB9481CC1B28B42D3
:10582000CAD2A04845700078A04D80B30BF053F861
:1058300001282CD006F024FF012828D1DFF860923F
:1058400097F800B0DDF8646E2C785B464A46314626
:1058500001A8009416F0F7F95B46324649460DF26E
:105860002470009416F0EFF90DF6486101A816F0C7
:10587000EFF904460DF648610DF2247016F0E8F9D0
:10588000142CD6BF14280120002088F8000011F045
:1058900035F910F4817F0DD1DDF8980EB0F91200C2
:1058A000002807DC0BF017F8012803D07D4840786A
:1058B00001287CD147F6FF70DDF86C6E03902878E4
:1058C00001904FF00009DDF89C4E3F784D4611F0F5
:1058D00015F910F4817F14BF4FF00F08D04611F076
:1058E0000DF910F4817F14BF6FF00E00CAF10000B3
:1058F000029011F003F910F4807F1CBF4FF0010BF0
:105900004FF0200C0ED111F0F9F810F0020F4FF00B
:10591000000B08BFBC4605D06548006890F83D0103
:1059200000F1010C00200090039880456ADADDE95F
:10593000002000287ED9ACF1010005900198401E9E
:105940000490ACF1020003905846E34538BF13B20F
:1059500053D202FB070A1FFA8AF136F91110002907
:10596000B4BFC1F1000E8E46C6451ADD41450BDDC0
:10597000B4F904E0714502DDA180E080238109F1E2
:1059800001010FFA81F90CE0DDF808E08E4508DD31
:10599000B4F90AE08E4502DD6181A081E381691CD2
:1059A0000DB20599884225D236F91AE000E048E0A8
:1059B00006EB4A01B1F902A0BEEB0A0148BFAAEB0F
:1059C0000E0109B2DDF800A052451CBFDDF810A0A1
:1059D000524505D058451CBFDDF80CA0504504D1F8
:1059E000B4F902A08A45B8BF6180B4F900A08A4525
:1059F000B8BF2180401C6045ABD30198521C824245
:105A0000A2D317E0DDE90001002913D95B46E34585
:105A10000CD200FB073189B236F9112002998A4273
:105A2000BCBF691C0DB25B1C6345F2D30199401CDD
:105A30008842EBD3A4F810906582DDF8A41E012003
:105A40000870DDF89C0EB0F91000002809DCDDF8C4
:105A50009C0EB0F91200002803DC1248407801289F
:105A60000CD1052347F6FF71DDF8A02EDDF8680E96
:105A700016F0E4F8DDF8A81E01200870DDF8980E95
:105A8000418A08480181DDF8981E098A4181DDF8C4
:105A9000981E498981810DF6746DBDE8F08F000074
:105AA000A8A50010E08400100785001008850010EC
:105AB0006C86001010B507F035F907F0DEF900200C
:105AC00010BD0000FE4988707047FD48807870471F
:105AD000FB49C8707047FA48C0787047F8480078AA
