:1000000054464953000100008CD902005E6BC81CA5
:1000100017490311190123094E39593017490307AC
:10002000190123094E3959001749030219012309FF
:100030004E395930030000000000000000000000AD
:1000400054464353002000007C980200000000004A
:100050000080011001210000252100000518020088
:10006000292100002B2100002D2100003D2100004E
:100070003D2100003D2100003D2100002F21000016
:10008000312100003D21000033210000856E000079
:100090004F720000372100003D210000D9570010A9
:1000A00037210000974F00009B4F00007F71000038
:1000B00037210000C36A0000C56100009F4F0000A7
:1000C0007D6800003721000037210000F55C00004A
:1000D0000000000000000000000000000000000020
:1000E0000000000000000000000000000000000010
:1000F0000000000000000000000000000000000000
:1001000000000000000000000000000000000000EF
:1001100000000000000000000000000000000000DF
:1001200000000000000000000000000000000000CF
:1001300000000000000000000000000000000000BF
:1001400000000000000000000000000000000000AF
:1001500000F003F800F020F8FEE70D480168890878
:100160008900002001C101C101C101C17047000027
:1001700030610010FEE7FEE7FEE7FEE7FEE7FEE780
:10018000FEE7FEE7FEE703480047FEE7FEE7000064
:10019000202100003D21000000F002F800F068F886
:1001A0000AA090E8000C82448344AAF10107DA45D2
:1001B00001D100F05DF8AFF2090EBAE80F0013F0BC
:1001C000010F18BFFB1A43F001031847C0330200A8
:1001D000203402000A444FF0000C10F8013B13F0E9
:1001E000070408BF10F8014B1D1108BF10F8015B90
:1001F000641E05D010F8016B641E01F8016BF9D183
:1002000013F0080F1EBF10F8014BAD1C0C1B09D1D9
:100210006D1E58BF01F801CBFAD505E014F8016B4B
:1002200001F8016B6D1EF9D59142D6D370470000DD
:10023000103A24BF78C878C1FAD8520724BF30C812
:1002400030C144BF04680C607047000000230024E4
:1002500000250026103A28BF78C1FBD8520728BFD6
:1002600030C148BF0B6070471FB51FBD10B510BD32
:10027000DFF80CD0FFF7F8FF07F04CFA1FF0DCFABC
:100280000080011003B4FFF7F1FF03BC1FF0DCFA9C
:1002900008B5002103200B460A4600911DF0DCFD45
:1002A00008BD38B5F94D0024AC81EC812C821DF0DD
:1002B000AAFD2862FF206872F548234622460460A2
:1002C000446004720120A872AC612C706C70032031
:1002D000214600941DF0C0FD012038BD38B5EB4D1E
:1002E00002286C7A22460DD0052810D0A24208BF01
:1002F00038BD002003460246214600901DF0ACFDAB
:100300006C7238BD022914BF01240224EEE70229D1
:1003100014BF64246524E9E738B513460A464FF054
:10032000010C00240146604600941DF095FD38BD87
:1003300038B500240EF05CFC002818BF012413F02F
:100340000CFE002818BF0224D0484178A14208BF03
:1003500038BD4470032000230146224600931DF05F
:100360007BFD38BDC9498A78824208BF704708B50D
:1003700002008A704FF003004FF0020118BF012203
:10038000002300931DF068FD08BD38B502004FF052
:1003900003004FF0040C18BF012200240B466146F5
:1003A00000941DF059FD38BDB8490120C870704750
:1003B000B648C0787047B5490020C87070472DE92D
:1003C000F04104460127002503F00700AF4E8846A0
:1003D000012804BF0020308246D0022844D1308A50
:1003E00004280BD2002818BFF06902D11DF0FEFED0
:1003F000F06110F8011B2170F0612EE0062808D290
:100400001DF0F6FE318AC1F10501C900C840207017
:1004100023E0082808D21DF0EFFE318AC1F1070160
:10042000C900C840207018E00C2808D21DF0EBFC71
:10043000318AC1F10B01C900C84020700DE00E28BF
:1004400008D21DF0E2FC318AC1F10D01C900C8409B
:10045000207002E0FF2020700027308A401C80B20C
:1004600030820E2828BF012588F800503846BDE8A4
:10047000F08130B403F007000024DFF810C2012837
:1004800003D013F0070F07D01FE0ACF80C40ACF816
:100490000E40ACF8104018E07C4BBCF810009B8973
:1004A000022805D2120242EA1322ACF80C2009E01D
:1004B00003449D1EB5F5806F04DADCF820502B4410
:1004C00003F8022C401CACF810000C7030BC00206B
:1004D0007047F0B40746002003F007046B4D064652
:1004E000012C04BF2E826E6125D0DFF8A0C1022C42
:1004F000BCF80EC003D013F0070F0DD01BE02A8A02
:100500000CEB0203B3F5806F15D2286AC05C38701B
:10051000501C288201200EE0120242EA1C22EA81CD
:100520006B69012B05D1B2F5806F24BF40F2FF3219
:10053000EA815A1C6A610E70F0BC704738B503F04E
:10054000070000240D4601280AD1504821460B46D9
:1005500004828481C48102200A4600941DF07CFC40
:100560002C70002038BD30B50C004AA183B009685A
:100570004FF00002029108BF03250AD0217802AB98
:100580005D5C002D18BF022D41D0012D7DD0032DC3
:100590000DD10F2101700321417042808280C28001
:1005A000028142818281817B21F001018173002DD2
:1005B0001EBF012D03B030BD07F0C0F805281CBFD9
:1005C00003B030BD0EF073F8042804BF03B030BD93
:1005D000002D0CBFC020C1208DF8000060788DF880
:1005E000010060880123000A8DF80200A0788DF8D0
:1005F0000300A0880622000A8DF8040020798DF8F7
:1006000005006946072012F0A3FA03B030BD6178F7
:1006100000EB011202F8101C617800EB011101F8E7
:100620000F5C6278618800EB021222F80E1C62787F
:10063000A18800EB021222F80C1C6278A17900EB71
:10064000021222F80A1C6278217A00EB021222F8C8
:10065000081C6278617A00EB021222F8061C6278AC
:10066000217B00EB021222F8041CE1790529617854
:1006700000EB011010F8021C0EBF41F0010121F047
:10068000010100F8021C92D138E005E0008400105E
:10069000BC88001003000201617800EB011303F82D
:1006A000101C6378012100EB031303F80F1C63781F
:1006B000618800EB031323F80E1C6378A18800EB1C
:1006C000031323F80C1C617800EB011121F80A2CAC
:1006D000617800EB011121F8082C617800EB011121
:1006E00021F8062C617800EB011121F8042C6178C7
:1006F00000EB011010F8021C21F0010100F8021CAF
:1007000055E76449002008717047624800797047D6
:1007100060490120087170475F4A1154704710B555
:1007200082B001788DF8001041788DF80110817841
:100730008DF80210C1788DF8031001798DF804103E
:1007400041798DF8051080798DF8060000248DF828
:1007500007401AF041F9002804BF9DF800004A281C
:1007600006D19DF801104B48002918BF047004D031
:1007700068461FF07FF802B010BD01210170816949
:10078000491C8161F4E770474249002818BF0120E5
:10079000887270473F48807A70473E48407970477A
:1007A00008B5002814BF012200223A4801214271F5
:1007B0000320002A18BF0122002300931DF04CFBE8
:1007C00008BD3448407970473249887170473148D4
:1007D0008079002818BF01207047014600200729B2
:1007E00004BF2E487047082908BF2D48704710B431
:1007F0004FF0000C072808BFDFF8A0C003D008287E
:1008000008BFDFF89CC04FF0000093B1002A9CBFE6
:1008100010BC70473CF9103031F91040234403EB11
:10082000D3735B102CF81030401C8242F2D810BCFD
:100830007047002A9CBF10BC704731F810302CF86C
:100840001030401C8242F8D810BC70471148007824
:10085000002818BF012070470E48806970470D4975
:1008600088617047002818BF01200A49C871704785
:100870000848C079002818BF01207047002818BF19
:1008800001200449087270470248007A002818BF06
:100890000120704700840010BC880010E68800101A
:1008A000C68800107047FE48D0F8500300F00100E1
:1008B000704770B5FA4D04000AD002F0CDFA38B98D
:1008C000D5F8500310F0010F1CBF0020A86005D11F
:1008D0000120A860002C08BF00200FD004F08EFB80
:1008E00000281CBFD5F8500310F0010F05D004F00C
:1008F0007FFB002818BF04F08DFB0120286270BD2B
:10090000E748006A002818BF01207047C00000F1C6
:10091000804000F5A04041637047C00000F1804076
:1009200000F5A040006B00F4807070471021C000FB
:1009300000F1804000F5A0404163704730B4820967
:10094000D84B00F00F0000EB400053F822404FF46A
:10095000847505EB8015D1F800C044F805C053F844
:1009600022204FF4867303EB80104968115030BC8D
:1009700070478209CB4850F82200D0F8402161F33B
:100980000D22C0F840217047C649800951F8200067
:10099000D0F84001C0F305207047C149D1F840218B
:1009A00060F31742C1F840217047BD48D0F84001BC
:1009B000C0F3074070474FF4A072C0F3011302EB7D
:1009C0008312DFF8E0C200F00F03800903EB43035A
:1009D0005CF82000002900EB8310815814BF41F01F
:1009E000010121F0010181507047AE4A810952F89E
:1009F000212000F00F0101EB410102EB8111C0F356
:100A000001104FF4A07202EB8010085800F00100B2
:100A10007047A44A810952F82110D1F8E01100F082
:100A20000F00012201F0070102FA00F0084018BF90
:100A3000012070474FF4A072C0F3011302EB831240
:100A4000DFF860C200F00F03800903EB43035CF89A
:100A50002000002900EB8310815814BF41F00201EF
:100A600021F00201815070478E4A810952F82120FD
:100A700000F00F0101EB410102EB8111C0F3011005
:100A80004FF4A07202EB80100858C0F3400070478A
:100A90008109854A01EB410102EBC10100F00F021F
:100AA00001EBC201C0F3011051F8200070477E49EC
:100AB00082091CD00122B2EB901F18BF70477B48FF
:100AC0000068C0F30800886179480268C2F30842F0
:100AD0000A620068C0F30800486276480268C2F300
:100AE00008428A620068C0F30800C86270476C4818
:100AF000D0F82421C2F308020A60D0F8E421C2F33E
:100B000008428A60D0F8E421C2F30802CA60D0F833
:100B1000A422C2F308420A61D0F8A402C0F308007C
:100B2000486170472DE9F0030122830900F00F01AD
:100B3000C0F3011CC0F3011622EA0C0C00290BBF04
:100B400002254D1E00224FEA0C124FF0080404EB60
:100B5000CC04554F03EB430C07EBCC0C0CEBC10161
:100B6000DFF8408151F826604FF4587C58F8231084
:100B70000CEBC50551F805C000F00F001CF0010F8B
:100B800000EB40004FF4927C0CEB801C40F2FF170E
:100B900029D04348D0F844034FF032090005000D36
:100BA00006FB09F60EBF0120B6FBF0F0401CFF2843
:100BB00088BFFF204E594FF0FF0909FA04F9C0B26F
:100BC00026EA0906A0403043485158F8230050F85F
:100BD0000C3007FA02F123EA0102114340F80C102D
:100BE000BDE8F003704751F80C0007FA02F3984390
:100BF000C6F3080303FA02F2104341F80C00BDE803
:100C0000F003704710B50020FFF78CFF0120FFF7BD
:100C100089FF1120FFF786FF0220FFF783FF1220D4
:100C2000FFF780FF4020FFF77DFF4120FFF77AFFAD
:100C30005120FFF777FF4220FFF774FFBDE8104017
:100C400052206FE72DE9F04707464FEA9016154806
:100C50000D0050F826404FF000002062C4F840011B
:100C6000C4F80002C4F84002C4F8C002C4F800038B
:100C700008BFBDE8F0872868206068686060616828
:100C80000120002908BF60600B490860A868A060C7
:100C9000E868E0602869A0616869E061E8690DE0E2
:100CA0000050004004500200088900102459004000
:100CB000E4590040A45A0040045800406062286A89
:100CC000E06221206063E063686A2064A86A60646F
:100CD000E86AA064286BE064686B2066A86BA06675
:100CE000E86B6067286CA067686CE067A86CC4F864
:100CF0008000E86CC4F88400286DC4F88800686D32
:100D0000C4F88C00A86DC4F89000E86DC4F8A40085
:100D1000286EC4F8A800686EC4F8AC00A86EC4F8C9
:100D2000B000E86EC4F8B400286FC4F8B800686F6B
:100D3000C4F8BC004FF0FF30C4F8E400A86FC4F85A
:100D4000F000E86FC4F8F400D5F88000C4F8FC00A7
:100D50004FF4107205F1840104F580701EF08FFDD0
:100D6000D5F8C40220F48030C4F84003D5F8C80296
:100D7000C4F84C03D5F8CC02C4F85003D5F8D0021F
:100D8000C4F85403D5F8D402C4F85803D5F8D802EF
:100D9000C4F85C03002005EBC002D2F8DC3204EB9F
:100DA000C001C1F86033D2F8E022C1F86423401CCE
:100DB0000328F0DBD5F8F402C4F87803D5F8F8027C
:100DC000C4F87C03D5F8FC02C4F80004D5F800038D
:100DD000C4F80404D5F80403C4F80804D5F80803DB
:100DE000C4F80C04D5F80C03C4F810040022002148
:100DF00004EBC20805EBC20000EB8103D3F81093AB
:100E000008EB810CCCF83094D3F83893CCF8589494
:100E1000D3F86033CCF88034491C0229ECDB05EBB5
:100E20008200D0F8883304EB8201C1F8A834D0F8EE
:100E30009C33C1F8BC34D0F8B003C1F8D004521CC4
:100E4000052AD4DB002E14BFFD48FE48006830F0B0
:100E5000FF0105D1D4F8901060F30301C4F890109D
:100E6000D4F8500320F00100C4F85003D4F8600314
:100E700020F00100C4F86003D4F8680320F00100FA
:100E8000C4F86803D4F8700320F00100C4F87003BC
:100E90003846BDE8F0470AE6EB4800787047EA4874
:100EA00040787047E84988707047E7488078704715
:100EB000E649D1F8542360F30902C1F8542370477E
:100EC000E248D0F85403C0F309007047DE49486097
:100ED0007047DD4840687047DB4988607047DA48F2
:100EE00080687047D849C86070472DE9F05F0446B4
:100EF0000027384614F4803F18BF012014F4003F47
:100F000018BF40F0040014F4802F18BF40F0020016
:100F100014F4002F18BF40F0100014F4001F18BF85
:100F200040F0400014F4800F18BF40F0080014F4A3
:100F3000000F18BF40F02000DFF80C83DFF80C939F
:100F400098F8021010EA0105D9F8400320F4803027
:100F5000C9F8400336D0D8F80C60D9F84803002708
:100F600040F00100C9F84803D9F8480320F0010017
:100F7000C9F84803D9F8400340F48030C9F8400369
:100F80004FF0630ADFF8C8B216E004F07EF950466D
:100F9000D9F8481311F0010F0AD0D9F8440300051D
:100FA000000D1CBFBBFBF0F0C8F80800012703E0F0
:100FB000011EA0F10100EBDC301EA6F1010601DDEF
:100FC000002FE2D0D9F8500320F00100C9F85003F7
:100FD000D9F8600320F00100C9F86003D9F868036C
:100FE00020F00100C9F86803D9F8700320F001006F
:100FF000C9F870039748016821F001010160964922
:101000000A6822F001020A60944A136823F001037F
:1010100013604FF0010A0026EFB315F0010F05D061
:10102000D9F8503343F00103C9F8503315F0040FD9
:1010300005D0D9F8703343F00103C9F8703315F0C7
:10104000020F05D0D9F8603343F00103C9F86033CB
:1010500015F0100F05D0D9F8683343F00103C9F833
:10106000683315F0400F03D0136843F00103136099
:1010700015F0080F03D0026842F00102026015F07B
:10108000200F03D0086840F00100086088F8015084
:1010900088F800A000E006E0D9F8400340F4803072
:1010A000C9F8400320E088F80160ADB1022088F85B
:1010B0000000D9F8400340F48030C9F84003D9F863
:1010C000480340F00100C9F84803D9F8480320F06C
:1010D0000100C9F8480307E0D9F8400320F4803044
:1010E000C9F8400388F80060D9F8400114F0010FF6
:1010F00020F00D0018BF40F0010014F0040F18BFDD
:1011000040F0040014F0020F18BF40F00800C9F8C6
:101110004001D9F8000214F0100F14BF40F0010094
:1011200020F00100C9F80002D9F8400214F0200FA5
:1011300014BF40F0010020F00100C9F84002D9F8C6
:10114000C00214F0400F14BF40F0010020F0010075
:10115000C9F8C002D9F8000314F0800F14BF40F0A2
:10116000010020F00100C9F800033D4D14F4805F38
:10117000286814BF40F0010020F001002860394FBA
:1011800014F4005F386814BF40F0010020F0010043
:101190003860DFF8D48014F4804FD8F8000014BF12
:1011A00040F0010020F00100C8F80000DFF8BCB0FA
:1011B00014F4004FDBF8000014BF40F0010020F0F1
:1011C0000100CBF800002A49086814F4807F20F061
:1011D0000D0018BF40F0010014F4806F18BF40F0FC
:1011E000040014F4007F18BF40F0080008600020DD
:1011F000FFF798FC0120FFF795FC1120FFF792FC08
:101200000220FFF78FFC1220FFF78CFC4020FFF735
:1012100089FC4120FFF786FC5120FFF783FC422028
:10122000FFF780FC5220FFF77DFC286810F0010FCB
:1012300006BF386810F0010F022274D01AE00000D7
:10124000F0FE0400E0FE0400248400100050004082
:1012500080F0FA02605B0040685B0040705B004019
:10126000005A0040405A0040C05A0040005B004015
:1012700040590040D9F8000210F0010F06BFD9F81C
:10128000400210F0010F01235BD0FE49501E0860A0
:10129000FD490AFA02F0086003EB4300800100F107
:1012A000804101F5A041D1F800C102EB420080016C
:1012B00000F1804000F5A040C0F800C9D1F818C185
:1012C000C0F818C9D1F824C1C0F824C9D1F840C168
:1012D000C0F840C9D1F844C1C0F844C9C0F8506949
:1012E000C0F85469D1F880C1C0F880C9D1F8841120
:1012F000C0F88419C0F89069C0F89469D80000F16A
:10130000804000F5A040D0F85833D10001F1804171
:1013100001F5A041C1F8583BD0F85C03C1F85C0B63
:10132000BDE8F09FFFE7D8F8000010F0010F06BFFE
:10133000DBF8000010F0010F01227FF47FAFBDE861
:10134000F09FD9F8C00210F0010F06BFD9F80003D2
:1013500010F0010F022398D1BDE8F09F2DE9F04F66
:10136000840900F00F0343EA8411C84D4FEA911C31
:10137000C1F3011855F82C6003EB430C06EB8C17F6
:101380004FF4A07606EB8818024657F80870002044
:1013900017F0010F10D141F010018F09C1F30111B5
:1013A00055F8277006EB811107EB8C17795811F06F
:1013B000010F08BFBDE8F08F55F82410CF6907F082
:1013C000080801EB8C17D7F80011DFF8C4A204EB72
:1013D000440C0AEBCC0C1FFA81F902F00F05002136
:1013E00003EB43060CEBC505C2F3011A43EA0112F5
:1013F00042EA8412DFF894C2C2F3811B5CF82BC06E
:10140000C2F3011B4FF4A0720CEB861C02EB8B1293
:101410005CF8022012F0010F1AD007EB811C55F87E
:101420002A20DCF844B1B8F1000FCBF3080B0EBF53
:101430004FF0000CDCF844C1CCF3023C02EBC20ECE
:101440000EEB021200EB42000BFA0CF202FB090059
:10145000491C0229CAD3BDE8F08F2DE9F041850966
:10146000AA018A489309002450F82300D0F84011BB
:1014700011F0010F34D0864E03EB430306EBC30398
:1014800002F00F0603EBC603C2F3011211F0040FC2
:1014900053F82220D0F8003101F0080C9EB2D0F8A9
:1014A0004431C3F3080318BFC1F30744C769C1F34C
:1014B000052117F0080F1ABFD0F84401C0F302301D
:1014C0000020BCF1000F18BF491C03FA00F001FB1B
:1014D000004002EBC201704301EB021100EB41043A
:1014E000012040EA8510FFF739FF0646022040EA56
:1014F0008510FFF733FFA1190844BDE8F08110B54E
:101500000020FFF7AAFF4FF47A7148434CF25031A4
:10151000B0FBF1F010BD5F484068C0F30C007047AD
:1015200070B504460020FFF798FF05464020FFF7FE
:1015300094FF35B3574BB0B141F288310844A8420B
:1015400011D9421B186800F01F0104FB01F000EBE9
:10155000C00C0CEB0010B2EB400F04D93220484312
:10156000B2FBF0F0441CB4F5005F28BF41F6FF74F5
:1015700002D2002C08BF0124586864F30C005860A4
:1015800070BDB4F5005F28BF41F6FF7402D2002C95
:1015900008BF01244048016864F30C01016070BD7C
:1015A0002DE9F0413B4F0646386810F01F0508BF93
:1015B00001250020FFF751FFDFF8E0800446002EF0
:1015C00018BF002C3FD0364900204A68002A08BFC7
:1015D00001223309B3FBF2F1D7F850C31CF0010F1D
:1015E0001BD0B3EB420F1DD32E49B1FBF2F3B6FB78
:1015F000F2F10A09B3FBF4F1102928BF0F218A4246
:1016000098BF114639B1012984BF01FB1430B0FBEA
:10161000F1F007D908E0012109E0B8FBF6F2A24297
:1016200088BF101B0029F6D0102988BF0F21D7F8DA
:101630005C2361F30302C7F85C2332216943B0FBEA
:10164000F1F0FFF76DFF7868C0F30C00684300EB22
:10165000C00101EB001004EB4000B8FBF0F0BDE866
:10166000F08170B50B4D0024D5F8500310F0010F38
:101670001AD00B48D5F85C13406801F00F014843BD
:10168000040126E024580040E059004004500200C4
:101690000889001000500040045800400008AF2F97
:1016A0002484001080F0FA020020FFF7D6FE0246E4
:1016B0002868696800F01F00C1F30C01414301EB89
:1016C000C10000EB011012EB40001CBFFE49B1FB52
:1016D000F0F4204670BD002818BF0120FB49D1F866
:1016E0005C2360F30302C1F85C237047F748D0F82D
:1016F0005C0300F00F0070478109F54A00F00F000D
:1017000000EB400052F821104FF4807202EB801081
:101710000858F04980B2B1FBF0F0401C4008704717
:101720002DE9F041EA4B8209DFF8A8C353F82230D3
:1017300000F00F0731B1BCFBF1F1491C4A08B2F5CA
:10174000004F01D347F6FF72BCFBF2F1491C4D0874
:10175000D3F880104FEA520C01F00704D3F8801040
:10176000DB4B4FEA9018C1F3031600F00F0153F85A
:10177000283001EB410103EB81112FB3D1F8043183
:10178000F61C74439BB2A2EB4404D1F8006124F030
:10179000010462F30F06C1F80061D1F800216CF377
:1017A0001F42C1F80021D1F8042163F30F02C1F8F0
:1017B0000421D1F8182164F30F02C1F8182101F0B7
:1017C0008FF82846BDE8F081F61CACF10E03744397
:1017D000A3EB4404D9E78109BD4A00F00F0000EBF8
:1017E000400052F821104FF4807202EB801008582C
:1017F000000C7047830910F00F02B54850F8230021
:1018000002EB420300EB8313D3F800C161F31F4CDA
:10181000C3F800C118BF7047D0F8802002F007035A
:10182000D0F88020C2F30312D21C5A430E39A1EB28
:101830004202D0F8043122F0010261F30F03C0F834
:101840000431D0F8181162F30F01C0F81811704775
:101850009F4A810952F8212000F00F0101EB41015C
:1018600002EB8111C0F301104FF4A27202EB801061
:101870000858C0F308007047F0B4954B840900F095
:101880000F0C53F824300CEB4C0503EB8516C0F31A
:101890000112D6F81C5106EB82164D1BD6F8447186
:1018A00061F30807C6F844714CEA021141EA841159
:1018B00001F00F02C1F3011101EB4201864A03F569
:1018C000C07352F821104A08C90753F822C0C90E44
:1018D00040F2FF148C402CEA040CAD1EC5F3080442
:1018E00004FA01F14CEA010143F82210F0BC00F0C7
:1018F000F7BF830900F00F01C0F30112744850F8DC
:101900002300C36901EB410100EB811013F0100FBC
:10191000D0F8281100EB8210C9B2D0F84401C0F30E
:10192000080008BF0021401A0004000C08BF012075
:10193000704703091B0203EB810101F1405101F5DE
:1019400000310007C00E0B6802FA00F0184308606F
:1019500070470209120202EB810101F1405101F5C9
:10196000003100070968C00E21FA00F000F0030002
:10197000704770B4DFF858C1820900F00F035CF8BB
:10198000225003EB4303C0F301104FF4A87605EB9C
:10199000831506EB80160C68AC515CF82220496870
:1019A00002EB83124FF4AA7303EB8010115070BC4A
:1019B000704730B4DFF818C1820900F00F035CF8FB
:1019C000224003EB4303C0F301104FF4A87504EB6E
:1019D000831405EB801564590C605CF8222002EB3F
:1019E00083124FF4AA7303EB80101058486030BC88
:1019F0007047374910B4820983B051F8222000F0B3
:101A00000F0101EB410102EB8111C0F301104FF412
:101A1000A87202EB80128A5800924FF4AA7202EB6D
:101A2000801008580190002001466A4601234FEAC1
:101A3000511C01F01F0452F82CC003FA04F41CEAF4
:101A4000040F18BF401C491C2629F0D303B010BC5A
:101A5000704730B4002210F00F0F06D000F00F02D4
:101A6000C0F3011303EB4202521E194B80094FF4DD
:101A7000866553F8204005EBC205D1F800C044F854
:101A800005C053F8200040F2344303EBC20249681A
:101A9000815030BC704710B4002210F00F0F06D0F8
:101AA00000F00F02C0F3011303EB4202521E084B79
:101AB00080094FF4866453F820C004EBC2045CF83C
:101AC00004C0C1F800C009E00008AF2F005000407A
:101AD00004500200A08601000C50020053F82000C0
:101AE00040F2344303EBC2028058486010BC704798
:101AF000FE48C06870470022FD49830951F8231051
:101B0000CB6913F0080F0ED000F00F0202EB420277
:101B100001EB8211C0F301104FF4A27202EB8010AE
:101B20000858C0F3023210467047DFF8C4C310B43F
:101B300082095CF82230DC6944F00804DC615CF85E
:101B4000223000F00F0202EB420203EB8212C0F3DC
:101B500001134FF4A27000EB8310135861F30E339E
:101B6000135010BC70470022E149830951F823103B
:101B7000CB6913F0080F0ED000F00F0202EB420207
:101B800001EB8211C0F301104FF4A47202EB80103C
:101B90000858C0F3024210467047D54A830952F8EC
:101BA000233000F00F0202EB420203EB8212C0F37B
:101BB00001134FF4A47000EB8310135861F3124328
:101BC00013507047042988BF70472DE9F0030027A0
:101BD000DFF81C83840958F82430DA69C0F3011C4B
:101BE00012F0080F4FF4A27202EB8C1C00F00F02EF
:101BF00002EB420205D003EB821555F80C50C5F3F9
:101C00000237DD69002615F0080F4FF4A475C0F304
:101C1000011005EB801504D003EB82104059C0F38E
:101C20000246C91B7018042803DD081A011D042090
:101C300003E00028BCBF014400207E18D96941F0B0
:101C40000801D96158F8241001EB821151F80C30C9
:101C500066F30E3341F80C3058F8241001EB821172
:101C60004A5960F312424A51BDE8F0037047A04A56
:101C70008009002952F82000816914BF41F0080151
:101C800021F00801816170479949800951F82000CD
:101C90008069C0F3C0007047954A8009002952F856
:101CA0002000816914BF41F0020121F0020181612D
:101CB00070478F49800951F820008069C0F34000C7
:101CC00070478B4B820953F8223000F00F0202EB71
:101CD000420203EB8212C0F301104FF4A67303EB30
:101CE000801011507047824A810952F8212000F07B
:101CF0000F0101EB410102EB8111C0F301104FF420
:101D0000A67202EB801008587047784A10B4D2F8D7
:101D1000400110F0010F0BD0D2F84C01D2F8441161
:101D20000028C1F302311EBF0029C043C2F84C0194
:101D30000123002003EB43018C0104EB801101F12E
:101D4000804101F5A041D1F8402112F0010F0CD0E3
:101D5000D1F84C21D1F844C1002ACCF3023C1EBF7B
:101D6000BCF1000FD243C1F84C21401C0228E4D33F
:101D70005B1C032BDDD310BC704700225C49830938
:101D800051F82310CB6913F0080F0ED000F00F02AA
:101D900002EB420201EB8211C0F301104FF4A47276
:101DA00002EB80100858C0F3005210467047012023
:101DB00070472DE9F04F82B0022ADDE90B49DDF8CA
:101DC000348026BF921E4FEA520C4FF0000C022BBB
:101DD00026BF9A1E53080023464AA2FB0442170955
:101DE000B8F1000F14BF012200220192B9F1020FD5
:101DF00016BF5FEA09024FF0010B4FF0000B82099A
:101E00003B4C00F00F0606EB460554F822404FF419
:101E1000B27E04EB851AC0F301140EEB841ECDF8DC
:101E200000A05AF80EA061F35C6A6BF3186A05D142
:101E300067F3174A63F3CA1A6CF3C60A019969F388
:101E4000420A61F3000A0099DFF8A49041F80EA05D
:101E500059F822204FF4B471C0F3011A01EB8A1132
:101E600002EB8512B8F1000F555814BF45F08005FC
:101E700025F0800555500125B5EB901F1CBF02B021
:101E8000BDE8F08F04EB46001B4951F820201831C3
:101E900011F8208006EB4600800100EB841000F171
:101EA000804000F5A040D0F850491449FF26A1FB1E
:101EB00002914908A1EB81094A44D2009640FFB241
:101EC00097404FEA8802002003F00F0393400CF084
:101ED0000F0C4FF00F090CFA02FC09FA02F24FEA5C
:101EE000810805FA00F121422DD009E000500040A0
:101EF00004500200CDCCCCCC24500200ABAAAAAA3C
:101F000008EBC00101F1804101F5A041D1F8809CAE
:101F100029EA060949EA0709C1F8809C810001F114
:101F2000804101F5A041D1F8A89C29EA020949EABB
:101F30000309C1F8A89CD1F8BC9C29EA020949EA26
:101F40000C09C1F8BC9C401C0528CAD302B0BDE8EE
:101F5000F08F2DE9F04F84B0DDE90EA8DDF834C034
:101F6000B8F1000F14BF012400240294BAF1020F4B
:101F700016BF5FEA0A044FF0010B4FF0000B840913
:101F8000FA4D00F00F0707EB470655F824504FF4C1
:101F9000B27E05EB8619C0F301150EEB851ECDE967
:101FA000009E59F80E9061F35C696BF318697CD060
:101FB00002996AF3420961F30009DDE9001BDFF8C9
:101FC000ACA341F80B904FF4B4715AF82440C0F31D
:101FD000011901EB891104EB8614B8F1000F665862
:101FE00014BF46F0800626F0800666500126B6EB48
:101FF000901F1CBF04B0BDE8F08F05EB4700DC4923
:10200000DC4C51F8201054F8204007EB47008001C9
:1020100000EB851000F1804000F5A040D0F8500999
:10202000D54DFF26A5FB01756D08A5EB8507394445
:102030004FEAC109009006FA09FE00200F21A40012
:10204000A1404FEA850B012505FA00F6009D2E42BE
:1020500041D01568022D26BFAD1E6D080025121D4A
:102060001E68022E26BFB61E760800265CF8048B7A
:10207000C24FA7FB08874FEA07580BEBC00707F1D1
:10208000804707F5A047D7F880AC4FEA18682AEADE
:102090000E0A08FA09F84AEA0808C7F8808C87008F
:1020A00007F1804707F5A04700E01AE0D7F8A88CB1
:1020B00006F00F0628EA0108A64048EA0606C7F817
:1020C000A86CD7F8BC6C05F00F058E43A5403543CE
:1020D000C7F8BC5C1B1D401C0528B4D304B0BDE888
:1020E000F08F1168022926BF891E49080021D3F804
:1020F00000B0BBF1020F26BFABF1020B4FEA5B0B46
:102100004FF0000BCDF80CB0DFF870B2DCF800E057
:10211000ABFB0EEB4FEA1B1B6BF31749DDF80CB062
:102120006BF3CA1961F3C60942E72DE9F00F8F4D31
:1021300084094FF4B27955F8244000F00F0505EBFF
:10214000450604EB8614C0F3011609EB8619DDE998
:10215000098754F80940DDF820C0C4F3436BC4F389
:10216000410904F0010A002918BFC1F800B0B8F114
:10217000000F18BFC8F80090002F18BFC7F800A0C4
:1021800081094FF001085BD0B8EB901F1CBFBDE880
:10219000F00F704706EB45007549764C51F820105A
:1021A00054F820B005EB4500800100EB861000F1EB
:1021B000804000F5A040D0F850A96F4C0020A4FB4F
:1021C000015464084FEA8409A4EB84042144CF003D
:1021D0004FEA8B0508FA00F111EA0A0F2AD009EB41
:1021E000C00101F1804101F5A041D1F8801CF94006
:1021F000840004F1804404F5A044C9B2D4F8A86C6A
:10220000D4F8BC4CEE4006F00F06EC4004F00F048E
:102210001AB16400A41C42F8044B1BB17400A41C46
:1022200043F8044BBCF1000F04D001EB810189009D
:102230004CF8041B401C0528CCD3BDE8F00F7047B8
:10224000C4F30740C4F3C311C4F3C30412B1640060
:10225000A41C146013B14900891C1960BCF1000F63
:1022600004BFBDE8F00F704700EB80008000CCF8A1
:102270000000BDE8F00F70473C4A8009002952F881
:102280002000C16914BF41F0200121F02001C1618B
:1022900070473649800951F82000C069C0F34010EA
:1022A000704730B490B000224FF48045EC466C107B
:1022B00001E0082A05D2531C03EB8303B5FBF3F3BB
:1022C00004E0D31F03EB8303B4FBF3F35B1A48BFB3
:1022D0005B424CF82230521C102AEAD30023009CA7
:1022E00001215CF82120A242BCBF14460B46491CC8
:1022F0001029F6D300F00F0202EB42014FEA8111E0
:10230000C0F3011C01EB8C1101F18041840901F53E
:10231000A04135D00124B4EB901F1EBF10B030BCDB
:1023200070470CEB4200D1F850C9124A12F8202035
:102330000F25910000208D4003F00F028A4004FA1F
:1023400000F111EA0C0F0AD0810001F1804101F582
:10235000A041D1F8D03CAB431343C1F8D03C401C62
:102360000528ECD310B030BC7047000004500200C8
:10237000245002003C500200ABAAAAAACDCCCCCC7F
:10238000D1F8680163F30300C1F86801EAE7810945
:102390001CBF0020704700F00F0101EB41018901D3
:1023A000C0F3011001EB801000F1804000F5A04067
:1023B000D0F8680100F00F00082834BF401CC01F8F
:1023C00000EB800034BF4FF480414FF40051B1FB6B
:1023D000F0F070472DE9F0074FF0010991B0B9EB2B
:1023E000901F1EBF11B0BDE8F007704700F00F024C
:1023F000C0F3011000EB420302EB4202920102EB38
:102400008010DFF83CC500F1804000F5A0405CF88A
:102410002330D0F850A90F204FEA83084FF0000C6A
:102420004FF480466C4600FA08F709FA0CF010EAFF
:102430000A0F36D051F8043B00204FF4005501E05C
:10244000082805D2421C02EB8202B6FBF2F204E03D
:10245000C21F02EB8202B5FBF2F2D21A48BF52420F
:1024600044F82020401C1028EAD30025009B0120BE
:1024700054F820209A42BCBF13460546401C102841
:10248000F6D34FEA8C0000F1804000F5A040D0F870
:10249000D02C05F00F03BA4303FA08F31A43C0F82F
:1024A000D02C0CF1010CBCF1050FBED311B0BDE86E
:1024B000F007704770B40124B4EB901F1CBF70BCD0
:1024C000704700F00F02C0F3011000EB420302EB73
:1024D00042029201DFF868C402EB801000F18040F4
:1024E00000F5A0405CF82330D0F850C900209B00D4
:1024F0004FF480456E1004FA00F212EA0C0F16D069
:10250000820002F1804202F5A042D2F8D02CDA40DB
:1025100002F00F02082A34BF521CD21F02EB8202C3
:1025200034BFB5FBF2F2B6FBF2F241F8042B401CCB
:102530000528E0D370BC704700F00F02C0F3011310
:1025400003EB4202FE4B8009A3F1380C53F8222022
:102550005CF8200001230029D0F8101403FA02F2DD
:1025600014BF11439143C0F81014704700F00F01DD
:10257000C0F3011303EB4101F14B0022800913F872
:102580002110383B53F82000D0F81004012303FA3F
:1025900001F1084218BF01221046704770B410F0D4
:1025A000300F14BF012300238609DFF898C300F021
:1025B0000F024FEA90104FF49A7502EB42025CF85A
:1025C00020004FF0010405EB821214D085584FEA29
:1025D000430C5B420CEB43039B1C04FA03F35B1EAE
:1025E00003FA0CF4194025EA040401FA0CF1214322
:1025F000815070BC70470029815804FA03F31ABF58
:10260000194381509943F3D070BC704730B410F037
:10261000300118BF012184094FEA9013C94D00F021
:102620000F0000EB40004FF49A7202EB801255F855
:1026300023004FF0010C0CD082584800C2404942A0
:1026400000EB4100801C0CFA00F0401E30BC104032
:10265000704780580CFA01F1084018BF012030BCC7
:102660007047B84B800953F820C0CCF8741053F869
:1026700020C01168CCF8781053F820005168C16769
:102680007047B1490028D1F8AC0014BF40F00200F7
:1026900020F00200C1F8AC007047AB490028D1F827
:1026A000AC0014BF40F0010020F00100C1F8AC0004
:1026B0007047A548D0F8E000A4490968084370476E
:1026C000A149C1F8E400A249086070479E48D0F8CB
:1026D0009800A049096840EA4100704770B44FEA89
:1026E0000075860900F00F044FEAD565C0F30110AC
:1026F000A5F1020502F0010C05444FEA8C334FEAC4
:10270000520012D001EB41017CB305EB4502D2002F
:1027100002EB8C3202EB810101EB800000F14050B2
:1027200000F5C030406A70BC704701EB410202EB1B
:1027300001117CB198226A4302EB8C3202EB8101D9
:1027400001EB800000F1405000F58030D0F88C0E95
:1027500070BC704703EB810101EB800000F1405039
:1027600000F58030006870BC7047FFE703EB810123
:1027700001EB800000F1405000F5C030006870BCF3
:102780007047F0B44FEA0076870900F00F044FEA73
:10279000D666C0F30110A6F1020602F0010C064451
:1027A0004FEA8C354FEA520012D001EB41017CB365
:1027B00006EB4602D20002EB8C3202EB810101EB08
:1027C000800000F1405000F5C0304362F0BC70471B
:1027D00001EB410202EB01117CB19822724302EB42
:1027E0008C3202EB810101EB800000F1405000F5DA
:1027F0008030C0F88C3EF0BC704705EB810101EBE6
:10280000800000F1405000F580300360F0BC70475C
:10281000FFE705EB810101EB800000F1405000F57E
:10282000C0300360F0BC7047830900F00F02C0F3B2
:1028300001100CD0002A08BF474805D0012A17D044
:1028400000280CBF4548464800EB81307047002AFD
:1028500008BF4FF04050F7D0012A04D000280CBF29
:1028600040484148F0E7002814BF40484048EBE7A3
:10287000002814BF3F484048E6E710B44FEA007C08
:10288000840900F00F034FEADC6CC0F30110ACF1D7
:10289000020C604410D0002B08BF38481CD000EB5D
:1028A0004000C00000EB813002EB420100EB8100F0
:1028B000334910BC08447047002B08BF31480BD087
:1028C0009823584300EB813002EB420101EB0211E7
:1028D00000EB81002C49ECE710BC00EB8130704725
:1028E0002DE9F0074FEA901C00F00F04154804EBA7
:1028F000440150F82C0000F5C07300EB8110D0F8B3
:1029000000014FF47A7280B2B2FBF0F100FB1120AB
:10291000002818BF01200D181C4F002040F2FF16A0
:1029200044EA001141EA8C1101F00F02C1F30111D8
:1029300001EB420157F821104A08C907C90E27E0E8
:102940003C5002000450020000500040E05800409B
:10295000E45800409858004000800030E481003086
:10296000248300304C1800304C1D0030CC0E003059
:10297000CC090030648100302480003000800130B8
:1029800024800130000001308C0E01300C50020018
:1029900053F8228003EB820228FA01F8D2F80CA047
:1029A000A8EB050906FA01F8C9F308092AEA080A9A
:1029B00009FA01F14AEA0109C2F80C90D2F818901C
:1029C00029EA080848EA01019161401C0228A7D3BE
:1029D000BDE8F00770470000FDF792BF10B5FDF7A6
:1029E0008FFF012818BF10BD0020FDF762FF2121D5
:1029F0000020FDF78BFF2121BDE810400120FDF7ED
:102A000085BF10B5FDF74EFFFDF77AFF01280AD10B
:102A10000020FDF74EFF21210020FDF777FF212147
:102A20000120FDF773FF0121052001F022FE0121A5
:102A3000052001F01EFEF7490020887110BD10B579
:102A40004FF4066001F06BFEBDE810404FF40660E5
:102A500001F056BEEF4A01461079002818BF012048
:102A6000002918BF01211171002151717047E94AF5
:102A7000916A906208467047E6490020C8708870E5
:102A800048707047E3490020C870887048707047EC
:102A900010B5044601468422DF481CF0F0FE04F124
:102AA0008401BDE810408422DC481CF0E8BE70B50B
:102AB0000007C00E0D46801E00EB400101EB001424
:102AC000D7484FF4987200EBC40029461CF0D7FE9B
:102AD000D44805F5987100EBC400BDE870404FF490
:102AE00098721CF0CCBEDFF840C348B14A424FF4A4
:102AF000806300EB810103EB820260461CF0BFBEE5
:102B00004FF4806160461CF0BFBE2DE9F0410546E0
:102B10000020FDF739FFC54FDFF814830446EDB1FF
:102B20004C2004FB00F21646294638461CF0A7FE4E
:102B3000324605F5BE6140461CF0A1FE04EB4400A0
:102B400000EB041407EB84004C211CF09DFE08EB05
:102B50008400BDE8F0414C211CF096BE4C21401C85
:102B600041430C4638461CF08FFE21464046BDE8E6
:102B7000F0411CF089BE10B5A64C2062FEF7B5F9F5
:102B8000FEF78AF9A169A269C1F307216FF30F0269
:102B9000A261A369C2B243EA0222A261022803D160
:102BA000A26942F00102A26181421ABFE269002AD1
:102BB00010BD012918BF0021012818BF0020814243
:102BC00008BF10BDBDE8104010474FF0402081699C
:102BD00041F002018161016941F00301016100F0EE
:102BE000FCBF2DE9F0414FF04022054690690C46AC
:102BF00040F002019161106940F00300106100F0A3
:102C0000ECFF0027002C7CD00020FDF752FE0020B6
:102C10002168FEF717F840206168FEF713F8284690
:102C2000FFF7A9FF0020FDF7E0FE0126002832D0C3
:102C3000A068FFF76AFF7C48636953B1E1694FF40C
:102C4000806C4A420CEB820203EB81011CF017FE00
:102C50001AE0784D4FF480611CF016FE00202956D2
:102C600000290EDB0A09120202EB800202F1405237
:102C700002F500320907C90E136806FA01F119437B
:102C80001160401C2628EAD36B48A16969B14FF452
:102C900000721CF0F4FDE068A0B30120FDF7A5FE72
:102CA000DFF87C815F4E28B108E04FF400711CF022
:102CB000EBFDF0E71120FDF798FE68B1E5684046AE
:102CC0004FF4987229461CF0DAFD30464FF49872A2
:102CD00005F598711CF0D3FD0220FDF786FE18B9AA
:102CE0001220FDF782FE68B1E56854484FF49872EF
:102CF00029461CF0C4FD52484FF4987205F59871AE
:102D000001E017E001E01CF0BAFD4120FDF76DFE87
:102D100018B95120FDF769FE60B1246954B18422CD
:102D200021463D481CF0ABFD842204F184013B4860
:102D30001CF0A5FD3748C77087704770876201791E
:102D40000021017147714FF4066001F0E8FCBDE815
:102D5000F0414FF4066001F0D3BC10B50020FDF740
:102D6000A8FD00F02AFF2B48406B002808BF10BDCB
:102D70004FF04020016921F003010161816921F0D8
:102D80000201816110BD4FF4066001F0BEBC10B5B8
:102D90004FF4066001F0B9FCFDF7B2FD01280AD13D
:102DA0000020FDF786FD21210020FDF7AFFD212148
:102DB0000120FDF7ABFD2348D0F8401321F480310A
:102DC000C0F840130020FDF774FD00F0F6FE114836
:102DD000406B002808BF10BD4FF04020016921F072
:102DE00003010161816921F00201816110BD10B50B
:102DF00001F090FC10F0600018BF012010BD054AE2
:102E0000D169D061084670470248006A704701489E
:102E100080697047348400100080013000C00130A8
:102E20008C0E01308C4E0130000002300000013069
:102E3000004001303889001000400230BC0F0130E2
:102E4000BC4F01300050004072B6F9498A6922EA4D
:102E50000000886162B67047F5480078002818BF06
:102E60000120704770B5FDF74BFD002818BF70BDFD
:102E70000024EF4DEC70AC706C7021212046FDF702
:102E800045FD21210120FDF741FD2C70BDE870407A
:102E90000120FDF70EBD70B50446FDF731FD002899
:102EA00018BF70BD0021E24DE970A9706970212141
:102EB0000020FDF72BFD21210120FDF727FD022C2D
:102EC0003CBF0120FDF732FD012028706C62BDE897
:102ED0007040FDF7EEBC10B5FDF712FD002818BFDD
:102EE00010BD0020D24CE070A07060702121FDF771
:102EF0000DFD21210120FDF709FD0120FDF716FD43
:102F0000012020706062BDE81040FDF7D2BC0020B7
:102F1000FDF7CFBC10B5C64C0020A0706070212119
:102F2000FDF7F4FC21210120FDF7F0FC20780028BA
:102F30001CBF0120FDF7FAFC0120BDE81040FDF7A1
:102F4000B8BCBB49C8627047B948C06A7047B84945
:102F500008637047B648006B704770B5B44C0546BF
:102F6000E06A421CE262216B39B1B2FBF1F001FB75
:102F70001020002808BFFEF7C8FE207850B1606A14
:102F800010B1606A401E6062606A002804BF0020C1
:102F9000FDF78FFC20212846FDF7B8FCA16A002927
:102FA0001CBF28468847FDF777FF022815D1A148A6
:102FB000D0F8481311F0010F0FD0D0F8481341F0AA
:102FC0000101C0F84813D0F8481321F00101C0F8FE
:102FD0004813A06940F00200A0619748016841F0E1
:102FE0002001016070BD0020B7E70120B5E710B5F2
:102FF000FFF75FFB0446FFF763FB9048044208BFFE
:1030000010BD8B48816941F0040181610E2101EA04
:10301000D43104F001020A43816962F31F418161E6
:103020008548016841F02001016010BD002818BFEB
:1030300001207F4948637047814870478148704745
:103040007B48806B70477A48C179427A914214BFBD
:10305000C06B006C70477648006C70472DE9F04FEC
:103060000025DFF8DC918DB009F14C04AC466F1EF1
:1030700009F8057004F805C06D1C262DF8DB002545
:10308000002805DD565D09F805606D1CA842F9DCD5
:1030900000220126CDF804C06D46CDF800C00028FE
:1030A00021DD19F902B0BBF1000F19DBBBF1140FE0
:1030B000A8BFABF1140B04DABBF10A0FA8BF0BF1E8
:1030C000120BBBF1260F0BD24FEA5B180BF01F0B54
:1030D00055F828A006FA0BFB4AEA0B0A45F828A087
:1030E000521C8242DDDB002292460DF108084FEAB5
:1030F000521B02F01F0E55F82BB006FA0EFE1BEA0B
:103100000E0F1ABF08F802A00AF1010A08F80270AF
:10311000521C262AEBDB4FF0000A002816DD19F9B5
:103120000A20002A0EDB142AA8BF143A02DA0A2A5F
:10313000A8BF1232262A3ABF18F8022004F80A2043
:1031400004F80A700AF1010A8245E8DBDFF8E09032
:1031500000220028C9F838C009DD14F902A0924500
:1031600002D0C9F8384002E0521C8242F5DB364AF0
:103170000020A2F17204A2F1260A27540AF800C026
:1031800002F800C0401C2628F7DB0020002906DDDD
:1031900013F800B004F800B0401C8142F8DC0020B5
:1031A000CDF804C0CDF800C0002913DD2356002B54
:1031B0000DDB262B0BD24FEA531B03F01F0355F8F0
:1031C0002BE006FA03F34EEA030345F82B30401CCC
:1031D0008842EBDB002003464FEA501B00F01F0E35
:1031E00055F82BB006FA0EFE1BEA0E0F1ABF08F8B0
:1031F00000305B1C08F80070401C2628ECDB002027
:1032000000290ADD2356002B04DB262B3CBF18F8CF
:1032100003301354401C8842F4DB0020C9F840C03E
:10322000002916DD1356834210D0C9F8402010E063
:1032300034840010005000408C840010010007000E
:10324000388900105E890010D0890010401C884227
:10325000E8DB11F0010F18BF252015D0420900F05E
:103260001F0355F8222006FA03F31A420AD1420935
:1032700000F01F0055F8223006FA00F0184345F818
:10328000220001E0401EE9D500200246430900F07B
:103290001F0B55F8233006FA0BFB13EA0B0F1ABF6E
:1032A00008F80020521C08F80070401C2628EDDBAE
:1032B000002000290BDD2256002A05DB262A3CBF10
:1032C00018F802200AF80020401C8842F3DB002096
:1032D000C9F83CC00029DCBF0DB0BDE8F08F1AF979
:1032E0000020824204D0C9F83CA00DB0BDE8F08FA8
:1032F000401C8842F3DB0DB0BDE8F08FFE487047FC
:10330000FE48406C70472DE9F001FB4C002282B072
:10331000551E04F1050CA5540CF80250521C052A48
:10332000F9DB00228B5CA354521C052AFADB002334
:103330000127194600280AD96256002A04DB052A0B
:103340003CBF07FA02F21343491C8142F4D3002127
:103350000A466E4607FA01F818EA030F1ABF7254BC
:10336000521C7554491C0529F4DB002100280AD998
:103370006256002A04DB052A3CBFB25C0CF801202F
:10338000491C8142F4D3DD4B0021002859649EBFC3
:1033900002B0BDE8F00170471CF901208A4205D057
:1033A000C3F844C002B0BDE8F0017047491C814237
:1033B000F2D302B0BDE8F001704740F2DB114843A0
:1033C000CF4901EB80007047CE49C0EB001001EB04
:1033D000C0007047DFF824C3012B8CF807008CF87D
:1033E000081003D9401C20F0010011468CF8090098
:1033F0008CF80A1000FB01F24FF6FF7101EA42025D
:10340000ACF8122001EA4000ACF814007047BB4849
:10341000807A7047B948407A7047B84AD0721173C1
:103420007047B648007B7047B448C07A7047B64AC8
:10343000107051707047B449085C70472DE9F0472F
:10344000DFF8B892044699F80400002804BF99F800
:1034500001001CF01EFA99F80300002834D04FF048
:103460000008D9F8200047464646454610F0070FA9
:103470001CBFDFF88C8210F0020F05D0B9F81210D3
:103480009F4A21F001018F1810F0F00F18BF9D4ED8
:1034900010F4774F18BF9D4DD9F82C002060FDF730
:1034A000FEFC10F0010F06D0FEF720F9022828BF1D
:1034B00099F8020000D20020E760C4E90108C4E9DD
:1034C00004650120BDE8F08799F8040000281CBFBE
:1034D00099F80500002819D099F80300B0B904F054
:1034E0002DF904460BF0E3F8052C08BF02280DD196
:1034F000002089F80500D9F84800012806D199F87C
:1035000005200023212107200FF0F2FA0020BDE85A
:10351000F0877A480021C1704171704770B5054647
:103520000020FDF731FA4C2100FB01F214467849E6
:1035300028461CF0A4F9224605F5BE60BDE870409F
:1035400074491CF09CB9F0B583B00020FDF71CFA5B
:10355000044669460020FEF72CFA0022002C2AD9E6
:103560006E464FF0010C4FF6F07502EB4200002161
:1035700000EB02104B0901F01F0756F823300CFA3C
:1035800007F73B4211D0CB075B0C03EB80034F08DE
:1035900003EB870303F1405303F580331B889BB291
:1035A000AB4202D903B00020F0BD491C2629E1D36B
:1035B000521CA242D9D303B00120F0BD70B5000760
:1035C000C00E0D46801E00EB400101EB0014524876
:1035D0004FF4987200EBC40128461CF050F94F4894
:1035E0004FF4987200EBC40105F59870BDE8704087
:1035F0001CF045B92DE9F04F07460007C00E83B017
:10360000801E002527F03F0BE9464FF001084FF6DA
:10361000F0760290384665F31F1040EA0B0000F088
:10362000FF0A5046FDF7E1F900283DD05046FEF76D
:1036300062FA08FA00F4022C88BF02246946504658
:10364000FEF7B7F90022002C2ED9029898212844C1
:1036500000FB01FA02EB4200002100EB021C4809CA
:1036600001F01F0359F8200008FA03F3184215D09F
:1036700001F001000AEB803000EB8C004B0800EBFE
:10368000830000F1405000F58030B0F88C0E80B21D
:10369000B04203D903B00020BDE8F08F491C2629B1
:1036A000DDD3521CA242D5D36D1C022DB2D303B080
:1036B0000120BDE8F08F10B50446842218491CF0A3
:1036C000DEF804F18400BDE81040842215491CF0A6
:1036D000D6B82DE9F04F83B0002002904020FDF7CE
:1036E00084F9E9464FF001084FF6F077F0B3402037
:1036F000FDF74AF9044617E0808400103484001076
:10370000A41E011010260110418400100027011092
:1037100000000130004001308C0E01308C4E013031
:103720000080013000C0013069464020FEF741F9B9
:103730000022002C22D9002102EB420C480959F842
:10374000203001F01F0008FA00F0034210D0C80733
:10375000400C00EB8C004B0800EB830000F1405064
:1037600000F5C030008880B2B84200E006E056D8CC
:10377000491C0529E2D3521CA242DCD30126700069
:10378000A0F1020B002546EA0510C0B240F0400A45
:103790005046FDF72AF9C8B35046FEF7ACF908FACF
:1037A00000F4022C88BF022469465046FEF701F956
:1037B0000021002C2AD90BEB050000EB40004FEA5A
:1037C000C00A01EB4102002002EB011C420900F09B
:1037D0001F0359F8222008FA03F31A4210D000F010
:1037E00001020AEB823202EB8C02430802EB8302F5
:1037F00002F1405202F5C032928C92B2BA420ED817
:10380000401C0528E2D3491CA142DAD36D1C022DCD
:10381000B9D3701CC6B2022EB1D901200290029811
:1038200003B0BDE8F08F2DE9F04100268E4D002851
:103830000C4645D000F00F01C0F3011001290EBF66
:1038400000210229BDE8F081022828BFBDE8F081EF
:103850000F18FDF755F85FEA00081CBF0020FDF7C0
:1038600028F800239820474303EB4300002200EB95
:10387000031C02F0010007EB8030510800EB8C00C4
:1038800000EB810000F1405000F58030521CC0F880
:103890008C4E262AEDD35B1C022BE5D3B8F1000F2A
:1038A00008BFBDE8F081AE706E7021210020FDF7E9
:1038B0002DF821210120FDF729F82878A0B330E068
:1038C000FDF71EF807001CBF0020FCF7F2FF0023E5
:1038D00003EB4300002200EB0310D107490C4FEA31
:1038E000520C01EB800101EB8C0C0CF1405C0CF5EF
:1038F000803C521CCCF80040262AEED35B1C312BB6
:10390000E6D3002F08BFBDE8F081AE706E702121B4
:103910000020FCF7FBFF21210120FCF7F7FF2878AE
:1039200010B10120FDF702F8BDE8F0410120FCF7DD
:10393000C0BF10B5FDF7DDFF4B49088210BD4A4BF3
:1039400010B4E02101EA102C1B8AC1B2C0F304229A
:10395000994288BF194664246143B1FBF3F102EB3D
:10396000C20303EB021201EB82014FF47A723F4B68
:103970000CFB02F2A3FB02329208521C520810F414
:10398000803F08BF494210F4003F14BF8818881ACE
:1039900000B210BC704710B5354C4FF4806135480B
:1039A0001BF072FF002001232156002910DB0A09B9
:1039B000120202EB800202F1405202F500320907C6
:1039C000C90ED2F800C003FA01F14CEA01011160FE
:1039D000401C2628E8D310BD10B5254C4FF480615B
:1039E00024481BF051FF002001232156002910DB41
:1039F0000A09120202EB800202F1405202F5003283
:103A00000907C90ED2F800C003FA01F14CEA01011E
:103A10001160401C2628E8D341F2EC0116481BF047
:103A200033FFBDE8104041F2EC0114481BF02CBFFD
:103A30000D4810B5006A12490840FFF79CF84FF492
:103A400080610C481BF020FF40F68C610A481BF097
:103A50001BFF40F68C6109481BF016FFBDE81040C3
:103A60000020FDF75DBD000034840010ABAAAAAAB7
:103A700038890010000002300000013000400130A1
:103A80000100FF0082B04FF4FA62009013E000BF23
:103A900000BF00BF00BF00BF00BF00BF00BF00BF2E
:103AA00000BF00BF00BF00BF00BF00BF00BF019844
:103AB000411E0191EBD20098411E009128BF019256
:103AC000F5D202B070472DE9F0410027594D01268B
:103AD000002808BF2E701FD001282F7018BF6F70EC
:103AE0001AD04FF04028D8F8100040F00400C8F871
:103AF00010002978504C002914BF49F608304F486F
:103B0000E06014BF4E484FF0BB70A0604D480068A5
:103B100030F0FF0206D101E06E70E2E7E26860F388
:103B20000302E26089B1A06840F01800A0600120A3
:103B3000FFF7A8FFA06840F48050A0600120FFF7C5
:103B4000A1FFA06840F40070A0600120FFF79AFF79
:103B5000687870B1E06840F02000E060A06820F470
:103B60000070A0600120FFF78DFFE06840F01000BA
:103B7000E060D4F8B00040F00100C4F8B0000120CB
:103B8000FFF780FFE6674FF4E0602061C4F88870BB
:103B90002878002818BFC4F89460E06820F030004E
:103BA000E060A06820F49050A060D8F8100020F0E9
:103BB0000400C8F81000BDE8F0811F48C16821F07A
:103BC0003001C160816821F4905181604FF0402044
:103BD000016921F00401016170474FF04020016943
:103BE00041F004010161134913480A783AB182682F
:103BF00042F018028260826842F4905282604978F2
:103C000019B1C16841F03001C160D0F8B01041F085
:103C10000101C0F8B01070470B49C0F3080041EA39
:103C2000002005490864704703494FF020400864AC
:103C3000704700008A8400100060004005F4010015
:103C400020009B00D0FE0400130000A04FF0402095
:103C50000021016302224263826B02F03C0242F0C7
:103C600001028263026922F003020261026A22F009
:103C700001020262424A136843F0010313603C22CE
:103C800082612822C2613F4801603F4801603F488D
:103C900050F88C2F42F4805202603D4A481E10605A
:103CA0003C480160704710B501F0E7FA39480468F4
:103CB000002C08BF30BFFAD00021016001F0E1FA0A
:103CC000204610BD10B501F0D8FA324B00204FF05D
:103CD000402101221C6824B1186001F0D2FA20466C
:103CE00010BD72B6D1F838C00CF03C0CC1F838C029
:103CF0000A6320BF0863D1F838C00CF03C0C4CF0CC
:103D0000010CC1F838C062B6BFF36F8FBFF34F8F9D
:103D1000E0E710B504460F2000F0E6FC0F2000F0AD
:103D2000CBFC1D490A6842EA0400086010BD1A492C
:103D30000A6822EA000008607047164A516850601D
:103D40000846704770B51448006814490968114D59
:103D500000EA0104696800291CBF2046884714F066
:103D6000100F05D0094850F88C1F41F480510160B4
:103D700007480460286840F40040286070BD0000D7
:103D800000480040244800401048004000300040F7
:103D9000144800408C8400101C4800401848004023
:103DA000704770470022B2EBD10F26D20368B3F1FF
:103DB000FF3F04BF4368B3F1FF3F17D18368B3F1FE
:103DC000FF3F04BFC368B3F1FF3F0FD10369B3F1F5
:103DD000FF3F04BF4369B3F1FF3F07D18369B3F1EC
:103DE000FF3F04BFC369B3F1FF3F01D0002070471C
:103DF0002030521CB2EBD10FD8D30120704710B441
:103E00000023B3EBD20F30D2D0F800C00C68A44529
:103E100022D1D0F804C04C68A4451DD1D0F808C008
:103E20008C68A44518D1D0F80CC0CC68A44513D137
:103E3000D0F810C00C69A4450ED1D0F814C04C695C
:103E4000A44509D1D0F818C08C69A44504D1D0F894
:103E50001CC0CC69A44502D010BC002070472030A3
:103E600020315B1CB3EBD20FCED310BC01207047C6
:103E70002DE9F041054601F008FA002021264FF413
:103E8000825784464FF4E0221660C5F800C01168DE
:103E900041F004011160116811F0040FFBD11760AB
:103EA00080232C460021D4F80080B8F1FF3F04BFE6
:103EB000D4F80480B8F1FF3F1DD1D4F80880B8F1E0
:103EC000FF3F04BFD4F80C80B8F1FF3F13D1D4F802
:103ED0001080B8F1FF3F04BFD4F81480B8F1FF3F61
:103EE00009D1D4F81880B8F1FF3F04BFD4F81C8082
:103EF000B8F1FF3F08D0C2F800C0401CC0B208288B
:103F0000C2D30220BDE8F081491C2034B1EBD30FAD
:103F1000C9D3C2F800C00120BDE8F0812DE9F0410D
:103F2000054601F0B2F90020092684464FF4E0234B
:103F30001E60C5F800C0196841F0040119601968D5
:103F400011F0040FFBD12C464FF48062002127684A
:103F5000B7F1FF3F04BF6768B7F1FF3F17D1A7680C
:103F6000B7F1FF3F04BFE768B7F1FF3F0FD1276903
:103F7000B7F1FF3F04BF6769B7F1FF3F07D1A769FA
:103F8000B7F1FF3F04BFE769B7F1FF3F08D0C3F8BF
:103F900000C0401CC0B20328CAD30220BDE8F08193
:103FA000491C2034B1EBD20FD1D3C3F800C001209B
:103FB000BDE8F0812DE9F05F8846814604274FF087
:103FC0007F0A4FF0020B4FF4E02601F05EF94946FC
:103FD000424653464FF0060CC6F800B052F8040BA8
:103FE00041F8040BC6F800C0306810F0040FFBD194
:103FF0005B1EF1D2002030604C4645461F20D4E9BC
:1040000000C3D4E90221D5F800E0E64504BFD5F8A5
:1040100004C09C4505D1AB68934204BFEA688A425C
:1040200008D07F1E03D34846FFF722FFCDE70220CA
:10403000BDE8F09F10341035401EE0D20120BDE8ED
:10404000F09F70B50D46044601F01FF94FF4007261
:10405000214628461BF013FC012070BD2DE9F041DC
:104060000546C005ADF5007D14460E46C00D25D0B1
:10407000A8466FF308086F4601F007F94FF4007285
:10408000414638461BF0FBFBC5F30800C0F500773E
:10409000A74288BF274668443A4631461BF0FEFBDC
:1040A0004046FFF7E5FE022844D069464046FFF748
:1040B00081FF022843D03D443E44E41BB4F5007F19
:1040C00019D34FF40072314668461BF0E7FB2846CF
:1040D000FFF7CEFE02282DD069462846FFF76AFF7B
:1040E00002282CD0A4F5007405F5007506F50076BD
:1040F000B4F5007FE5D2C4B16F4601F0C6F84FF4C5
:104100000072294638461BF0BAFB22463146684603
:104110001BF0C4FB2846FFF7ABFE02280AD0694615
:104120002846FFF747FF022809D00DF5007D012042
:10413000BDE8F0810DF5007D0A20BDE8F0810DF5A8
:10414000007D0B20BDE8F08130B4304D2A6800219D
:1041500001244FF0030C04FA01F3034204D04B0096
:104160000CFA03F39A431A43491C0C29F3DB2A6027
:1041700030BC7047F0B4254D2A68002101244FF06F
:10418000030C022604FA01F3034206D04B000CFA9A
:1041900003F7BA4306FA03F31A43491C0C29F1DB6F
:1041A0002A60F0BC70472DE9F00100220125184C6F
:1041B0000F2605FA02F3034217D0D31702EB537C04
:1041C0004FEAEC0304EB83031F682CF0070CA2EB0F
:1041D0000C0C4FEA8C0C06FA0CF827EA080701FAD7
:1041E0000CFC47EA0C0CC3F800C0521C0C2AE0DBA4
:1041F00006498A6A22EA00008862BDE8F001704739
:1042000002498A6A10438862704770470010004074
:1042100020100040704772B64FF04020816941F095
:1042200040018161C16941F04001C16162B6016A2A
:1042300041F00101016270474FF04020016A21F016
:104240000101016272B6C16921F04001C161816959
:1042500021F04001816162B6704710B572B64FF02F
:104260004024A06940F04000A061E06940F04000B7
:10427000E06162B6206A40F001002062D54843F652
:104280003F71C160002181638164C0F8D0100321B7
:104290000A2000F0EEF90A2000F00EFA206A20F061
:1042A0000100206272B6E06920F04000E061A06980
:1042B00020F04000A06162B610BDC64A1060516097
:1042C000484390607047C34A10605160484310F003
:1042D000010F18BF401C90607047BE49C1F8D00064
:1042E0007047BC49002818BF012088647047B9494D
:1042F0008863C86840F00200C8607047DFF8D4C225
:10430000CCF82000CCF82410CCF82820CCF82C30A5
:104310000120CCF83000DCF8340010F0010F05D09B
:1043200020BFDCF8340010F0010FF9D110F00200CA
:1043300018BF4FF0FF307047A648C16821F0020156
:10434000C1607047A348C16841F00101C160704776
:10435000A04B186259629A6201201864586C10F0E0
:10436000010F04D020BF586C10F0010FFAD110F0EB
:10437000060018BF4FF0FF3070479648C16821F023
:104380000101C16070479348C16841F00401C160F8
:104390007047904A81891167016851624168916252
:1043A0008168D16201211165516D11F0010F04D0B6
:1043B00020BF516D11F0010FFAD1536F0361936F5C
:1043C0001B148382936FC3F30523C382936F03F09F
:1043D0003F030383D36F1B144383D36FC3F30523BE
:1043E0008383D36F03F03F03C383D2F88030C3F3DA
:1043F00009430384D2F88020C2F30902428411F0F9
:10440000020018BF4FF0FF3070477248C16821F0BA
:104410000401C16070476F48C16841F00401C16088
:104420007047027C017B02F03F0241EA0241694A87
:10443000916501685162416891628168D162012190
:104440001165516D11F0010F04D020BF516D11F0B5
:10445000010FFAD1D36D8382D36D1B0CC382136E0F
:104460000383136E1B0C4383536E8383526EC2F31C
:104470000E42C28311F0020018BF4FF0FF307047A8
:104480005448C16821F00401C16070475148C168B7
:1044900041F00801C1607047DFF838C1CCF89820BE
:1044A000CCF82000CCF82430CCF828100120CCF82F
:1044B0009000DCF8940010F0010F05D020BFDCF86C
:1044C000940010F0010FF9D110F0060018BF4FF062
:1044D000FF3070473F48C16821F00801C160704754
:1044E00001684FEA31423B49C1F8BC204068C1F83D
:1044F000C000C86840F02000C860704701684FEAFB
:1045000031423449C1F8BC208088C1F8C000C86875
:1045100040F02000C86070472E4B18625A629962C2
:104520000120C3F8B400D3F8B80010F0010F05D093
:1045300020BFD3F8B80010F0010FF9D110F0060039
:1045400018BF4FF0FF307047224A106251620120BD
:10455000C2F8B000D2F8B80010F0010F05D020BFAB
:10456000D2F8B80010F0010FF9D110F0060018BF12
:104570004FF0FF3070471748C16821F02001C1603B
:1045800070471448C16841F01001C1607047A3F141
:10459000050C104BC3F8A8C018625A62996201203A
:1045A000C3F8A000D3F8A40010F0010F05D020BF7D
:1045B000D3F8A40010F0010FF9D110F0060018BFD5
:1045C0004FF0FF3070470348C16821F01001C1600F
:1045D0007047000000900040234810B5022140F8C9
:1045E000501F012101611021416241F20601416128
:1045F000002181610421816390214163416B41F07D
:1046000001014163C16B21F40021C163C16B41F41D
:104610000051C163C16B21F00101C163C16B41F065
:104620000101C1634FF4817101610161032000F058
:1046300043F80021032000F01CF8002010BD10B545
:10464000032000F045F808484FF48071016600210E
:1046500001661021816702214165002010BD0349D8
:104660000020087070470000003000409484001063
:10467000704700F00303DA004FF0FF0C0CFA02F26F
:104680004FF0050C0CEBC30301FA03F300F00C012F
:1046900001F1E021002807DAD1F8140D90431A4007
:1046A0001043C1F8140D7047D1F8000490431A402C
:1046B0001043C1F80004704700F01F01012202FA04
:1046C00001F14009800000F1E020C0F800117047BE
:1046D00000F01F01012202FA01F14009800000F1FF
:1046E000E020C0F88011704700F01F01012202FA9B
:1046F00001F14009800000F1E020C0F8801270470D
:104700004FF0E021C1F8000170474FF0E021C1F8FF
:10471000800170474FF0E020D0F8000170474FF063
:10472000E021C1F880027047084800687047074AD6
:104730001168106008467047044A126800F11003BF
:1047400052F8230042F823107047000008ED00E003
:1047500002210C20FFF78DBF72B64FF04020816917
:1047600041F480518161C16941F48051C16162B6F7
:10477000704772B64FF04020816921F48051816109
:10478000C16921F48051C16162B67047AA4881B005
:10479000016F11F4007FFBD1816E11F0010F1CBF7E
:1047A000D0F88410009104D0D0F88410009A91427F
:1047B000FAD0016F11F4007F04BF4CF27101016661
:1047C00042F24131816601B070479B4981B04FF49C
:1047D0000D528A660A6FCA66012898BF012005D962
:1047E000401EB0F5803F28BF4FF6FF7082B24FF0F9
:1047F0005C5040EA022048664FF01140C1F880004A
:10480000086F10F4007FFBD1886E10F0010F1CBF01
:10481000D1F88400009004D0D1F88400009A90422E
:10482000FAD0086F10F4007F04BF4CF271000866E4
:1048300042F24130886601B070477F4881B0016F15
:1048400011F4007FFBD1816E11F0010F1CBFD0F875
:104850008410009104D0D0F88410009A9142FAD0CC
:104860004FF40D51816601B070474FF040208069D0
:1048700010F4805008BF70476F48806E00F0010050
:1048800070476D48406EC0F30F2070476A48D0F8FB
:104890008400704710B50C20FFF726FF0C20FFF7AF
:1048A0000BFF65490220486710BD634910B503201E
:1048B00088670C20FFF70CFFBDE810400C20FFF7C5
:1048C00013BF5E4A11681060084670475A4810B519
:1048D000016FC16659480068002818BF80475848D2
:1048E000016841F48051016010BD54484068704730
:1048F00010B572B64FF04020816941F4805181615A
:10490000C16941F48051C16162B603204A49886798
:104910000C20FFF7DDFE0C20FFF7E6FE00F03CF96F
:10492000484B0420C3F888004FF6FF70C3F88C0092
:1049300072B66033FFF749FF4FF40070186062B63B
:1049400010BDF8B572B63C48016F11F4007FFBD181
:10495000816E11F0010F1CBFD0F88410009104D0BB
:10496000D0F88410009A9142FAD04FF40D5181662C
:1049700034494FF400320A6662B6D1F804124FF09F
:104980004025002946D02D4C4FF6FF73591AA160DF
:104990002A6BD5F834C002F00F020CF00F0C624401
:1049A000121D01FA02F2A2F54341DFF89CC0513911
:1049B00061452FD2D0F88400191AE160B1F5803F2B
:1049C00028D2224B4FF0000CA1FB03070CFB037312
:1049D00001FB0C3163461AF066FF401C4008206161
:1049E000B0F57A7F38BF4FF47A70194B9968002977
:1049F00008BF98605A681A609968C3E901108A4232
:104A000015D9824205D9814201D9616002E0606016
:104A100000E0626000F0D0F872B6A86920F480501F
:104A2000A861E86920F48050E86162B6F8BD82426E
:104A3000EFD88142EBD8E8E700C00040988400102E
:104A40008C84001000A000404F62250000E1F505B5
:104A5000F88900104FF04020816941F00401816124
:104A60000C48016841F404710160001F016821F0E5
:104A700004010160016841F01001016070470649BE
:104A800008607047BFF34F8F054904480860BFF3C3
:104A90004F8FFEE714ED00E008ED00E00400FA059A
:104AA0000CED00E04FF04020816941F0040181618C
:104AB0000B48016841F0010101600B490948C1F848
:104AC000C40070470948006842F27001084070470E
:104AD000084807490160084981600021C1607047AA
:104AE000144C004001005FA0006000400044004002
:104AF000A0800A0000100040508A5900022824BFFC
:104B000000207047DC4B53F8202043F8201010465B
:104B1000704770B5D94C206FD74D10F0010F05D0FC
:104B20000120E0662868002818BF8047206F10F039
:104B3000020F08BF70BD0220E0666868002808BF49
:104B400070BDBDE87040004710B572B64FF0402010
:104B5000816941F080018161C16941F08001C161D9
:104B600062B60222C5490A6501230B660323CB66A0
:104B70004A6572B6816921F080018161C16921F0C5
:104B80008001C16162B60920FFF796FD0221BDE8F0
:104B900010400920FFF76DBD72B64FF040208169CB
:104BA00041F080018161C16941F08001C16162B65B
:104BB0000220B24908657047B0490220486572B6C4
:104BC0004FF04020816921F080018161C16921F0AD
:104BD0008001C16162B670474FF040208069C0F328
:104BE000C0107047A548016F11F4007F14BF4FF447
:104BF00040714FF480710166704710B59F4CE06FB3
:104C000010F0020F4FF0010018BF0320606700F0A2
:104C10006DF94FF040210A6B496B02F00F02D04052
:104C200001F00F01C8400521B0FBF1F04FF4057110
:104C30000009C4F880109249A1FB00104009C4F893
:104C40008400206F10F4007F14BF4FF440704FF4C5
:104C50008070206610BD8948016F11F4807F14BFF9
:104C60004FF440714FF4007101667047834B30B4CC
:104C7000DA6F12F0010F14BF032202225A6700EB11
:104C80004005C5EBC010C1EBC0004FF4FA744C43B3
:104C9000C0EB001000EB40007A4904EBC000A1FB20
:104CA00000104FF0402100220C6B4FF0020CC008A6
:104CB000496B04F00F0401F00F012144C8400521A5
:104CC000B0FBF1F0B0F5803F05D3511C4008CAB2EB
:104CD000B0F5803FF9D242EA0C2141F01001C3F84F
:104CE0008810C3F88C00186F10F4807F14BF4FF445
:104CF00040704FF40070186630BC70475F48016F19
:104D000011F4003F14BF4FF440314FF4803101667D
:104D100070475A48016F11F4803F14BF4FF440317F
:104D20004FF40031016670475448006FC0F3002013
:104D300070475248006FC0F3402070474FF0402149
:104D40008969C1F3C011002904BF002070474B4995
:104D500000280CBFD1F80002D1F8040270474FF0D0
:104D600040239A69C2F3C012002A04BF0020704792
:104D7000424A00280CBFD2F88000D2F88800C0F365
:104D80000A200CBFD2F88020D2F8882002F00F024F
:104D9000D3F830C05B6B0CF00F0C03F00F036344CF
:104DA0001A449140012202EB400048433449A1FBE0
:104DB000001000097047344901200870704770B432
:104DC00032224FF0402351431A6BD3F834C002F023
:104DD0000F020CF00F0C6244121DD14008BF0121DC
:104DE00004D0B1F5803F28BF4FF6FF719A69C2F336
:104DF000C012002A1CBF70BC704772B69A6942F09C
:104E000080029A61DA6942F08002DA6162B60224B5
:104E10001A4A1465250415664FF0040CC2F888C0C0
:104E2000C2F88C10DFF864C0C2F86CC0546718492F
:104E300002283CBF104E46F8201000211248017095
:104E40004FF400711166017819B920BF017800296B
:104E5000FBD01566C2F878C0C2F86CC0546572B653
:104E6000986920F080009861D86920F08000D861AE
:104E700062B670BC70470000B084001000A0004013
:104E80001F85EB51CDCCCCCCAC84001002000202CB
:104E9000676D00004FF0E02100208861086127491C
:104EA0004860704710B54FF0E02460610020A061B9
:104EB0000221401EFFF7DDFB07202061BDE8104006
:104EC00009F06ABA10B509F06BFA4FF0E021002042
:104ED000086110BD10B509F063FA4FF0E021002021
:104EE000086116480188491C018010BD134880687C
:104EF00070472DE9F041114C002705462780A06836
:104F00004FF47A71B0FBF1F04FF0E026401E706173
:104F1000B7610221C81EFFF7ACFB0720306109F022
:104F20003BFA2188A942FCD309F03AFA3761BDE87F
:104F3000F08103494843014988607047B8840010F4
:104F400040420F004FF04020816921F400518161FF
:104F5000C16921F40051C1617047A8490A788242B1
:104F600018BF062828BF7047A54AA64B52F830C084
:104F7000C3F808C002EBC0025268DA6008707047DC
:104F80004FF04020816941F400518161C16941F4D1
:104F90000051C161704710B501210720FFF769FB7F
:104FA0004FF04020816941F400518161C16941F4B1
:104FB0000051C161934A0021116093495160DFF8AB
:104FC0003CC200219CF800303BB10CF110031C687E
:104FD00094605B68D3608CF800108C491161816922
:104FE00021F400518161C16921F40051C16110BDFA
:104FF0008248406870478348806970474FF040207E
:10500000806910F4005008BF70477E48006900F0C6
:10501000010070474FF04020806910F4005F04D019
:10502000784B186910F0010F01D10020704710B4BF
:1050300072494FF6FE7000248A684AB19A69D1F825
:1050400008C0624504D08C604C6010BC01207047E1
:1050500000BF00BF00BF00BF00BF00BF00BF00BF58
:1050600000BF00BF00BF00BF00BF00BF00BF00BF48
:1050700000BF00BF00BF00BF00BF00BF00BF00BF38
:10508000401E0028D8DC8C604C6010BC00207047AB
:105090005A49886070475948806870475948016983
:1050A00041F00101016155490120486070475548B0
:1050B000016921F0010101615049002048607047F9
:1050C0000021002808BF4FF0006103D0022808BF6C
:1050D0004FF080614B48026922F040621143016148
:1050E000704748490120096901F04061B1F1806FC2
:1050F00004BF02207047B1F1006F08BF0020704765
:105100004048406970473D48007870474FF0402064
:10511000806910F4005F38D03A4A106910F0010F2E
:1051200033D03648406801282FD090696FF07F4314
:10513000984238BF00EB400C27D25169B1EB9C0F6D
:1051400001D30120704700BF00BF00BF00BF00BFF8
:1051500000BF00BF00BF00BF00BF00BF00BF00BF57
:1051600000BF00BF00BF00BF00BF00BF00BF00BF47
:1051700000BF00BF00BF00BF00BF00BF00BF00BF37
:1051800000BF00BF00BF9842D7D30020704710B5C2
:105190000720FFF7A9FA0720FFF78EFA19480169DF
:1051A00041F01001016110BD164810B5016921F0F0
:1051B000100101610720FFF78BFABDE810400720BE
:1051C000FFF792BA0D4AD168D0600846704738B5EB
:1051D0000C4CE069E061094910F0020F1CBFA269A4
:1051E0008A60C96800291CBF00018847E0690090F7
:1051F0000748016841F08001016038BDC484001097
:10520000D484001000D00040D0121300660F0015A7
:105210008C840010704770B505464FF40D5004069D
:10522000A0660320E066264860664CF271002066A6
:105230002448C4F8800042F24630A06602210020D3
:10524000FFF717FA0020FFF737FA002D08BF70BDEF
:10525000A06E42F241310843A06670BD012110B535
:10526000880781674FF40D5181660020FFF730FAFF
:10527000BDE810400020FFF737BA012081074867DA
:10528000704701208107886770474CF271008107E1
:10529000086670470C4A11681060084670470A4853
:1052A00008B5006818B18047002818BF08BD4CF247
:1052B000710188070166016FC166006F009008BD2B
:1052C000075E5F3700AF2F9104850010FE49002074
:1052D00088717047FC488079704770B5FA4D00249A
:1052E0004FF4E4612C70AC70F8481AF0CDFA4FF42A
:1052F000E461F7481AF0C8FAEC60EC704C21F5480C
:105300001AF0C2FA4C21F4481AF0BEFA2C7174213A
:10531000F2481AF0B9FA7421F1481AF0B5FAF148D6
:105320002C616C71C0F8E042C0F8E442C0F8E84279
:10533000C0F8EC42C0F8F042C0F8F442C0F8F842BD
:10534000C0F8FC42C0F80043C0F80443C0F808436A
:10535000C0F80C43C0F81043C0F81443C0F8184319
:10536000C0F81C43C0F82043C0F82443C0F82843C9
:10537000C0F82C43C0F83043C0F83443C0F8384379
:10538000C0F83C436C6170BDCF48C078002818BF9E
:1053900001207047CC484079002818BF0120704791
:1053A000C9480079002818BF01207047C648807896
:1053B000002818BF012070470021CA48C0F82013F8
:1053C000C0F82413C0F82813C0F82C13C0F8301309
:1053D000C0F83413C0F83813C0F83C137047C24803
:1053E000704770B5C14A054610785178421852008E
:1053F00014462946BC481AF051FA22462946BC48B0
:105400001AF04CFAB04801214171817941F008014C
:10541000817170BDAC4840697047B048704770B545
:10542000B44DB54E044601462A783078AB4B104453
:10543000420018461AF032FA2A783078A84B104405
:105440004200214618461AF029FA9F4801210171AD
:10545000817941F00401817170BD9B4800697047FA
:105460009A4870472DE9F041974F804638780028D8
:1054700014BFA248A248057814BFA248A2480478E5
:1054800005FB04F6FEF7C7FE21462846FEF715FF8A
:105490008E4943468E4A0846FEF730FFFEF7CCFEA3
:1054A000720041468A481AF0F9F90120B870B879BB
:1054B00040F00100B8710120BDE8F0812DE9F0470E
:1054C000814D044601462878DFF800C2DFF82C82BF
:1054D000DFF82C928B4E8C4F002815BF98F80020D7
:1054E00099F8002033783B7802FB03F04FEA400242
:1054F00060461AF0D3F92878DFF8D4C12146002895
:1055000015BF98F8002099F8002033783B7802FB0B
:1055100003F04FEA400260461AF0C0F90120A8707B
:10552000A87940F00100A871BDE8F0876648C0681E
:10553000704770B5754C05460146227865485200A3
:105540001AF0ACF922782946520063481AF0A6F9FD
:105550005D480121C170817941F00201817170BD06
:105560002DE9F04FADF26C7DDFF85C910120CDF8B4
:105570004C0799F80200CDF8480799F80300CDF8D8
:10558000440799F80400CDF8400799F80500CDF8D4
:105590003C0702F0D3F88046FDF71EFACDF8640709
:1055A000FDF75AFCCDF86007FBF7B5FFCDF85C07B7
:1055B000FBF775FC0446FBF76FFC0646FDF70EFA99
:1055C000FCF74FF808300009CDF8500799F80100B2
:1055D0000025002804BF0420C9F81C0014D002F0E4
:1055E000C5F80746B8F1020F18D009F095F902285E
:1055F0000CBF09200720C9F81C00062F04BF022099
:10560000C9F81C0089F80150FBF749FC10F0010FA4
:1056100010D002F0DEF93C2806D00BE015F0DCF9E2
:105620001E21C9F81C10E8E7FFF7E8FC002818BFA6
:10563000FFF76CFD4FF0010B022E13D1B8F1020FF2
:1056400005D0B8F1050F08BF052007D00AE0DDF846
:1056500050074FF47A71484390FBF1F0C9F81C00F1
:1056600089F801B0D9F81C000428BCBF0420C9F88F
:105670001C0099F80100B9F81C10000240EA014032
:1056800040F001020023912107200DF031FA14F0BF
:10569000010F51D1B8F1020F4ED00020FBF740FFAF
:1056A000FDF719FC1AF004F900202F46CDF8380751
:1056B00007F019FE012845D00DF5E460FDF7BEFEA8
:1056C000002800F0C88223E0088500103827011068
:1056D000048A0010649F0010B09F0010582E011023
:1056E000FC9F0010049E0010E4A0001054850010E0
:1056F00004A1001051850010528500104F85001044
:105700004C850010508500104D8500105385001009
:105710000DF5E46008F018FCD9F81C00C01E8542A5
:10572000CABF874201240024DDF82C07002849D095
:10573000DDF8440758B145E0FDF794FB0020CDF8B3
:105740004C07AFE70120CDF8380700F06EBA684685
:10575000DDF82C171AF0B1F88246ACB1FB4E514679
:1057600030784200FA481AF099F8307851464200F1
:10577000F8481AF093F889F803B099F8060040F059
:10578000020089F806001DE0FEF745FDEF4E0121FD
:105790003078FEF792FDEF4A5346A2F14C010846DD
:1057A000FEF7ACFDFEF748FD307851464200E9486F
:1057B0001AF074F889F803B099F8060040F0020076
:1057C00089F80600DDF8280700287CD0DDF84807B6
:1057D000002878D199F80000DDF82867F0BBD9F8E7
:1057E0000CA0BAF1000F24D0DB480078CDF85807A0
:1057F000DA480078CDF85407FEF70DFDDDF85417B0
:10580000DDF85807FEF75FFD314652460846FEF7C1
:105810009FFDFEF711FDD2480078022804BF5046D4
:1058200007F0BAFFCE480078092804BF304607F0D9
:10583000B3FFCC480078012816D9DFF824A39AF8E2
:105840000000042804BF304607F0A6FF3146684632
:105850001AF038F806469AF8000000E004E005283F
:1058600004BF304607F098FF74B3BF4899F8002092
:105870003146002A0CBFBD4AB74A127814BFB74B55
:10588000BB4B1B7802FB03F24FEA42021AF006F808
:1058900099F80000B74B3146002814BFAE48B34812
:1058A000007814BFAD4AB24A127800FB02F04FEA0A
:1058B0004002184619F0F2FF89F802B099F8060084
:1058C00040F0010001E03BE002E089F8060030E032
:1058D000CDF8546799F80000002814BF9E48A348EB
:1058E00090F800A014BF9D48A14806780AFB06F076
:1058F000CDF85807FEF78FFC31465046FEF7DDFC29
:1059000099499C4A0846DDF85437FEF7F7FCFEF744
:1059100093FCDDF85807DDF854174200954819F05C
:10592000BDFF89F802B099F8060040F0010089F83F
:1059300006008B480078032804BF8B4807F02CFF33
:10594000DDF8300700287CD0DDF84007002878D14A
:1059500099F80000DDF8306748BBD9F810A0BAF11B
:10596000000F24D084480178844800780844401C03
:105970004008019002200090FEF74DFCDDE9001088
:10598000FEF7A1FC314652460846FEF7E1FCFEF761
:1059900053FC7B480078022804BF504608F09BF86F
:1059A00077480078092804BF304608F094F8FCB125
:1059B0007448714ADFF8C4A1314613789AF8002080
:1059C0001A44520019F06AFF6B489AF800206E4B97
:1059D0000078314610444200184619F05FFF89F8FC
:1059E00004B099F8060040F0040089F8060021E0B0
:1059F0006148B2460178614800780E18FEF70BFC4A
:105A0000701C40080221FEF758FC5E4953465E4A6E
:105A10000846FEF773FCFEF70FFC720051465A4829
:105A200019F03CFF89F804B099F8060040F0040032
:105A300089F8060052480078032804BF514808F04E
:105A40004AF8DDF8340700287ED0DDF83C0730B195
:105A5000B8F1020F18BFB8F1050F76D0D8E099F869
:105A60000000DDF8346740BBD9F814A0BAF1000F8C
:105A700023D04648017840780844401C40080190F3
:105A800002200090FEF7C7FBDDE90010FEF71BFCCB
:105A9000314652460846FEF75BFCFEF7CDFB3C481C
:105AA0000078022804BF504608F057F938480078BB
:105AB000092804BF304608F050F93448017840788E
:105AC000A4B10844440022463146324819F0E6FEAB
:105AD00022463146304819F0E1FE89F805B099F8C0
