:10000000D466070000000000DA6607000000000068
:10001000E066070000000000E66607000000000040
:10002000EC66070000000000F26607000000000018
:10003000F8660700000000008E7007000000000056
:100040000100000004000000A17007000000000093
:100050000000000000000000A57007000000000084
:100060000100000025000000B9700700000000003A
:100070000000000000000000DE700700000000002B
:100080000500000010000000D0DB080000000000A8
:1000900038DF000000000000EF70070000000000E3
:1000A0000300000004000000849C08000000000021
:1000B00000000000000000001271070000000000B6
:1000C0000300000004000000889C080000000000FD
:1000D00000000000000000003B710700000000006D
:1000E00003000000040000008C9C080000000000D9
:1000F0000000000000000000577107000000000031
:100100000200000001000000909C080000000000B8
:1001100000000000000000007071070000000000F7
:100120000300000004000000949C08000000000090
:100130000000000000000000A471070000000000A3
:100140000100000064000000989C0800000000000E
:100150000000000000000000CD710700000000005A
:100160000400000004000000E0DB080000000000C4
:100170000000000000000000FC710700000000000B
:100180000100000008000000FC9C080000000000C6
:1001900000000000000000001A72070000000000CC
:1001A0000200000001000000049D080000000000A3
:1001B000000000000000000038720700000000008E
:1001C0000100000003000000059D08000000000081
:1001D00000000000000000004E7207000000000058
:1001E0000300000004000000089D0800000000005B
:1001F0000000000000000000667207000000000020
:1002000003000000040000000C9D08000000000036
:1002100000000000000000008272070000000000E3
:100220000300000004000000E4DB08000000000000
:100230000000000000000000A172070000000000A4
:100240000300000004000000E8DB080000000000DC
:100250000000000000000000C07207000000000065
:100260000200000001000000ECDB080000000000BC
:100270000000000000000000E6720700000000001F
:100280000200000001000000EDDB0800000000009B
:100290000000000000000000C8DB080000000000B3
:1002A000C0DB080000000000F0DB080000000000D8
:1002B000010100001000000000000000000000002C
:1002C0006C6801000000000074680100000000007C
:1002D0007C68010000000000400000005C0000009D
:1002E00004000000100000000000000000000000FA
:1002F0008C6801000000000094680100000000000C
:100300009C68010000000000400000005C0000004C
:100310004000000014000000000000000000000089
:10032000AC68010000000000B4680100000000009B
:10033000BC680100000000004000000060000000F8
:10034000A30200001C0000000000000000000000EC
:10035000CC68010000000000D4680100000000002B
:10036000DC68010000000000400000007000000098
:10037000A0020000200000000000000000000000BB
:10038000EC68010000000000F468010000000000BB
:10039000FC68010000000000400000007000000048
:1003A000A10200003000000000000000000000007A
:1003B0000C69010000000000146901000000000049
:1003C0001C6901000000000080000000D80000004F
:1003D000A202000040000000000000000000000039
:1003E0002C690100000000003469010000000000D9
:1003F0003C6901000000000080000000D8000000FF
:100400007200000024000000000000000000000056
:100410004C69010000000000846901000000000038
:10042000D86901000000000040000000BC0000008E
:100430000101000000000000FC600100000000005D
:10044000837B070000000000877B0700000000009E
:10045000040000000000000008610100000000002E
:100460008B7B0700000000008F7B0700000000006E
:1004700040000000000000001461010000000000C6
:10048000937B070000000000987B0700000000003D
:10049000A302000000000000206101000000000035
:1004A0009D7B070000000000A47B07000000000007
:1004B000A0020000000000002C610100000000000C
:1004C000AB7B070000000000B27B070000000000CB
:1004D000A1020000000000003861010000000000DF
:1004E000B97B070000000000C07B0700000000008F
:1004F000A2020000000000004461010000000000B2
:10050000C77B070000000000CE7B07000000000052
:1005100072000000000000005061010000000000B7
:10052000D57B070000000000DE7B07000000000014
:100530000000000000000000146101000000000045
:10054000E77B070000000000EF7B070000000000D1
:100550000000000000000000146101000000000025
:10056000FA7B070000000000037C07000000000089
:100570000000000000000000146101000000000005
:100580000F7C0700000000000000000000000000D9
:1005900000000000000000000861010000000000F1
:1005A0001F7C070000000000277C070000000000FF
:1005B00000000000000000001461010000000000C5
:1005C0003C7C070000000000457C070000000000A4
:1005D0000000000000000000206101000000000099
:1005E0005B7C070000000000667C07000000000044
:1005F00000000000000000002C610100000000006D
:100600007E7C070000000000897C070000000000DD
:100610000000000000000000386101000000000040
:10062000A17C070000000000AC7C07000000000077
:100630000000000000000000446101000000000014
:10064000C47C070000000000CF7C07000000000011
:100650002A864886F70D020400080000000000000A
:10066000FC600100000000002A864886F70D0205A4
:100670000008000000000000086101000000000008
:100680002B0E03021A00000000050000000000000D
:100690001461010000000000608648016503040247
:1006A00001090000000000002C61010000000000B2
:1006B0006086480165030402020900000000000092
:1006C00038610100000000006086480165030402F3
:1006D0000309000000000000446101000000000068
:1006E0006086480165030402040900000000000060
:1006F0002061010000000000100C1010000000003C
:10070000DC73010000000000000000000000000099
:10071000B874010000000000E47401000000000053
:100720003076010000000000000000000000000022
:10073000200C101000000000DC730100000000001D
:100740000000000000000000B8740100000000007C
:10075000E474010000000000307601000000000099
:100760000000000000000000300C2020000000000D
:100770008C77010000000000000000000000000075
:100780003C7B010000000000687B010000000000CD
:10079000887C010000000000000000000000000054
:1007A000400C2020000000008C77010000000000B9
:1007B00000000000000000003C7B01000000000081
:1007C000687B010000000000887C01000000000040
:1007D0000000000000000000100C101000000000DD
:1007E000F87F010000000000000000000000000091
:1007F000E0800100000000000C810100000000000A
:100800005C85010000000000000000000000000006
:10081000200C101000000000F87F01000000000014
:100820000000000000000000E08001000000000067
:100830000C810100000000005C8501000000000048
:100840000000000000000000A301000010000000F4
:10085000100000001000000008010000020000006D
:100860000000000000000000B86C01000000000063
:10087000A86D010000000000000000000000000062
:1008800000000000000000008803000001000000DC
:10089000100000001000000008010000050000002A
:1008A0000000000000000000B86C01000000000023
:1008B0000C6E0100000000000000000000000000BD
:1008C0000000000000000000A20100001000000075
:1008D00010000000000000000801000001000000FE
:1008E0000000000000000000B86C010000000000E3
:1008F000606E010000000000000000000000000029
:100900000000000000000000A40100000100000041
:1009100010000000100000000801000004000000AA
:100920000000000000000000B86C010000000000A2
:10093000D06E010000000000000000000000000078
:1009400000000000000000007F0300000100000024
:10095000100000000C000000A0020000860F000044
:100960000000000000000000046F01000000000013
:100970001C6A010000000000F06F01000000000090
:100980003870010000000000A50100000100000017
:100990001000000010000000080100000304000027
:1009A0000000000000000000B86C01000000000022
:1009B000347301000000000000000000000000008F
:1009C00000000000000000008A020000010000009A
:1009D00010000000100000000801000003040000E7
:1009E0000000000000000000B86C010000000000E2
:1009F0006C73010000000000000000000000000017
:100A000000000000000000008D0200000100000056
:100A100010000000100000000801000003040000A6
:100A20000000000000000000B86C010000000000A1
:100A3000A47301000000000000000000000000009E
:100A40000000000000000000A701000010000000EE
:100A50001800000010000000080100000200000063
:100A60000000000000000000B86C01000000000061
:100A7000A86D010000000000000000000000000060
:100A800000000000000000008903000001000000D9
:100A90001800000010000000080100000500000020
:100AA0000000000000000000B86C01000000000021
:100AB0000C6E0100000000000000000000000000BB
:100AC0000000000000000000A6010000100000006F
:100AD00018000000000000000801000001000000F4
:100AE0000000000000000000B86C010000000000E1
:100AF000606E010000000000000000000000000027
:100B00000000000000000000A8010000010000003B
:100B1000180000001000000008010000040400009C
:100B20000000000000000000B86C010000000000A0
:100B3000D06E010000000000000000000000000076
:100B4000000000000000000082030000010000001F
:100B5000180000000C000000A0020000860F00003A
:100B60000000000000000000046F01000000000011
:100B70001C6A010000000000F06F0100000000008E
:100B80003870010000000000A90100000100000011
:100B9000180000001000000008010000030400001D
:100BA0000000000000000000B86C01000000000020
:100BB000347301000000000000000000000000008D
:100BC00000000000000000008B0200000100000097
:100BD00018000000100000000801000003040000DD
:100BE0000000000000000000B86C010000000000E0
:100BF0006C73010000000000000000000000000015
:100C000000000000000000008E0200000100000053
:100C1000180000001000000008010000030400009C
:100C20000000000000000000B86C0100000000009F
:100C3000A47301000000000000000000000000009C
:100C40000000000000000000AB01000010000000E8
:100C50002000000010000000080100000200000059
:100C60000000000000000000B86C0100000000005F
:100C7000A86D01000000000000000000000000005E
:100C800000000000000000008A03000001000000D6
:100C90002000000010000000080100000500000016
:100CA0000000000000000000B86C0100000000001F
:100CB0000C6E0100000000000000000000000000B9
:100CC0000000000000000000AA0100001000000069
:100CD00020000000000000000801000001000000EA
:100CE0000000000000000000B86C010000000000DF
:100CF000606E010000000000000000000000000025
:100D00000000000000000000AC0100000100000035
:100D10002000000010000000080100000400000096
:100D20000000000000000000B86C0100000000009E
:100D3000D06E010000000000000000000000000074
:100D4000000000000000000085030000010000001A
:100D5000200000000C000000A0020000860F000030
:100D60000000000000000000046F0100000000000F
:100D70001C6A010000000000F06F0100000000008C
:100D80003870010000000000AD010000010000000B
:100D90002000000010000000080100000304000013
:100DA0000000000000000000B86C0100000000001E
:100DB000347301000000000000000000000000008B
:100DC00000000000000000008C0200000100000094
:100DD00020000000100000000801000003040000D3
:100DE0000000000000000000B86C010000000000DE
:100DF0006C73010000000000000000000000000013
:100E000000000000000000008F0200000100000050
:100E10002000000010000000080100000304000092
:100E20000000000000000000B86C0100000000009D
:100E3000A47301000000000000000000000000009A
:100E400000000000000000001F000000080000007B
:100E50000800000008000000800000000200000000
:100E60000000000000000000148D010000000000E0
:100E7000388D0100000000000000000000000000AC
:100E800000000000000000001D000000080000003D
:100E900008000000000000008000000001000000C9
:100EA0000000000000000000148D010000000000A0
:100EB000688D01000000000000000000000000003C
:100EC00000000000000000002C00000008000000EE
:100ED000180000000800000080010000020000006F
:100EE0000000000000000000E48D01000000000090
:100EF0002C8E010000000000000000000000000037
:100F000000000000000000002B00000008000000AE
:100F10001000000008000000800100000200000036
:100F20000000000000000000648E010000000000CE
:100F30002C8E0100000000000000000000000000F6
:100F400000000000000000002B000000080000006E
:100F500010000000000000008001000001000000FF
:100F60000000000000000000648E0100000000008E
:100F7000AC8E010000000000000000000000000036
:100F800000000000000000006200000008000000F7
:100F9000050000000800000084000000420200007C
:100FA0000000000000000000588F01000000000059
:100FB000D8950100000000000000000000000000C3
:100FC000D09701000000000025000000080000008C
:100FD0001000000008000000840000004202000031
:100FE0000000000000000000588F01000000000019
:100FF000D895010000000000000000000000000083
:10100000D097010000000000050000000100000072
:101010001000000000000000080400004000000074
:10102000000000000000000010A00100000000000F
:1010300048A00100000000000000000000000000C7
:101040000000000000000000178007000000000002
:101050002B800700000000003B800700000000001C
:101060004A800700000000005A80070000000000CE
:1010700067800700000000007F800700000000007C
:101080009380070000000000AA8007000000000015
:10109000C580070000000000D280070000000000AB
:1010A000DF80070000000000FA8007000000000059
:1010B00012810700000000002E81070000000000E0
:1010C0004881070000000000608107000000000068
:1010D0006D810700000000007A8107000000000019
:1010E00089810700000000009881070000000000CF
:1010F000A981070000000000C18107000000000076
:10110000D181070000000000DF810700000000001F
:10111000EB81070000000000F981070000000000DB
:10112000088207000000000016820700000000008F
:101130002482070000000000358207000000000044
:1011400046820700000000005582070000000000F2
:101150006C820700000000000D7F07000000000007
:101160001C7F070000000000417F07000000000016
:10117000597F070000000000687F070000000000A2
:1011800020E5070000000000010000000100000051
:101190000000000002000000CC0200002B810400CF
:1011A0002300000005000000389208000000000045
:1011B0008896080000000000CB0200002B8104008C
:1011C0002200000005000000D0930800000000008D
:1011D00088960800000000009F0100002A8648CE83
:1011E0003D03010708000000009508000000000012
:1011F000D896080000000000C90200002B810400FE
:101200002100000005000000D0950800000000004B
:1012100048980800000000000000000000000000E6
:1012200000000000000000000000000000000000BE
:101230000000000000000000EC2408000000000096
:101240004201FFFFFFFFFFFFFFFFFFFFFFFFFFFF69
:10125000FFFFFFFFFFFFFFFFFFFFFFFFFFFFFFFF9E
:10126000FFFFFFFFFFFFFFFFFFFFFFFFFFFFFFFF8E
:10127000FFFFFFFFFFFFFFFFFFFFFFFFFFFFFFFF7E
:10128000FFFFFF01FFFFFFFFFFFFFFFFFFFFFFFF6C
:10129000FFFFFFFFFFFFFFFFFFFFFFFFFFFFFFFF5E
:1012A000FFFFFFFFFFFFFFFFFFFFFFFFFFFFFFFF4E
:1012B000FFFFFFFFFFFFFFFFFFFFFFFFFFFFFFFF3E
:1012C000FFFFFFFFFC0051953EB9618E1C9A1F92F3
:1012D0009A21A0B68540EEA2DA725B99B315F3B8F5
:1012E000B489918EF109E156193951EC7E937B1640
:1012F00052C0BD3BB1BF073573DF883D2C34F1EFE1
:10130000451FD46B503F0000C6858E06B70404E924
:10131000CD9E3ECB662395B4429C648139053FB592
:1013200021F828AF606B4D3DBAA14B5E77EFE759CE
:1013300028FE1DC127A2FFA8DE3348B3C1856A423B
:101340009BF97E7E31C2E5BD66011839296A789A1B
:101350003BC0045C8A5FB42C7D1BD998F544495787
:101360009B446817AFBD17273E662C97EE72995EB7
:10137000F42640C550B9013FAD0761353C7086A2E7
:1013800072C24088BE94769FD1665001FFFFFFFF76
:10139000FFFFFFFFFFFFFFFFFFFFFFFFFFFFFFFF5D
:1013A000FFFFFFFFFFFFFFFFFFFFFFFFFA518687F1
:1013B00083BF2F966B7FCC0148F709A5D03BB5C9F9
:1013C000B8899C47AEBB6FB71E9138640900000016
:1013D000F72408000000000030FFFFFFFFFFFFFFC1
:1013E000FFFFFFFFFFFFFFFFFFFFFFFFFFFFFFFF0D
:1013F000FFFFFFFFFFFFFFFFFEFFFFFFFF000000FB
:101400000000000000FFFFFFFFFFFFFFFFFFFFFFE7
:10141000FFFFFFFFFFFFFFFFFFFFFFFFFFFFFFFFDC
:10142000FFFFFFFFFFFFFFFFFEFFFFFFFF000000CA
:101430000000000000FFFFFFFCB3312FA7E23EE7F2
:10144000E4988E056BE3F82D19181D9C6EFE814102
:10145000120314088F5013875AC656398D8A2ED11D
:101460009D2A85C8EDD3EC2AEFAA87CA22BE8B0538
:10147000378EB1C71EF320AD746E1D3B628BA79BE8
:101480009859F741E082542A385502F25DBF552938
:101490006C3A545E3872760AB73617DE4A96262CB6
:1014A0006F5D9E98BF9292DC29F8F41DBD289A14B6
:1014B0007CE9DA3113B5F0B8C00A60B1CE1D7E8187
:1014C0009D7A431D7C90EA0E5FFFFFFFFFFFFFFF49
:1014D000FFFFFFFFFFFFFFFFFFFFFFFFFFFFFFFF1C
:1014E000FFC7634D81F4372DDF581A0DB248B0A7FE
:1014F0007AECEC196ACCC5297300000000000000EA
:10150000022508000000000020FFFFFFFF00000090
:1015100001000000000000000000000000FFFFFFCD
:10152000FFFFFFFFFFFFFFFFFFFFFFFFFF000000C8
:1015300001000000000000000000000000FFFFFFAD
:10154000FFFFFFFFFFFFFFFFFC5AC635D8AA3A9303
:10155000E7B3EBBD55769886BC651D06B0CC53B09D
:10156000F63BCE3C3E27D2604B6B17D1F2E12C42CA
:1015700047F8BCE6E563A440F277037D812DEB33A9
:10158000A0F4A13945D898C2964FE342E2FE1A7FF3
:101590009B8EE7EB4A7C0F9E162BCE33576B315E4A
:1015A000CECBB6406837BF51F5FFFFFFFF0000000C
:1015B00000FFFFFFFFFFFFFFFFBCE6FAADA7179E8E
:1015C00084F3B9CAC2FC632551000000000000008A
:1015D0000D250800000000001CFFFFFFFFFFFFFFBC
:1015E000FFFFFFFFFFFFFFFFFF0000000000000004
:1015F0000000000001FFFFFFFFFFFFFFFFFFFFFFF5
:10160000FFFFFFFFFEFFFFFFFFFFFFFFFFFFFFFFEB
:10161000FEB4050A850C04B3ABF54132565044B014
:10162000B7D7BFD8BA270B39432355FFB4B70E0C31
:10163000BD6BB4BF7F321390B94A03C1D356C211F8
:1016400022343280D6115C1D21BD376388B5F72363
:10165000FB4C22DFE6CD4375A05A07476444D58191
:101660009985007E34FFFFFFFFFFFFFFFFFFFFFFB5
:10167000FFFFFF16A2E0B8F03E13DD29455C5C2AAF
:101680003D0000000000000010910200000000007A
:101690003491020000000000609102000000000090
:1016A000D491020000000000089402000000000035
:1016B000D01D060000000000E092020000000000C3
:1016C0002C9302000000000078930200000000004C
:1016D000C0930200000000000C3005000000000074
:1016E00050300500000000008830050000000000B8
:1016F000F43005000000000064A6030000000000B4
:101700007CB7030000000000484E05000000000008
:10171000604E050000000000000000000000000016
:101720000000000000000000400D08000000000064
:101730001000000010000000000000000200000087
:10174000C00D0800000000000300000003000000BE
:101750000000000002000000D80D0800000000009A
:101760001000000010000000000000000200000057
:10177000580E0800000000002000000020000000BB
:101780000000000002000000580F080000000000E8
:10179000040000000400000000000000020000003F
:1017A000780F08000000000020000000200000006A
:1017B0000000000002000000781008000000000097
:1017C00020000000200000000000000002000000D7
:1017D0007811080000000000040000000400000070
:1017E0000000000002000000981108000000000046
:1017F00020000000200000000000000002000000A7
:10180000800C080000000000180000001800000014
:101810000000000002000000D49604000000000058
:101820004C960400000000000000000000000000D2
:1018300030970400000000009096040000000000B3
:1018400044970400000000000C3005000000000078
:101850005030050000000000883005000000000046
:10186000F430050000000000907705000000000043
:101870001CBD050000000000484E050000000000EF
:10188000604E0500000000000000000000000000A5
:101890000000000000000000060000000000000042
:1018A000C401060000000000240206000000000041
:1018B000F4020600000000003C03060000000000E7
:1018C000C8030600000000009805060000000000A4
:1018D0004407060000000000240906000000000084
:1018E000580A060000000000000000000000000090
:1018F000B00B060000000000740000002A8648CEED
:101900003804010000070000B8D8060000000000FD
:1019100094D9060000000000BCDA060000000000B8
:10192000E8DA060000000000F4DB0600000000001A
:1019300000000000000000000000000000000000A7
:101940000CDD06000000000014DD060000000000B1
:1019500020DD0600000000005CDD06000000000045
:10196000FCDD06000000000078DE0600000000003C
:10197000980100000000000080DE0600000000006A
:10198000CCDE06000000000030DF06000000000092
:1019900040DF060000000000E4DF06000000000059
:1019A000B4E006000000000000000000000000009D
:1019B0000000000000000000000000000000000027
:1019C000DCE006000000000090E1060000000000DE
:1019D000980100002A8648CE3D0201000007000061
:1019E00080E2060000000000A8E3060000000000FE
:1019F000CCE406000000000044E506000000000002
:101A000018E606000000000030E7060000000000B5
:101A1000000000000000000038E7060000000000A1
:101A200050E706000000000080E70600000000000C
:101A3000A0E7060000000000F8E706000000000034
:101A400044E8060000000000060000002A864886E0
:101A5000F70D0101010900004CE80600000000003C
:101A600024E90600000000001CEA06000000000057
:101A700078EA06000000000050EB060000000000BD
:101A800048EC06000000000050EC060000000000DA
:101A900058EC06000000000060EC060000000000AA
:101AA0000000000000000000000000000000000036
:101AB00000000000000000006CEC060000000000C8
:101AC000F09A080000000000000000000000000084
:101AD0000000000000000000000000000000000006
:101AE00000000000000000000000000000000000F6
:101AF0006053080000000000140000000000000017
:101B0000432E5554462D3800000000000000000010
:101B100000000000000000000000000000000000C5
:101B200000000000000000000000000000000000B5
:101B300000000000000000000000000000000000A5
:101B40000000000000000000000000000000000095
:101B50000000000000000000000000000000000085
:101B60000000000000000000DC4907000000000049
:101B70000000000000000000000000000000000065
:101B80000000000000000000000000000000000055
:101B90000000000000000000000000000000000045
:101BA0000000000000000000000000FFFFFFFFFF3A
:101BB0000000000000000000000000000000000025
:101BC0000000000000000000000000000000000015
:101BD0000000000000000000000000000000000005
:101BE00000000000000000000000000000000000F5
:101BF00000000000000000000000000000000000E5
:101C000000000000000000000000000000000000D4
:101C100000000000000000000000000000000000C4
:101C2000000000000000000066697665000000000A
:101C3000ADDEADDEADDEADDE080000000000000070
:101C40000000000000000000000000000000000094
:101C50000000000000000000000000000000000084
:101C6000FFFFFFFFFFFFFFFFFFFFFFFFFFFFFFFF84
:101C7000FFFFFFFF0000010002000300040000005E
:101C8000010000006400000064000000FCFF03008D
:101C900001000000640000006D756C746962756974
:101CA0006C645F67706170690000000000000000F4
:101CB0000000000000000000000000000000000024
:101CC0000000000000000000000000000000000014
:101CD0000000000000000000000000000000000004
:101CE00000000000000000000000000000000000F4
:101CF00000000000000000000000000053616D7350
:101D0000756E670001656E0003000000102700007B
:101D10000000000000000000109D0800000000000E
:101D20002200000000000000000102030405060775
:101D300008090A0B0C0D0E0F1011121314151617AB
:101D400018191A1B1C1D1E1F800000000000000037
:101D500000000000880300000300000000000000F5
:101D600038E607000000000010000000000000003E
:101D700048E6070000000000080000000000000026
:101D800050E6070000000000100000000000000006
:101D900060E60700000000001000000000000000E6
:101DA00070E60700000000001000000000000000C6
:101DB00080E60700000000001000000000000000A6
:101DC00090E6070000000000100000000000000086
:101DD000A0E6070000000000100000000000000066
:101DE000B0E6070000000000100000000000000046
:101DF000C0E6070000000000100000000000000026
:101E0000D0E607000000000008000000000000000D
:101E1000D8E60700000000001000000000000000ED
:101E2000E8E60700000000001000000000000000CD
:101E3000F8E60700000000001000000000000000AD
:101E400008E707000000000010000000000000008C
:101E500018E707000000000010000000000000006C
:101E600028E707000000000010000000000000004C
:101E700038E707000000000010000000000000002C
:101E800000000000890300000300000000000000C3
:101E900048E70700000000001800000000000000F4
:101EA00060E70700000000001000000000000000D4
:101EB00070E70700000000002000000000000000A4
:101EC00090E7070000000000200000000000000074
:101ED000B0E707000000000018000000000000004C
:101EE000C8E707000000000020000000000000001C
:101EF000E8E70700000000002000000000000000EC
:101F000008E80700000000001000000000000000CA
:101F100018E80700000000001000000000000000AA
:101F200028E8070000000000180000000000000082
:101F300040E8070000000000100000000000000062
:101F400050E8070000000000200000000000000032
:101F500070E8070000000000200000000000000002
:101F600090E80700000000001800000000000000DA
:101F7000A8E80700000000002000000000000000AA
:101F8000C8E8070000000000180000000000000082
:101F9000E0E8070000000000100000000000000062
:101FA000F0E8070000000000100000000000000042
:101FB000010000008A030000030000000000000090
:101FC00000E9070000000000200000000000000001
:101FD00020E90700000000001000000000000000E1
:101FE00030E90700000000002000000000000000B1
:101FF00050E9070000000000200000000000000081
:1020000070E9070000000000200000000000000050
:1020100090E9070000000000200000000000000020
:10202000B0E90700000000002000000000000000F0
:10203000D0E90700000000001000000000000000D0
:10204000E0E90700000000001000000000000000B0
:10205000F0E9070000000000200000000000000080
:1020600010EA07000000000010000000000000005F
:1020700020EA07000000000020000000000000002F
:1020800040EA0700000000002000000000000000FF
:1020900060EA0700000000002000000000000000CF
:1020A00080EA07000000000020000000000000009F
:1020B000A0EA07000000000020000000000000006F
:1020C000C0EA07000000000010000000000000004F
:1020D000D0EA07000000000010000000000000002F
:1020E0000000000088030000020000000000000063
:1020F000E0EA0700000000002000000000000000EF
:1021000000EB0700000000000800000000000000D5
:1021100008EB0700000000002000000000000000A5
:1021200028EB070000000000200000000000000075
:1021300048EB070000000000200000000000000045
:1021400068EB070000000000200000000000000015
:1021500088EB0700000000002000000000000000E5
:10216000A8EB0700000000001000000000000000C5
:10217000B8EB0700000000001000000000000000A5
:10218000C8EB070000000000200000000000000075
:10219000E8EB07000000000008000000000000005D
:1021A000F0EB07000000000020000000000000002D
:1021B00010EC0700000000002000000000000000FC
:1021C00030EC0700000000002000000000000000CC
:1021D00050EC07000000000020000000000000009C
:1021E00070EC07000000000020000000000000006C
:1021F00090EC07000000000010000000000000004C
:10220000A0EC07000000000010000000000000002B
:102210000000000089030000020000000000000030
:10222000B0EC0700000000002800000000000000E3
:10223000D8EC0700000000001000000000000000C3
:10224000E8EC07000000000028000000000000008B
:1022500010ED070000000000280000000000000052
:1022600038ED07000000000028000000000000001A
:1022700060ED0700000000002800000000000000E2
:1022800088ED0700000000002800000000000000AA
:10229000B0ED07000000000010000000000000008A
:1022A000C0ED07000000000010000000000000006A
:1022B000D0ED070000000000280000000000000032
:1022C000F8ED070000000000100000000000000012
:1022D00008EE0700000000002800000000000000D9
:1022E00030EE0700000000002800000000000000A1
:1022F00058EE070000000000280000000000000069
:1023000080EE070000000000280000000000000030
:10231000A8EE0700000000002800000000000000F8
:10232000D0EE0700000000001000000000000000D8
:10233000E0EE0700000000001000000000000000B8
:10234000010000008A0300000200000000000000FD
:10235000F0EE070000000000300000000000000068
:1023600020EF070000000000100000000000000047
:1023700030EF070000000000300000000000000007
:1023800060EF0700000000003000000000000000C7
:1023900090EF070000000000300000000000000087
:1023A000C0EF070000000000300000000000000047
:1023B000F0EF070000000000300000000000000007
:1023C00020F00700000000001000000000000000E6
:1023D00030F00700000000001000000000000000C6
:1023E00040F0070000000000300000000000000086
:1023F00070F0070000000000100000000000000066
:1024000080F0070000000000300000000000000025
:10241000B0F00700000000003000000000000000E5
:10242000E0F00700000000003000000000000000A5
:1024300010F1070000000000300000000000000064
:1024400040F1070000000000300000000000000024
:1024500070F1070000000000100000000000000004
:1024600080F10700000000001000000000000000E4
:10247000000000000000000000000000000000005C
:10248000000000000000000000000000000000004C
:10249000000000000000000000000000000000003C
:1024A000000000000000000000000000000000002C
:1024B000000000000000000000000000000000001C
:1024C000000000000000000000000000000000000C
:1024D00000000000000000000000000000000000FC
:1024E00000000000000000000000000000000000EC
:1024F00000000000000000000000000000000000DC
:1025000000000000000000000000000000000000CB
:1025100000000000000000000000000000000000BB
:1025200000000000000000000000000000000000AB
:10253000000000000000000000000000000000009B
:10254000000000000000000000000000000000008B
:10255000000000000000000000000000000000007B
:10256000000000000000000000000000000000006B
:10257000000000000000000000000000000000005B
:10258000000000000000000000000000000000004B
:10259000000000000000000000000000000000003B
:1025A000DA6885BCAC2908A9B43499E73644D41854
:1025B0007A2773BD5E2B142D7CEB3A5211DA58B199
:1025C000265E68C8ABE09E4FB4A50800000000007E
:1025D0003D000000000000000000000000000000BE
:1025E00000000000000000000000000000000000EB
:1025F00000000000000000000000000000000000DB
:1026000000000000000000000000000000000000CA
:1026100000000000000000000000000000000000BA
:1065B0000000000000000000CCF502000000000018
:00000001FF
