:1000000000000900000000000000000000000000E7
:1000100000000000000000000000000000000000E0
:1000200000000000000000000000000000000000D0
:1000300000000000000000000000000000000000C0
:1000400000000000000000000000000000000000B0
:1000500000000000000000000000000000000000A0
:100060000000000000000000000000000000000090
:100070000000000000000000000000000000000080
:100080000000000000000000000000000000000070
:100090000000000000000000000000000000000060
:1000A0000000000000000000000000000000000050
:1000B000309C080000000000C0D6080000000000CE
:1000C000C4D60800000000006063070000000000C4
:1000D000C8D60800000000003070080000000000D2
:1000E000409C080000000000509C08000000000038
:1000F00018700800000000002070080000000000D8
:100100004070080000000000000000000000000037
:10011000D46008000000000000800800000000001B
:10012000B8E50800000000001070080000000000A2
:100130003870080000000000517008000000000046
:100140005870080000000000507008000000000017
:100150004870080000000000607008000000000007
:10016000B8E5080000000000C0E50800000000003D
:10017000C0E5080000000000C0E508000000000025
:10018000809C0800000000006041020000000000A8
:10019000AC5802000000000038D20100000000004E
:1001A00060B608000000000060A608000000000023
:1001B000109D08000000000060C60800000000005C
:1001C00060DD010000000000C0DD01000000000053
:1001D00000DD010000000000C0E10100000000009F
:1001E000808D0700000000009882070000000000DA
:1001F000888D070000000000289C08000000000017
:10020000A4BD01000000000080C501000000000046
:100210008896080000000000989108000000000087
:10022000C8A508000000000080BD0100000000001B
:1002300070570500000000000024080000000000C6
:10024000D8C3070000000000605B0300000000004E
:10025000D05B0300000000003CD60100000000005D
:100260007023080000000000849F040000000000CC
:100270003053080000000000D09908000000000082
:10028000489A080000000000F898080000000000EC
:100290009898080000000000709908000000000015
:1002A000A0E5080000000000A0E508000000000034
:00000001FF
