:20000000000600205D03000071000000730000000000000000000000000000000000000076
:200020000000000000000000000000007500000000000000000000007700000000000000D4
:20004000751200007B12000081120000871200008D12000093120000991200009F120000C0
:20006000A5120000AB120000B1120000B7120000FEE7FEE7FEE7FEE7FEE70020006880F30C
:2000800008887047FC48002101724172704710B5F94B1A7A5C7A511C0907090F8C4201D12F
:2000A000012010BDF44C9200403C121990601972002010BDF04E403E34464034217A607A52
:2000C000814201D130BFF9E7810089198D68002D0CD0401C0007000F6072A8470028EDD083
:2000E00072B62846FFF7D3FF62B6E7E7FFF7CAFFE4E708B5E249E1480860FFF7BEFFE148DD
:200100005A2101700026067109210172DE4981810A218182DD49018308218183D948022741
:2001200020300776DA498E80DA480880392000020882D9490120088081240C80D648D749F8
:2001400020300180D648012180780843D24920310871D449202008760877D2492031087028
:2001600008730874D04881B2D04800F01AFC3022CF49D04800F005FCCF49012008700C707F
:20018000CD483B210171CC490F200881CA482121017000F00DFC00F0DDFBC849062008608A
:2001A000B74980390860C648012101800321018041210176C34800F0D1FAC34C0020207169
:2001C0000146AD48C030417300F077FEBF4DE87200F085FB207A8007FCD5BB49002020319D
:2001E0000870B9490220087207220121002000F0A0FA4003010CB548B54B203881839E4964
:200200000446EA7A06464034074640396036C0370094202A53D0602A5CD0A02A7DD000F05F
:2002200064FBAC48017DA94C203C2170017C6170007EA0700120A849E07001C960602046DD
:200240000C22B03000F09DFBA34908221031384600F097FB4220608100980D210173022012
:20026000B0720F20A87720466026E030067400F025FF2146A031C87700F032FF9248802171
:20028000017096480121017081210170934A952120321180FF218182F100018200210171C9
:2002A000864961200860764980390860208C8C4930432084A184E97A00293FD041E089485C
:2002C0008B6748607B48884981613020F0720020E8752CE0854848607648854981610020D0
:2002E000F0727A4810228349B03000F04AFB00984089BE2802D2B87F001DB877664820302B
:2003000001887322C9B2120289180180624C7A48A08003202081B87F00E00BE002F02AFBA1
:20032000A0814D2020800F2020820020207500F0A0FA76E771488B67486072E76849203174
:20034000A18483216972012189020840603000F09BFA58486A494160FFF7ACFE082000F043
:200360000BFB484840300178490602D50179C907F9D0FFF7BEFE554810B52038C08B0028E6
:2003800002D0002000F080FA3E482030017F8906890F04D0017F89060AD50A2109E000218D
:2003A0000177354840226030417B1143417301E0092101773048454C40380168491C40344C
:2003C0000160A17B890704D472B64068FFF75FFE62B6A07B40070AD527482030817DC07DC2
:2003E000814204D072B64748FFF751FE62B672B64548FFF74CFE62B6002010BDF8B51E4C41
:20040000424D8034A08EA84234D0002807D120862948402101812121017000F09BFA2B4ED2
:2004200015482036A030027B417B8A4275D04B00114F491C403FDB19C03309071B89090FAD
:200440004173218E491C89B22186012962D0678EFB1863860329E7D398B2401C41081B486D
:200460006186203841862A4A4808801801F086F830815BE05DE050E070010020FF0F0000B3
:2004800080E100E000300040051D00003B23000000340040010A00000038004010300000F4
:2004A00060470000006C00409802002000000020F415000000010020003C004080E200E027
:2004C00000440040EC1500000060004020000020CF070000605800407416000000640040BB
:2004E00003840000C71A0000E7130000532C0000351400005C2E0000ED020000292F000001
:200500005714000003120000491C0000FFFF000000DC05000021618686E7A08E401C80B2E6
:20052000A086042805D9584845863581A58600F0D6F9F8BDF8B5544D544C2035E07A2F46B9
:200540000026403700286BD02046C030407B002802D14F4800F002F9A07A04283DD94A4D1A
:20056000C035287E002804D148202876474880308686FFF743FF01F089F8E07A81072BD506
:2005800006214840E072434801880322C9B21202891801803F4815212038818002210181B5
:2005A0000D2181814D2101800F21018206753648FF215831403081843220B8710520287218
:2005C00002F09CFF3548344901808681334A0121403211810321818054E0411CA172042874
:2005E00050D12948C322818DD2002D48914203D21421A9776C2103E04621A977FF213531B5
:200600000182818B012211438183018B52039143018320480188072212039143018031E002
:20062000787A00281DD0032805D0022807D0012805D07E7226E00820E8721A4904E002F003
:20064000B8FE04201849E87210482022403841600D48A672018C11430184104600F014F92C
:2006600010E00F4840300179C9070BD00079C00608D40220E8720120E07204480B4940387C
:200680008167A6720020F8BD0000002070010020AC1D000020380040F30900000034004003
:2006A00000300040D93500002D340000CF070000FA488078032803D0042801D0F848704759
:2006C000F848704770B5F8498A88D243920707D0F24A2032927F322A02D34009002303E007
:2006E000C200101AC00901233C2801D23C2002E0FF2800D9FF200A8AEC4C120AC01E824203
:2007000015D0002B02D1257B012D03D0551DA84200D928460D8A402215430D820D8A4F26C6
:200720003540000205430D82088A90430882237370BD70B50023DE4D0AE044006419403427
:20074000A48F260B964207D12405240DE31840180828F2D3184670BDD64870BDD64A0021CC
:200760001170D249012340394B73D44903888B8043880B8183888B81C0880882B42010703B
:20078000CB487C30108107209080CB48022220380272037972B61343037162B6C7482030EA
:2007A000027AFB231A400272088810221043088070470A8810184A88898810180818C0498F
:2007C00000228A5E8008801A00D50020704770B5022211460020FFF7ACFFB44983082839F7
:2007E0001846FFF7E6FFAD491F22A0318A56AB4DAE4C8018A885203C207BAD4E4000801956
:20080000FF3001300383012204211046FFF791FF4308211D1846FFF7CCFF2886207B0322B8
:2008200040008019FF300130838408211046FFF780FF0346A11EFFF7BCFFE885207B04229D
:2008400040008019FF300130C38308210720FFF770FF29464031C880207B022801D3002083
:2008600000E0401C20739148002140384173084670BD944801784222114301709249C014DB
:20088000086092490860704730B5844D834A2035E97A8F4C4B09D18B0143002B02D0237E4E
:2008A000DB070AD0938C1940538C1943518403D0217FFB231940217700210346D183FE2195
:2008C0000B40C003C00F0343697A287A19400843287203D0207FDF210840207730BD7D482F
:2008E0008121018000210180704700B56E48002282806D4940310A7477490180774808211F
:20090000818377490183774802707749812008806C4909200870FFF7E2FF65497348486037
:200920006B48203001788908890001705B48FF234030C18901339943C1812038C2722038FB
:20094000018C2522520111430184A020FFF79CFF002000BD554800216038017341735D4846
:2009600001210180011581800F21018002220281018304218182704700E000BF401EFCD237
:200980007047821801E008C908C09042FBD37047821803E00B780370401C491C9042F9D363
:2009A00070474118002200E004C08842FCD370474F48012101704E4A052140321180002204
:2009C00002744B4920310A744A4A8A8113220A700721017270473148C28C110403D5018C5D
:2009E0004904490C0184418C914300224184C284002904D13648017F04221143017770475D
:200A000026482030017A827A9143002201728272002904D12E48017F20221143017770478B
:200A200010B4214800228088000700D510222B48808B0821C004002800DA0A432E48838915
:200A4000DB060CD5042380891A43800607D5134803232030C3762030C3890B43C3810F4B53
:200A60001C24188C01462040504004D0A1431143198410BC08E710BC70470C4910B5A03981
:200A80004A7A1E480B2A3DD3094A1D49116016490A8810239A430A8010BD00000000002045
:200AA0000852000064500000003400407002002030010020FFFF000020600040004400408F
:200AC00020470000003C004080E200E000E100E0206C0040004C0040010A0000003000405D
:200AE0003B3B000000360040003800403505000000540040E703000020480040DF2E000025
:200B0000EC0F00008B7A5B1CDCB2FA4B8C72012C08D00A2C08D2F849A41E515C0122A240C3
:200B20001142B9D11846B7E700238B72521C4A72B2E70246002002E013785840521C491EB7
:200B4000FAD270470822012101E009184008521EFBD2C807C00F7047F0B5E74C00278C3C23
:200B6000204626468C3080363D468446A034607A00280ED1A07A317B884206D20121B940AC
:200B8000401C0D43A072BF1C34E00020A07201206072C1B2207A814218D2A07A002819D09E
:200BA000092806D26246895C401EC140C807C00F10E0092805D0FF220120A272491C61721E
:200BC00008E06046085CFFF7BDFF03E0607D01214840A175617D01225140484060754000C2
:200BE0000843B8400543A07ABF1C401CA072A07D012801D0102FBAD37F1E27757586F0BD43
:200C000070B50546411CBC48401CFFF792FFBA49B94C8C394919803188731434ED1C25725D
:200C2000207BE07200206072A07260750226A675FFF792FFB1480188C904617B03D52022DF
:200C40001143617307E0DF221140617301880122120311430180AA490A8A0C231A430A822A
:200C6000A17B00220A2903D2A6498B7F322B03D2A4494031C97A00E0C97D8B0601D4FF22B5
:200C80000132CB0602D401235B021A43038803252D02AB4313430380984D9B48203DA880A6
:200CA0002E810020C043A88100200A0600D40820490601D4402108432521084328808E482E
:200CC0000C38408E2882207D2875FFF745FFFF200002A88170BD8D494A140B8B002805D0A6
:200CE00093430B83032803D9002207E013430B830321484001214003090342187F480188D5
:200D000007231B0399431143018070477A4800B51430417B49084900417339217848090239
:200D2000018281888908890081800188F022914301800020FFF7CFFF74490820888371488F
:200D400080222038018C914301841046FFF79CFD00BD6E4A108BC004C10E6A482030007BAE
:200D60004000401C1F2800DD1F20814200D2481C118B1F231B029943000201431183604921
:200D800008880722120290435E4A4032927A5207520D104308807047F8B5574A4109143265
:200DA00000290AD0202901DB1F2106E0937B8B4201DA491E01E08B4200DD9173514E472231
:200DC000B77F12020E23B900D3561C314F4AC918118223377D217843C90000F0CFFB3446AC
:200DE000A034A17C081A04D4E17C40434143481100E00020E18A0D18A08AA84200D205468A
:200E00003803D22100F0BAFB1F217156401908183F49884200D90846F17AA02907D0394979
:200E200020398978032904D0042902D004E0394900E039494843000C2082F8BD0021302230
:200E40004000C30500D55040491C0829F8D30006000F70472B4910B52031CA8AC0075400FF
:200E6000C00F04432448CC827430817C491CC9B281740C2908D32009FFF7E0FF2107090FDE
:200E8000884201D1012007E6002005E6014610B522480089224A401C504300F06FFB194987
:200EA00080B220314881BE2801D96020F4E5462801D80020F0E52020EEE5FEB50E4E114C12
:200EC0008C3EF01DF930203C00902046C03035460190C0353046114FE03002903878400661
:200EE00005D4608E00281DD1306801281AD90020FEBD0000E9030000BC0100202038004025
:200F00000034004020000020DB05000000300040FF0F00008020050039050100003C00405F
:200F20007017000030680F2870D20298017B407B8142D3D041008919C0310989401C8C464E
:200F400002070299120F4A73288E401C80B2288604286FD9604668854300288500225100B3
:200F60000919C031098A688DCB18814201D2698503E0288D814200D92985521C062AEED32E
:200F80000199897F491CCAB20199062A8A7702D3019A0021917701996046897F49000919B7
:200FA000C0310882D80805216086C901401AA12802D30020288691E72B8D688D191A0E29AB
:200FC00050D9009A00211174C0184108907D61451FD9002811D0907B00280ED0D17D00294B
:200FE00001D1022807D90020D0750120FFF732FF002828D101E00120D0750099002088734C
:20100000C97B491CCAB20099CA7328E032E0887564E7002806D0D07B002818D0D17D0029A3
:201020000BD108E0012090750020D0759074FFF711FF0CE028E0022807D90020D075FFF7FE
:2010400009FF002803D0602052E70120D07500990020C873897B491CCAB200998A73052AD0
:20106000A9D9D4E70098007C401CC1B200982829017403D9608EFFF709FF39E70099002051
:2010800088758873C87329E702280DD0002160464A001219C032491C10820629F8D300994E
:2010A00000208875087419E760466086FFF7EEFE45484089C008401E38810FE742484038FC
:2010C0008078032809D0042807D0404940480289891A0022825E881870473C491531F5E7D2
:2010E000F8B53C48008B4727C004C40E3F02B88A0090398B641C411A37480E46604300F018
:201100003DFA364DC822288000983146504300F04BFAFF219131081A6880FE8BF88A311A6A
:201120002F48604300F02AFA80B2A88015217043614300F023FA192180094901081A00B2AC
:201140008D214843C117090E08180012E880F8BD70B504461F48008B2049C00440394A7D4A
:20116000C00E824202D04875FFF7BAFF1D481B49844203D8022208888A5E1EE019484030CA
:20118000844203D3062288888A5E16E015480B88404222188888C01A5043C517AD0E28189D
:2011A0008011C018062502234D5FCB5EE91A5143CA17920E51188911CA184443200C801859
:2011C00000D5002070BD000040000020310400002047000000300040001A040070020020D1
:2011E00080920800DA0200001E498A7D0B469200603BD218D064887D401C4007400F8875FB
:20120000704730B518480179890628D4174940220A7080220A74134AD47D1546A300603D28
:201220005B194C330B8304238B8201230B720D7972B61D430D71641C6107490FD175052120
:20124000517562B658210177FF21818208490182302101710F2101700179194301710020FC
:2012600030BD0000900100200064004000600040C6030000B24800680047B1484068004732
:20128000AF4880680047AE48C0680047AC4800690047AB4840690047A94880690047A8482B
:2012A000C0690047A648006A0047A548406A0047A348806A0047A248C06A0047F8B5A14834
:2012C000027A01790A400272D10719D001794908490001710021017401709B4C657D9B495F
:2012E0000223052D09D00E7904252E430E710E8AC127BF00BE430E8265750C791C430C7113
:2013000091070CD50179FD22114001718D490020203108708C486038806FFEF7B8FEF8BD7E
:20132000F8B58A4CA08A218A0840FF21A182864DC62106460E40603D7021495BEA6E022327
:201340006035002E25D0C42630400026002808D02079184320712020FFF70EFB062068758E
:2013600007E0687D042803D1207B51182039C8776E7501202070032000022082FC202077F7
:2013800026717048067006740179490849000171F8BD6D4EC707203E768E002F03D0300AAC
:2013A00020736B75F8BDC006FCD5687D022812D021202071FF20C330208262484023037077
:2013C000902303740283891E81820121017202790A430271F8BD267303206875F8BD5C493C
:2013E00081200880704710B5594930200876564800224030837D002B0CD00446203C648E09
:201400000C82047D0C75012B02D0FFF7A5FB10BD827510BD01230B804E490272897B8906CA
:2014200002D5807B0428F4D24B48018A0C229143018210BD10B5464C30202076FFF71DFB2D
:20144000A08010BD404860380168491C0160434907200872704710B5404C207A800702D523
:201460003F48FEF714FE0720207210BD10B53D498B8935488030027B04465200E03C12196C
:20148000C0321381027B521C1207120F02730F20088310BDF0B5344C0F2020832A49002714
:2014A000E031CA8A08461830135CDF262F48002B13D08C8A0125A5401D42037802D0202526
:2014C0002B4300E033400370641CA0B28882082802D38F82521CCA82F0BD278002783240EC
:2014E000027018204874F0BD20497F2088821648E030017C0A060BD41C4A203A127ED206C5
:2015000006D5802211430174134A022140321174017C09090901891D0174704710B5144882
:201520000178490604D5412101701248FEF7AFFD11480179C90701D01021017110BD000058
:20154000000100200060004090010020006400400038004060000020003400400054004075
:2015600077030000004C004000500040406C0040003C0040EB0800004030004030B50B4694
:20158000014600202022012409E00D46D5409D4205D31D469540491B2546954040191546E5
:2015A000521E002DF1DC30BD70B500242546002801DA01244042002901DA01254942FFF7CB
:2015C000DDFFAC4200D04042002C00D0494270BD30B47446641E2578641CAB4200D21D46DC
:2015E000635D5B00E31830BC184700000707070707070707BD120000451400006D140000A9
:20160000951400007900000021130000DF13000079000000E914000079000000790000001A
:201620001D15000025423132333435363738393032333435365E4348524953204A454F4EDD
:20164000475E393930312A2A3132332A2A2A2A2A3F003B3132333435363738393031323339
:201660003435363D393930313132303039353133383F0000010064004A616E203236203257
:201680003031380031313A33343A3037F8B5464C207E2546401EC0B2C03D2076082812D34D
:2016A00081070FD1618BAA8D891889B26183A28B2B8ED21892B2A283082803D108096083AE
:2016C0001009A083F8BD0628FCD8FEF7F1FF618B354F4843803F0001000C7D213E468901BF
:2016E000203E38808842B07F03D22D2805D3142002E02D2801D24620B0772B482B49C0382F
:20170000C08D4843010C2848C0388187A08BFFF71FFD0546B880608B0B2109074018FFF73F
:2017200063FDA08B052149074018FFF75DFD1E480D21C038C08D09074018FFF755FD07214F
:20174000284649070843FFF74FFD19480088000BC10705D04007800F0A21401C4843451967
:2017600038887D216843C900FFF708FF0321054689070843FFF738FDE8010E49FFF7FEFEF3
:2017800009490E22C039888600206083A0832076B07F4721090280008A561C3006498018CF
:2017A0000882FFF7D6FAF8BDC00000208020050020380040881300000030004010B5F848F7
:2017C00001688030826B436C8A1A9A420ADB816383218900818101462031097C81730120AA
:2017E000FFF70EFA10BD10B5EE48007C00F0E2FA044605281ED8EB49E948621C10318D308D
:20180000FFF7C6F8E6480C2180300173C068E6490840E649884206D1E1480068002800D19C
:20182000401EE3498864E2484021203081732046FFF7E6F910BDDA4810B5DE49803081819B
:20184000D8492039897E81730120FFF7D9F910BDD34810B50C218030017318214173FF211F
:2018600081734021A03081730120FFF7C9F910BDF8B5CC4CCE4E8034207E2036401EC1B24F
:201880002176002917D02746C03FDC20C05B08292AD38A070ED1628BBB8DD21892B2628338
:2018A0003B8EC01880B2A083082903D1110961830009A083F8BDB07BC007FBD0707F01079A
:2018C000F8D5C107F6D1810703D5FD2108407077F8BD4107FCD4F72108407077B549B448F1
:2018E000D0314038C185F8BD0629FCD8FFF730FC0546608B0B2109074018FFF775FC0521F8
:20190000284649070843FFF76FFCF88D0D2109074018FFF769FC788E0F2109074018FFF753
:2019200063FCA5480088000BC10705D04007800F0A21401C484345199A4840388078032868
:2019400018D0042816D0608B152169434843070B00206083A0830721384649070843FFF7C6
:2019600043FC9648818801290DD095498D420CD905200EE0608B1521694348439149FFF76D
:20198000FDFD0746E4E7002003E000880006800F401C60760321C0B289074018FFF724FC4F
:2019A000607E41007F48403808186030017C7943CA09112141560A204143881800D5002001
:2019C0007849774DA0310A798035312A1FD0002222764022B2730A46C03A927F322A02D362
:2019E000097C4143C8097849884200D90846C0017649FFF7C3FD04467148BA30A881AC73F0
:201A00000120FFF7FDF8674840388486F8BD012222761022B273727F130705D5920701D56E
:201A2000012602E0022600E0002689797D22D20051430004FFF7A2FD65490446884200D934
:201A40000C466448A881AE73200AE8732C740320D7E7534810B560498030C16041214902B1
:201A60000182002181740520FFF7CAF810BD4C4810B55A49803081814A49403949890A0A83
:201A800012021132C2810174642141745449CA7B82740A7CC274497C01750720FFF7B0F869
:201AA00010BD404810B54038808DC008FF2800D9FF203B49FF220D3280318A8188730120E4
:201AC000FFF79EF810BDF8B5394F787B002802D14448FEF743FE364D603D287A002820D1ED
:201AE000E87A2C46603C00281CD0401EE872A07A032816D372B63C48FEF7C9FA62B6287B5D
:201B0000E97A401E81427FD120460021803081860186687B800677D4274801888214914316
:201B2000018071E0A07A224E03002036FFF750FD0906151A232C2F32676A6C0018480068BA
:201B40001D2861D90820287315483221803041640120A072FFF7A5FF56E0FFF788FF02209C
:201B6000A07251E01E202873FFF773FF0320A0721020B07348E0B07BC00702D000F001FB81
:201B800042E000F0C7FA3FE000F0FAFD3CE000F046FD39E0B07BC00728D0072027E00000EC
:201BA000300100204000002000FFFFFC0028062C300200200C0500002038004000340040B1
:201BC0005203000054100000E826000088130000FFFF00000C3100000C510A000C71000084
:201BE00020470000AC1D00003B1F00000520A07200207073B0736948406E386304E000F030
:201C00001EFB01E0FFF7DAFD0020F8BD6449082208746348322120384164014640398A721E
:201C20004039096832398163704710B55C48417B0A0703D5F7221140417310BD082211433D
:201C40004173FFF763F810BDF8B5FEF7E9FE5348FF224038C48941322146914302D02146C1
:201C60001140C1814D494F4D888F0E4660401040803E022700281ED08C87C10507D5E105AC
:201C8000297801D5394301E0FD2211402970400611D56006308C05D538433084287804214B
:201CA000084304E0B84330842878FB21084028700220FEF7E9FD3C4804420FD000202104BF
:201CC00000D50820E10600D53843E10701D004210843334960310A7B02430A73AE2004423F
:201CE00025D0200603D501200004FEF7CDFDA00601D5FEF770FE200711D528496039C87AD5
:201D0000202806D0402804D0602806D0802804D005E0C87EFFF77AFF01E000F014FF6007AA
:201D200001D5FEF7E6F9A00701D5FFF77EFF1B484022203004782146914302D021461140B3
:201D40000170817F6140114212D084776006308C05D53843308428780421084304E0B84327
:201D600030842878FB21084028700220FEF78CFD002C10D0200602D50120FEF785FDA0062C
:201D800001D5FEF73DFE600701D5FEF7B2F9A00701D5FFF74AFF0020F8BD0000800000202F
:201DA000D0010020406C0040118000003231320332313214202801D201207047802803D204
:201DC00020380011801C7047E02803D28038C01008307047E03880101430704770B500210A
:201DE000C748C943C74DC186288C00041BD4C44C4034E07C401CC0B2E074042801D904209A
:201E0000E074C2B2BE49BF4838315830FEF7C0FD207B012108432073298C0120C0030143D1
:201E20002984FEF731FD70BDF8B5B54D06466035A87BB3490090C039C706F0018446084697
:201E4000CC1DE031C030F9348E46838EA27C097E002F1EDA490866463143C9B2764631766B
:201E6000002A0AD0072A0AD3FF290BD000290BD055290BD0AA2909D05DE02833C386521CF5
:201E8000A27456E0012002E0022000E00420A87351E0009F7F06BF0F4DD0002A19D0984B7C
:201EA000C03B1846FF330133F8305B7C092A16D00A2A36D3002E3ED00022A274002B23D07C
:201EC000E17C8B4224D9891CFEF733FE002823D031E0002E2FD13C33C386012028E00A21AA
:201EE000A174185CFEF72EFEB04224D0607C00281FD0E17C88421CD3A87B400619D5FFF7FC
:201F00006DFF4C20E07316E00846FFF753FFE074607C401C60740CE0A87B80060BD508200D
:201F2000B5E7195C6246490811431954A07C401CA0740020F8BD0120F8BDF8B5704D72487B
:201F40002C46C03C2646298EFF34A036013481420BD1E88E884207D1E07B002803D0401E47
:201F6000E073307B401EF072C8E06648644FA98E403020370090002909D100206074A07401
:201F80000F20E886614940200881FEF7E3FC8EE041005B4A401CC03A8918C0310007098968
:201FA000000F7873288E401C80B22886032823D8012806D06A8E511889B26986032876D113
:201FC00006E000206886E073A073A075E0756EE0491C49084B48698641864D4A4808801871
:201FE000FFF7CCFA009980B208814649C98A88425DD94449C8825AE04248E030C2790620E3
:2020000093079B0F9840801E52076A8E03D51018884203D320E0101A88421DD9E07B401C74
:20202000C0B2E0730A2851D8A07D00280FD0A07B052801D9002005E0022808D9E07D0028A5
:2020400008D00120FFF7F0FE00283FD1E0750020A0732CE00120F9E7A07B401CC0B2A073DA
:20206000A17D00290CD0E17D002903D005280CD9012002E00A2808D90020FFF7D5FE25E0CD
:20208000E07B022801D90120A075E07B052801D9002005E0022808D9E07D002823D00120A0
:2020A000FFF7C2FE002811D1E0750020E073397B787B814200D06BE7307B401EF072A88E6B
:2020C000401C80B2A886E98E884217D3FEF707FC0D4828860A486030817B0907090F817324
:2020E00003D005203FE70120DEE7A88E317B021D8A4201D2081A36E7042034E70020F8BDE9
:20210000F001002000000020FFFF0000003C004000DC050010B51022FC49FD48FEF731FC90
:20212000FA49FB48102220316038FEF72AFCF8490320D0390865F7480422017B1143017360
:20214000022160384174F2482021B038C1720F218177F14958200882ED48F0495038816638
:202160004166EC48EE494038C185C038016880300164C163426C891A81630521403881722F
:2021800010BD10B5E7490888072212029043FF3001300880FF20E04921300882DC4801218C
:2021A0007038817240214038C17241218177D74910221031B030FEF7E4FBD449D44810226C
:2021C00030316038FEF7DDFBD148D74950388166D2494166CF4801630421C038817210BD77
:2021E000CB4A0020CB49503A096B526E06E00B4653401B0600D0401C090A120A0B461343EB
:20220000F5D17047C34A10B5C84B803A93819073D17310461021A03081730220FEF7F0FCF9
:2022200010BDBC4910B5C24A80398A818873B9482021203081730120FEF7E2FC10BD70B5D0
:20224000B44CB34A2034A07B02250007000FA073617B1032002902D001290BD03CE0107BFD
:20226000C00705D03120FFF7DCFF0120607370BD65730DE00007FBD5A6482038017E3129C4
:20228000F6D1417E1170817E5170C07E9070EFE7617B4808CE07491CCBB29D496373D039BB
:2022A000002E0BD0A37BDB0716D00918A14BE0311818FF30097A213001740DE00E18E03640
:2022C000317A3679B14205D0C20700D10420FFF799FF70BD5B1C6373607B0828D8D3411C03
:2022E0006173082809D0A07BC0070BD08948016B874850384166157306E0FFF771FFC1B2C2
:202300000020E4E7042010738A480521403081720020A07370BDF0B57D487038807BC0069D
:2023200001D50020F0BD7A4879491038D039008A898D421A02D50124504201E00024104640
:20234000C10874480023203000290BD0C3758375082202757F2900D97F21002C00D0494208
:2023600048B2F0BD857DAA1856B28675C27D521CD5B2C575AA07F0D1027D964202DD0121B7
:20238000002404E05742BE4207DA01210C460C2D01D3521C02758375DCE7C375457D6D1C17
:2023A000EDB24575202DF6D94375042AF3D9521EF0E7F0B5564C6049D03CE08D85B0484386
:2023C000000CA087FEF774F9A18D524F48430001010C20464030019001802146554E603F6F
:2023E0003446787B8034C0312546C007A0350291002858D00846C038008EFEF7A9FE0199D7
:2024000000908880424870380390807BC00747D13F48D038408EFEF755F90098FEF7BCFCA0
:20242000B87B042805D23F498A88920709D5012206E0042805D93B498A88920701D4032219
:202440008A80FEF748FCB97B0A2901D2002008E00F2901D2012004E0142901D2022000E0D5
:202460000320304A1288F0239A43800102432D480280072901D9162100E0062129488181BD
:20248000818802888901D20818231A4000881143400906221040014303980173FEF759FC76
:2024A000FFF739FF4CE0FFF736FF7A7B110747D41749D0398B8D0299098A8B4205D831687D
:2024C000236CC91A1D4B994203DB697F102319436977697FCB0601D4372039E08B072FD47F
:2024E000080704D57D210B48C9004038C1850A48818B012319438183052002437A733220F1
:20250000606430682838A06305B0F0BD34290000D00000203002002000300040040A0A0073
:20252000DC05000000340040311414000C2000000C0700003001002080200500881300001D
:20254000411D0A2902D9797B090701D5962100E032216164697F0A070AD5021D082A07D87E
:202560008A0702D54908490001E0FB2211406977E649E74B8A6C9C46002A25D033689A1A83
:20258000E44B9A4201D900228A64E149E14B20398A8D263B9A4207D36246927F2D2A03D284
:2025A000002801DA002020E003281EDD019AC98A1289914219D10A468F3A082A02D9B83975
:2025C000082912D8032010E0D14A029B203A1B8AD14F928DDB199A4213D90A7D082A02D38D
:2025E0003068E06390E7521C0A75C3218900A181A073614688754020A8730120FEF700FBCA
:2026000082E70022F0E7C14810B5C4498038C1601021A03081730120FEF7F2FA10BDF8B533
:20262000BA4A1F23603A507BBD49C5061B020124002D16DAEF2528405073088B1B229843D5
:20264000120280180883B24880222038018C114301841046FEF718F9B24801782143017045
:20266000F8BD450711D5FB252840102528435073AD48848002883024A2430280088B09228C
:202680009843120280180883F8BDA148A030017E002902D0FFF7ECF8F8BDA4490C468034BE
:2026A0000B68E16B26468E465D1A40362E21715E8C46654503DB4821E3630176EAE79B4DD7
:2026C0009249B8267659087B2D680707AD1B002F31D0C60705D0400840000873FFF7B8F809
:2026E000F8BD860705D5FD2210400873FFF7A3F8F8BD46070BD5537C002B02D05B1E537455
:2027000002E0FB2210400873FFF76DF8F8BD642D11DA7246D61A6246B218FF265F36B2429B
:2027200009DDF722104008738048062140308172FFF769FFF8BD606C854203DBA363FFF7FD
:2027400038FEF8BD72482038008EFEF701FD704920318988081A00D54042C828F1DD322057
:202760006064F8BD694810B571498038C1606021C1731021A03081730220FEF741FA10BD0E
:20278000F0B5624C87B02034A07B002205072D0FA573E07BC10700290DD0002D0BD1617BB0
:2027A000491CC9B26173032902D2401EE07302E0401CE07362735D4EE77B3046C030E036C5
:2027C0000590307E0490707E039051483B00C030C17A0291817A0191417A0091017AFEF7C6
:2027E000F7FE110A0D121420242E353941464E535E63688E9000FFF7B5FF82E0A80700D5B7
:20280000FEE762737DE030200CE004993029F8D10399C17005983E49408FA03140BAC885CE
:20282000EFE73120FFF7FDFC6BE004993129E8D103990170B17E4170F17E8170E1E70079F9
:20284000814201D0022024E0072026E0E807D8D02174D6E740790099814201D0012018E0A9
:2028600009201AE0E807CCD000986074C9E780790199814201D004200BE00B200DE0E80751
:20288000BFD00198A074BCE7C0790299814203D00320FFF7B7FC34E00D20E07331E0E8078F
:2028A000AFD00298E074ACE7FFF79AFCC1B20020EFE71748EB0715496030002B17D0096B5E
:2028C0004166FF210598C331C1851848016880300A46FF3A2D3AC2630164426C891A816332
:2028E00012490520403188720F20607709E0AB0707D5406E08636273E27307B005E6FFF795
:2029000009FCE07B401CE073F7E700003002002020000020DC050000490200000C090000F7
:2029200000300040406C004000340040300100200C220000F304190CEA000D000000000035
:202940000000000013083204750009000000000000000000965A845A963E963D963CA02899
:2029600014000000AA5A965A965A965A965A965A1400000006214843C01C7047F8B5002168
:202980000846F94A43009A18C0321289401C51181028F6DB0803010CF44CF54A4808618688
:2029A0008018FEF7EBFD274640373881EE484030807A05287ED12046008EFEF7C9FB2146D5
:2029C000B88060310091897BEA4DC907C03400295BD1FEF7E1F92E46803EB07B022808D219
:2029E000F98A0905C90E052903D1218AFF3125312182A17F8008081806214843DE49C01C1C
:202A00008881DA48408EFDF75DFEB07B052805D2DA498A88920709D5012206E0052805D97F
:202A2000D6498A88920701D403228A80FEF753F9B27B0B2A01D2002108E00F2A01D201211B
:202A400004E0142A01D2022100E00321CB480388F026B34389010B430380A17E891A00D5BE
:202A60000021E27EAB7E4900D21851182183818802888901D20818231A40008811434009BB
:202A800006221040014300980173B848238A878DBB485E1F00210211B7421ADA1C23E35694
:202AA000002B0EDB09D0462B0ADD5923DB4323773C2300E03CE0637703E0607F401C2077B3
:202AC0001046EB7E012B26D1E976297F491C297721E0268B21779B19BB4216D26177E97EE6
:202AE000A848002904D10121E976297F491C2977A149898BBB22D200914210D97D2252015F
:202B0000821A91420BD200230AE097490978CB014B4059B208189849898B9042EAD10C23C8
:202B2000964A118A0C24A1431943118292498880F8BD10B5FDF74BFE9348FDF70FFEFFF7AB
:202B40001DFF002010BD72B690480179FD22114001718E4962B60020203108708C48012142
:202B600001800321018084498A4888807E48082140308172704770B57C4C8749E08D4843CA
:202B8000000CA087FDF794FDA18D254648430001000C403528800B2000070818FEF724FBC9
:202BA00020466030007B032189074018FEF71CFBA888052149074018FEF716FBE08D0D21ED
:202BC00009074018FEF710FB608E0F2109074018FEF70AFB70BDF0B57049012008800022B7
:202BE0000A816F4B604D1046C4182F18267D80373E73247D0C710C886406FCD4401C0928E6
:202C0000F2D308895849030A80314B758875084620304272827258485949818030210176F1
:202C20000188102211430180F0BD10B54E495D4888674E480F21203081775B4958200882B3
:202C40005148FDF78BFD594940200881FDF782FE10BDF0B5444C85B040342046A77A4030BE
:202C600003904248434AC0300290008A01903F481146808D00903C4820390546A035066827
:202C8000687B3B00FEF7A4FC06041324E0E09AE0810704D4022108436873FFF7C6FF324828
:202CA00000681E2834D9FFF796FF0120CBE00120000386422CD92D484030C08A0005C00E0F
:202CC000052802D102983A4901820398C663B9E0354FC3061DD5EF23184068730520A0723C
:202CE0000020C88710773A8B1F2109028A431B210902511839831D488022018C1143018428
:202D00001046FDF7C1FD2B4801780122114301709AE0410710D5FB21084010210843687375
:202D20001649012088803A8B1F2109028A43092109025118398387E0019A0099914206D28E
:202D400003997D22C96BD200711A914207DBBA8B01231A43BA8305210843687374E0064801
:202D60001549818070E00000300100200000002000DC0500500200200038004000340040F4
:202D8000DF2E00006F1700006C2E00000060004000440040BF5D0000802005000070004071
:202DA00020470000332B000000300040003C0040B6050000406C0040ED020000244F019EBA
:202DC000009BF619B34219D90B7DFA2B03D9214B81261E8001E05B1C0B75029E1C23F35628
:202DE000002B01D05B1C33771B4B167F9B7E052E06D90026CE87167718330FE00023EBE759
:202E0000CE8F4B27761CB6B2FF00CE87BE4208D90026CE871677042B02D91B1F937600E07F
:202E20009676C1070CD0E87A401CC0B2E872FA2803D30020E872FFF79EFEFDF78AFF03E0F4
:202E4000000701D40220A072002005B0F0BD0000490200000038004050020020F3041E088E
:202E600024010900C300123000000E00121112031211120470B5D14C11202070D048CF496D
:202E8000027860310A7140780870CC4D092080352872002008751420FDF76EFD31202070DA
:202EA0001420FDF769FD712020701420FDF764FD0120207120790028FCD1287B402108434B
:202EC0002873257C4921A8012818FEF757FB06460D2068434921FEF751FBB84A203216756E
:202EE000107603202072217B0143217370BD5300D3189B08834206D8904204D850088842A2
:202F000001D3052901D20120704700207047AD480068D22806D9AC48017FDF2211400177B9
:202F20000020704701207047FEB5A64FA037787B3E46C107603E002919D1400617D501241C
:202F4000A2487C73818B21438183A1488022018C114301841046FDF797FCB07A042801D12E
:202F60000320B072984820300178214301709948407B002802D19848FDF7F0FB944CB07A2E
:202F80002246254660328F494035C03401920300FEF71EFB0604202B4E6DFE2A01218F48B6
:202FA0008902818088482030017804221143017087480222018C114301841046FDF764FCFE
:202FC00020202072824810228549D030FDF7D9FC012008E0D07B800701D5032003E0086865
:202FE000262801D90220B072E5E0227E002A19D0607E7C4909280AD300206076521E22763E
:203000000879FD221040087119200880D3E0042805D1754A0A800A7902231A430A71401CAC
:203020006076C8E00320B0720220FDF754FEC2E008689628D8D90420B0720020FDF74BFE41
:20304000FFF718FF654869490180694981805E4820300178022211430170E889D1010843EA
:20306000E88172B66348FDF712F862B6A3E0E07E002801D0401EE0760878504E800679D182
:203080005348008EFEF764F80090A88050480521008E49074018FEF7A7F807210098490766
:2030A0000843FEF7A1F8FDF754FE0198807BC0071DD10098FDF770FEB87BFDF70CFEB87B4A
:2030C0000F2801D3C02104E0092801D3402100E0002142480288C0231A408A4207D0327B18
:2030E00052085200327302889A430A430280787B0921084201D140207873354F3E49F88D35
:203100004843000C0D21B88709074018FEF76CF8FDF7CEFAB98D4843218A000B421A207AB1
:203120005043C217920E10188011081800D5002080B20B21288009074018FEF755F80124E0
:20314000347130790028FCD1307C1C498031097AC10079862948FEF711FA80B20F212881AB
:2031600009074018FEF740F8307BC00702D1307B20433073327C114C4034217A2079FFF71B
:20318000B6FE002801D001203072327C217E00E007E0207DFFF7ABFE00280CD002203072A7
:2031A00009E0FFF767FE0420B07204480F2160300175032101740020FEBD00000036004019
:2031C0006047000030010020206C0040003000400000002030020020AC1D0000003400400C
:2031E000003200002038004019300000510A0000030400000F2F00008020050040420F00E6
:203200004C1D1914E7010D00050000000000000010B5AE480122028081210180AB4B05217F
:2032200020331981AA493224497B614395311980232101800F2101838282A6490820086095
:20324000A5490860A548017840221143017010BDA1490820803108609C49002008809F481F
:2032600001789F2211400170704770B59C490126CC8A0A4618328B8AA55C9E40354000D041
:203280000325002801D0012000E003205B1C9BB268408B82082B05D30023641C8B82A4B25F
:2032A000CC82A354CC8A0D7DA35CA8400343A354888A401C888270BDF0B5854985B0203127
:2032C000487B8007800F012805D0022809D00020487305B0F0BD8348049020203F2703903F
:2032E00005E080482E30049030200F2703907C4C332020766076A076E07620776077A0779E
:203300000620E0820720A082002006460190012002900498805D002807D00399411A019824
:203320008C464840761C019003E00198844600200290012500950DE06046284206D0012069
:20334000FFF793FF0098401C009002E00020FFF78CFF6D002F42EFD10098C007C00FFFF71C
:2033600084FF02980028D4D102E00020FFF77DFFA08A0728F9D35A48E18A1830085C00060B
:2033800001D5CC2000E03320554A193288545449E28A1A315054E28A491C5054E28A491C34
:2033A0005054E28A0020491C5054E0820720A0828FE710B54A480021418201744A4801224E
:2033C000028081210180484988202031087148154649888046480880302088814348203007
:2033E0008283424B40331A81424C8C80384C2034647A022C01D01C7410BD3F4B0B83828166
:20340000828282808A830A210182018301810180FF210231818331487F218182402101721D
:203420002C49801508602C49086010BD70B5284900232031487A294C02280BD0012809D028
:20344000FFF706FF2449A015803108602372FDF74CFA39E0224D287C020603D502071CD066
:20346000401E2874487B80072ED0688A411C89B26982002816D0082919D07D20C00081424D
:2034800000D36B82687C00281ED0401EC0B268740C2811D0002813D016E01448403003746D
:2034A0002B74DFE72078402108432070EAE7FFF703FFFFF7ADFEE5E720782021084302E097
:2034C00020789F2108402070002070BD005000404000002080E200E000E100E0406C004090
:2034E00070020020241600000038004000340040F30A00000302000005500000F8B5574871
:203500006421858C203080796843FEF737F8544A0123938351490326898C504C7603491ED1
:20352000314380348EB2217A677A8C1C002F04D04F1C874221D9481C24E06B08984201D345
:20354000002005E05D1A181A2F1F874200D23846434F203F3E8394819C1C14820225958203
:203560000D191583851C4E199680C3189B1C1381BD8308180019108013E06D1A2F1F8742AF
:2035800000D23846364D203D2E8393839481801C10820223938209181183AB83118094802F
:2035A0001081FF2002309083F8BD2E490120088081220A802B4A882120321171284942026D
:2035C00020398A80284A0A8000228A81244988832349203108817047F8B520480021203064
:2035E000427A224C032A07D021712172202020732074FDF77AF92FE01D4D194AAF7A01267E
:20360000203A3B00FDF7E4FF05041C21281A2700FF22124958328A84322181710F480521B9
:2036200080300172FFF7C1FFFFF768FF08202071092020720A2020730B202074AE720BE059
:203640000C489080FFF75AFF06E00120400290800320A87200E0A9720020F8BD40000020F1
:183660002034004000380040F30A0000206C00407001002003020000E7
:00000001FF
