:1000000000D00B0000000000000000000000000015
:1000100000000000000000000000000000000000E0
:1000200000000000000000000000000000000000D0
:1000300000000000000000000000000000000000C0
:1000400000000000000000000000000000000000B0
:1000500000000000000000000000000000000000A0
:100060000000000000000000000000000000000090
:100070000000000000000000000000000000000080
:100080000000000000000000000000000000000070
:100090000000000000000000000000000000000060
:1000A0000000000000000000000000000000000050
:1000B000309C080000000000C0A60B0000000000FB
:1000C000C4A60B00000000001C6507000000000033
:1000D000C8A60B00000000003070080000000000FF
:1000E000409C080000000000509C08000000000038
:1000F00018700800000000002070080000000000D8
:100100004070080000000000000000000000000037
:100110009462080000000000008008000000000059
:10012000B8B50B00000000001070080000000000CF
:100130003870080000000000517008000000000046
:100140005870080000000000507008000000000017
:100150004870080000000000607008000000000007
:10016000B8B50B0000000000C0B50B000000000097
:10017000C0B50B0000000000C0B50B00000000007F
:10018000809C0800000000002043020000000000E6
:100190006C5A020000000000F8D3010000000000CB
:1001A00060A609000000000060A608000000000032
:1001B000109D08000000000060A60A00000000007A
:1001C00020DF01000000000080DF010000000000CF
:1001D000C0DE01000000000080E30100000000001C
:1001E000408F070000000000588407000000000056
:1001F000488F070000000000289C08000000000055
:1002000064BF01000000000040C7010000000000C2
:100210008896080000000000989108000000000087
:10022000C8A508000000000040BF01000000000059
:100230003059050000000000C02508000000000043
:1002400098C5070000000000205D030000000000CA
:10025000905D030000000000FCD7010000000000DA
:10026000302508000000000044A104000000000048
:10027000F054080000000000D099080000000000C1
:10028000489A080000000000F898080000000000EC
:100290009898080000000000709908000000000015
:1002A000A0B50B0000000000A0B50B00000000008E
:00000001FF
